:100000009FC10000BAC10000B8C10000B6C1000025
:10001000B4C10000B2C10000B0C10000AEC1000018
:10002000ACC10000AAC100000C942F1C0C94FA1C57
:100030000C940F17A2C10000A0C100009EC10000D7
:100040009CC100009AC1000098C1000096C1000048
:1000500094C100000C94981790C100008EC100005C
:100060008CC100008AC1000088C1000086C1000068
:1000700084C1000082C1000080C100007EC1000078
:100080007CC100007AC1000078C1000076C1000088
:1000900074C1000072C1000070C100006EC1000098
:1000A0006CC100006AC1000068C10000E303E30303
:1000B0000A040A0425052505250525056004C00454
:1000C000CD04CD040E101110451056105B106510B4
:1000D000671067106710BF10BF106B106D107110A4
:1000E0007D1089108B108E109A10A610B1101E1161
:1000F0008F112611F010F4102A11F7102D1138115C
:100100000211851106113C110A1140116A110E11DC
:100110004411741114114A115411FB103111FE10C5
:10012000341119114F11601180118211EC1022113C
:100130009811FC150216F015F61508160E16141671
:100140005E1D851D761E851D761ED01DF21D761E38
:10015000461E551E27001E002100240028001F00F7
:10016000220025002152200023002600010001006A
:100170000100010001000100010001000100010077
:100180000100007C010001000100010001000100EC
:1001900001000100010001000100007CDA00D9002B
:1001A00023782478277828780000000000000000D9
:1001B0002A2B2800000000000000000000000000C2
:1001C00000000029000000002C1E342021222434CD
:1001D0002627252E362D3738271E1F20212223249F
:1001E00025263333362E37381F0405060708090A3B
:1001F0000B0C0D0E0F101112131415161718191AD7
:100200001B1C1D2F3130232D350405060708090A54
:100210000B0C0D0E0F101112131415161718191AB6
:100220001B1C1D2F3130354C000000000000000069
:1002300000000000000000000000000000000000BE
:100240000000000000000000000000007E0F00D44D
:10025000FFFFFFC7000000781C0341007400680026
:100260005F004D006100630072006F005F003300AB
:100270007800340000000A03410074006800500058
:1002800000000403090409024200020100A0FA0967
:1002900004000001030101000921110100012244B1
:1002A00000070581030800010904010002030000A2
:1002B000000921110100012222000705820320000C
:1002C00001070503032000011201000200000008DD
:1002D000504120040101010200010660FF0961A1F3
:1002E000010962150026FF00952075088102096347
:1002F000150026FF00952075089102C0050109062A
:10030000A101050719E029E71500250195087501E8
:1003100081029501750881010507190029FF150063
:1003200026FF0095067508810005081901290515A5
:10033000002501950575019102950175039101C094
:1003400011241FBECFEFDAE0DEBFCDBF11E0A0E089
:10035000B1E0EEEDFEE302C005900D92AA32B107C6
:10036000D9F721E0AAE2B1E001C01D92A73DB20792
:10037000E1F70E94700F0C946D1F42CE8330C8F4D9
:100380006330B8F44430A8F490E0FC01EE0FFF1F96
:10039000E80FF91FE60FF11DEE0FFF1FEE0FFF1F15
:1003A000E40FF11DEE0FFF1FEC5AFE4F8591949163
:1003B000089581E090E00895833088F461110FC0C2
:1003C000E82FF0E0EE0FFF1F81E04827E40FF11D5A
:1003D000EE0FFF1FE456FE4F85919491089581E042
:1003E00090E0089581E0089581E00895FDCF08959B
:1003F000FDCF0895F9CF08950895FECF0895A6E0A2
:10040000B0E0E5E0F2E00C94D11E49835A839E836C
:100410003091310189819A81311112C03E8133239B
:1004200049F0222339F088D4182F682F89819A81C6
:1004300052D402C069D4182F69817A81812F03C0F8
:100440007BD469817A810E942F0D2696E3E00C947B
:10045000ED1EFC01262F40815181628173818481D0
:100460009581CDCF0895CF93DF93EC0161E0F1DF6B
:10047000BE01BEDFDF91CF910895CF93DF93EC01F2
:1004800060E0E7DFBE01B9DFDF91CF910895089505
:1004900032D3FDDF2FEF84E39CE021508040904079
:1004A000E1F700C000000895F3DF0C94BE17089533
:1004B000EFDF0C94CF1708950F931F93CF93DF9323
:1004C0008C0161E0C6DFEC01B8010E94DE0F8823D9
:1004D00009F44CC0B801CE018DDF882309F446C071
:1004E000B801CE010E94E415882309F43FC0B80189
:1004F000CE010E94C9108823C9F1B801CE010E9423
:100500004E15882399F1B801CE010E942616882342
:1005100069F1F8018581882331F1C3308CE7D80770
:10052000C9F040F4C115FCE7DF0791F0C130DC47AA
:1005300099F019C0CB35ECE7DE0799F0CC35FCE734
:10054000DF0761F0CA35DC4771F40E94BC0A0BC0BA
:10055000ABDF0CC00E94C20AABDF08C00E94B30A26
:1005600002C00E94BF0AC8013DDF01C080E0DF91E8
:10057000CF911F910F9108950E94EE161EC008950D
:100580001FD00C94F4160895089581E008950895FD
:10059000CF93DF93D82FF9DFC82F882311F08D2F49
:1005A000F6DF8C2FDF91CF9108950895CF93C82F58
:1005B000EBDF8C2FEDDFCF91089580E0F7CF08952A
:1005C0000E946C16F3CF0895CF930E946C16C82F2B
:1005D00080912C01C81771F0C0932C010E947D17E7
:1005E00060932D0170932E0180932F019093300121
:1005F0008C2FDCDFCF910895ADE0B0E0E2E0F3E0D6
:100600000C94D21E488759876A877B878C879D8781
:100610009111EFD6CE01019627E0FC0111922A95A7
:10062000E9F726E0FE013896DC0101900D922A954B
:10063000E1F72D81211109C029813A814B815C812B
:100640006D817E818F8125D603C00DDF8111F4CFAE
:100650002D96E2E00C94EE1EFC012481213019F469
:100660008081918195C30895CF93882351F1C82F3C
:100670008CEF8C0F813AC8F46C2F8091000190911F
:1006800001010E949016882341F06C2F8091000197
:10069000909101010E94C816D3D66C2F8091000161
:1006A000909101010E94C6160BC080E28C0F883029
:1006B00040F4C77081E001C0880FCA95EAF77CD684
:1006C000BFD6CF9108958823C1F0682F8CEF860F95
:1006D000813A38F480910001909101010E94C8167E
:1006E0000BC080E2860F883040F4677081E001C063
:1006F000880F6A95EAF766D6A3C608951F93CF932D
:10070000DF93182FEB01B0DF209741F08FE99FE0D6
:100710000197F1F700C000002197F6CF812FD3DFBA
:10072000DF91CF911F910895893319F060E070E057
:1007300002C060E570E0E2CF0895882311F03CD656
:100740007FC60895882311F03DD67AC60895A0E0AB
:10075000B0E0EDEAF3E00C94CC1E7C01D62FC72F5D
:10076000FC011581068102950F701CD68823D9F0F3
:100770001123C9F08C2F807F803451F080E28D0FDF
:10078000883088F0011104C08C2F807E803259F0AF
:100790008091BF0182FF07C082E0BDD603D691E001
:1007A000D82ED92601C0D12CCC2EC2948FE0C822DD
:1007B0008C2D90E08C30910508F047C1FC01EA5A7D
:1007C000FF4F0C94B51E8C2F807FCF70882311F0C3
:1007D000C295C07F112381F0CC2309F424C180E2AB
:1007E0008D0F883010F0D11103C08C2FE5D502C0D9
:1007F0008C2FF2D525D617C18D2F65DFCC2309F4B8
:1008000024C180E28D0F883018F1DD2309F18C2F8F
:10081000E9D520C08C2F807FCF70803211F0C29537
:10082000C07FDD2319F0D13051F133C08091BF0179
:1008300082FD12C0112339F0CC2319F08C2FBCD5C6
:10084000FFD580E0F1C080E03EDFCC2309F4FDC09D
:100850008C2FB8D5F5D5F9C0112341F00023E9F06C
:10086000013009F0F2C08C2FCCD5EFC00111EDC0E2
:100870008C2F68DF8C2FD0D58C2F26D6E6C0112385
:1008800021F0063008F0E1C008C0053008F0DDC0F6
:1008900014C0112329F00111C6C08C2F4EDFD5C022
:1008A000002359F0D93309F0CEC0FFEF27EE83E0E3
:1008B000F15020408040E1F7C4C08C2F43DFC5C019
:1008C0008C2F837059F51111C4C04D2F4295469558
:1008D0004770440F440F2D2F2F70042E01C0220F9C
:1008E0000A94EAF7D4FF08C08FE090E001C0880FB7
:1008F0004A95EAF7809501C080E0C695C695C37019
:10090000822BC23039F040F4C13011F042D1A1C085
:100910003BD19FC043D19DC035D19BC0112319F05D
:100920008C2F817001C08695882309F492C04D2FC9
:10093000429546954770440F440F2D2F2F70042E7B
:1009400001C0220F0A94EAF7D4FF08C08FE090E0BC
:1009500001C0880F4A95EAF7809501C080E0C695EE
:10096000C695C370822BC23039F040F4C13011F00B
:1009700052D16FC04BD16DC053D16BC016D169C07D
:10098000CF70112329F08C2F1FD18D2FD6DE61C09F
:100990008D2FD8DE8C2F23D15CC0D23F11F128F4EB
:1009A000D03F41F0D13FB9F03AC0D33F01F1D43F3D
:1009B00071F035C0112339F0053008F046C08C2F96
:1009C0008F7119D142C0063008F03FC0F8CF809136
:1009D000BF0182FD14C0112331F08C2F8F71F4D030
:1009E00034C01123D1F38C2F8F71F9D02EC0112375
:1009F00021F08C2F8F71E0D028C0DBD026C01123CE
:100A000039F0CF718C2FE0D063E08C2F6AD51DC0F8
:100A100081E081D50230C8F082E07DD516C0112377
:100A200029F00023D1F28D2F1FDE0FC00023D9F251
:100A3000D93349F49FEFE7EEF3E09150E040F04006
:100A4000E1F700C000008D2F3EDE88EF8C0D843072
:100A500018F40E946C16AADDDD2059F09FD480FDA9
:100A600008C0F701158294D4AFD0C7011BD090D431
:100A7000B6D0CDB7DEB7E8E00C94E81E0F931F9315
:100A8000CF93DF93EC01688179818D818AD18C01CC
:100A9000CCD06ED0B801CE015ADEDF91CF911F913C
:100AA0000F910895CF93DF93FC0124812223A9F0B5
:100AB000EC0102DD81110DC075D4882371F08D81A8
:100AC000882359F08091BF0182FF07C082E023D5BF
:100AD00004C0CE01D3DFCE01D0DCDF91CF910895E9
:100AE00088D4AEC4089580910001909101010E94C4
:100AF000CA16F6CF08956DD4F6CF089592959F70DB
:100B0000963079F010F4925001C09A50923068F407
:100B1000803F69F018F4883E40F409C0843F29F40E
:100B200006C0883E20F0813F11F080E0089581E00A
:100B30000895FC012481222329F08081918128D10C
:100B4000DDCF089580E00895A6E0B0E0EAEAF5E0A0
:100B50000C94D21E2696E2E00C94EE1EA7E0B0E0C4
:100B6000E4EBF5E00C94D21E2796E2E00C94EE1E26
:100B700008950895FECF0895FDCF0895FDDF809379
:100B80003C010895FBCF089590913C01892BF6CF4D
:100B9000089590913C018923F1CF089590913C01F3
:100BA0008927ECCF0895E5CF0895FDDF80933B01C1
:100BB000089580E0FACF089591E001C0990F8A95D9
:100BC000EAF7892FF2CF089521E030E001C0220F2B
:100BD0008A95EAF780913B01822BE7CF089521E0C7
:100BE00030E001C0220F8A95EAF7209580913B0101
:100BF0008223DBCF089521E030E001C0220F8A95E7
:100C0000EAF780913B018227D0CF089590913B0174
:100C1000892BCBCF089590913B018923C6CF0895AE
:100C200090913B018927C1CF08950895962F977021
:100C3000A1E001C0AA0F9A95EAF793E0769567952F
:100C40009A95E1F7FB01EE0FFF1F6E0F7F1FFA0170
:100C5000E60FF71F40E050E0682F70E090819B01A5
:100C6000042E02C0369527950A94E2F7217021954B
:100C700029272A23292721934F5F5F4F43305105AE
:100C800069F708959B01782F777043E096958795D3
:100C90004A95E1F7FC01EE0FFF1F8E0F9F1FF90130
:100CA000E80FF91F40E050E080E0219130E0072E8E
:100CB00002C0369527950A94E2F721703327042E57
:100CC00001C0220F0A94EAF7822B4F5F5F4F433037
:100CD000510559F70895282F862F933060F424305A
:100CE00050F4622F70E024E0929F600D711D11247A
:100CF00045E351E007C09C5F923028F4622F70E01A
:100D000042E351E093CF0895292F933058F4843073
:100D100048F490E065E371E034E0239F800D911D7D
:100D2000112406C02C5F223028F462E371E090E0C9
:100D3000A9CF089580E00895CF92DF92FF920F939C
:100D40001F93CF93DF936C0100913B0180913C0195
:100D5000082BC3E0D0E010E0C8010C2E02C095952E
:100D600087950A94E2F780FD04C02197A8F7F12C3B
:100D700006C0FC2EB6018C2F8AD60197B1F38F2DB9
:100D8000DF91CF911F910F91FF90DF90CF90089549
:100D9000CF93DF93EC01D0DFBE0179D6DF91CF9105
:100DA00008951F93CF93DF93EB0190913101992325
:100DB00019F0CB01EDDF0FC0882339F0CB01BCDF88
:100DC000182F682FCE0187DF03C0CB019DDF182FBE
:100DD000BE01812F5CD6DF91CF911F910895E1E094
:100DE000F0E0DF0102C0AA0FBB1F6A95E2F7BD0168
:100DF000DF0102C0AA0FBB1F4A95E2F7AD01462BE7
:100E000001C0EE0F2A95EAF7942F9823491302C0E8
:100E10008E2B0895E0958E230895242F462F682F5A
:100E200080913B01DCDFC1CE08951F93CF93DF9308
:100E3000C0913D0117E080913E01C81799F0D0E0C4
:100E40001C9FF0011D9FF00D1124E15CFE4F2081DD
:100E50003181428153816481758186817FDE219653
:100E6000C770E9CFDF91CF911F910895209177014D
:100E7000309178014091790150917A0160917B0124
:100E800070917C0180917D0169CE0895CF93DF93AD
:100E900080917D0182958F7009F04CC080917C011A
:100EA000882309F447C080913D0140913E01509153
:100EB000780160917701C0917901D0917A0177E052
:100EC0008417C1F190E0789FF001799FF00D112413
:100ED000DF01A15CBE4F14962C911497222339F1A7
:100EE00011962C911197251322C02C9126131FC007
:100EF00015962C91159721111AC012962D913C919F
:100F000013972C1B3D0B283C310588F480917D0103
:100F10008F70806180937D01EB5BFE4F80818F70CD
:100F20008061808387E791E0BDDD7FDF03C00196AC
:100F30008770C6CFDF91CF91089520913D019091A8
:100F40003E0157E02917A9F030E0529FF001539F6E
:100F5000F00D1124E15CFE4F7181761306C07081A3
:100F6000781303C07581741306C02F5F3F4F27703D
:100F7000E9CF80E0089581E00895A4E1B0E0E3ECDA
:100F8000F7E00C94C81E8C0186E0F801DE011F9684
:100F900001900D928A95E1F7F8018481E58097E749
:100FA000A92E91E0B92E90917B01911115C0882353
:100FB00009F468C1EE20B9F1C801BBDDF82E882321
:100FC00091F187E0F801D50101900D928A95E1F742
:100FD000C50142DB5BDF8FC0F801C080D180828019
:100FE0009380F0907C012091790130917A01A401E5
:100FF000421B530BFF2009F4F4C0483C510508F094
:10100000A2C0882309F440C180917D01282F207F50
:1010100090917801222351F09D1509F45AC0C8011E
:1010200088DD81116AC0C8013DDD2CC19D1113C04E
:10103000909177019C110FC0E1100DC08F708061FD
:1010400080937D0113DF87E791E02CDD80917D01A6
:10105000F801868315C1E11036C040E06D2D8C2D5E
:101060006CDF40E06D2D8C2D68DFE82E811108C10A
:10107000CF86D88A8F8598898BDE292F22952F706D
:10108000243020F49F70223028F009C02A502230EA
:1010900080F014C0992349F0811107C012C0992330
:1010A00021F0F8019681907F61F0805E883030F405
:1010B00008C0803F30F0815F833018F0C801F2DC57
:1010C000EF2CFE2CE1C080917D01816080937D0139
:1010D000D7C0909177019C11A2CFE110A0CFF80169
:1010E0008683C801DFDC87E0F801A7E7B1E0019063
:1010F0000D928A95E1F7BADEC7C0EE2009F493CFCE
:1011000020917D01822F82958F7090E0029784F06C
:101110008091770190917801998788879B868A864C
:1011200080917B018C871D862E87CE010896BADCC4
:1011300087E0F801A7E7B1E001900D928A95E1F709
:10114000A5DE94DE9FC090917D01292F207F89F438
:10115000682D9A8A898AA6017A899E2DF5DC87E70F
:1011600091E0A0DC87E0F50111928A95E9F77EDE37
:1011700087C0882309F488C0809178018D1110C040
:10118000809177018C110CC0E1100AC0F8019683A0
:10119000C80188DC87E0F50111928A95E9F774C0EF
:1011A000C801C7DC882309F43ECFEE2009F43BCF09
:1011B00020917D01822F82958F7090E002970CF430
:1011C000B7CF80917701909178019A8389839C822F
:1011D0008B8280917B018D831E822F83CE010196AD
:1011E000A6CF483C510508F03EC0882309F44AC008
:1011F000FE2CEE2009F417CF809178018D1127C0C5
:10120000809177018C1123C090917D0190FD16C0D3
:10121000892F82958F70282F30E02115310571F0CC
:10122000F80196832F30310509F45BCF8F5F982F3B
:101230009295907F86818F70892B52CF87E0F8013D
:10124000A7E7B1E001900D928A95E1F71DC0C801B2
:1012500070DC81116DCF80917D01816080937D0173
:10126000C80120DC11C0682D9A8A898AA6017A8972
:101270009E2D6ADC87E0F50111928A95E9F73BCF54
:10128000F12C02C0FF24F3948F2D6496ECE00C94B3
:10129000E41EAEE0B0E0EFE4F9E00C94D11E288744
:1012A00039874A875B876C877D878E87CE01089652
:1012B00064DE882359F06C85662399F12885398589
:1012C0004A855B857D858E8549DC2BC087E0FE01E4
:1012D0003896DE01119601900D928A95E1F76C85A2
:1012E0006623F9F020913E0130E0C9010196877034
:1012F000992740913D0150E084179507C9F16D830E
:1013000097E0929FD001939FB00D1124A15CBE4F36
:10131000FE01319601900D929A95E1F780933E017E
:1013200084DD17E080913D0190913E01891761F1C4
:10133000189FC0011124815C9E4F1FDE882321F17C
:10134000E0913D011E9FF0011124E15CFE4F2081E0
:10135000318142815381648175818681FFDB809177
:101360003D0190E001968770992780933D01DACF87
:10137000C2DB10923E0110923D01E7E7F1E087E009
:10138000DF011D928A95E9F72E96E3E00C94ED1E9D
:10139000809186018695869586950895809186012F
:1013A0008770089590918601977081E009F480E03C
:1013B000089580919201089590919201892B8093D4
:1013C00092010895809590919201892380939201D2
:1013D000089510929201089590919101892B809324
:1013E00091010895809590919101892380939101B5
:1013F00008951092910108950895FECF0895FDCFAC
:10140000089590918801292F2823821721F0982B85
:1014100090938801F4CF089590918801292F282373
:1014200029F08095892380938801E9CF08958091E0
:101430008801882321F01092880180E0E0CF089590
:10144000CF93DF93E0910001F0910101809192012F
:101450008083E0910001F0910101908180919101E0
:10146000892B808380918801882379F0E0910001A5
:10147000F09101019081892B8083809100019091EE
:1014800001010E9484168111D2DFC0910001D09128
:10149000010148E050E06EE771E0CE010E940D1FAF
:1014A000892B59F088E0FE01AEE7B1E001900D9282
:1014B0008A95E1F7CE010E947916DF91CF910895C8
:1014C0009BCF0895FDCF089590918701292F282360
:1014D00029F08095892380938701F4CF08958CCFDC
:1014E00008959091BF0192FF0FC098E0899F9001ED
:1014F0001124262B2093860167DB80918601869537
:1015000086958695ECCF08955FCB0895109286015D
:1015100080E0E5CF0895909186018095892380939E
:101520008601282F277059F4981749F09091BF0130
:1015300092FF05C086958695869551DBE7CF089585
:101540009091BF0192FB222720F9281759F080FBC8
:1015500092F99093BF018091BE019091BF0133D069
:1015600082E0D9CF08958091BF0182FB882780F95E
:1015700091E08927E5CF089581E0E2CF089580E0EA
:10158000DFCF08956FEF7FEF80E090E00C94591F5C
:10159000089580E090E00E942B1F863E9E4F11F43C
:1015A000ACC4089580E0089582E090E00C94231F7D
:1015B000089583E090E00C94231F089584E090E068
:1015C0000C942B1F0895BC0184E090E00C94591FEB
:1015D0000895AB01BC018FE090E00C94511F089579
:1015E000AB01BC0183E190E00C94511F089560E0D1
:1015F00070E0CB01F5CF089560E070E0CB01E9DF4A
:10160000F6CF0895A8E0B0E0E8E0FBE00C94D21E2D
:1016100066EE7EEF80E090E00E94591F60E082E07D
:1016200090E00E943F1F60E083E090E00E943F1F37
:1016300010923C0160E074E184E090E00E94591F48
:1016400060E086E090E00E943F1F6FEF87E090E04F
:101650000E943F1F40E050E0BA0188E090E00E9405
:10166000511F60E084E290E00E943F1F60E087E14C
:1016700090E00E943F1F60E08CE090E00E943F1FDE
:1016800060E08DE090E00E943F1F19821A821B8269
:101690001C821D821E821F82188648E050E068E18D
:1016A00070E0CE0101960E94301F40E050E0BA0188
:1016B00080E290E00E94511F80E038D46BD49CDF20
:1016C0002896E2E00C94EE1E9DCF0895682F8EE0E0
:1016D00090E00C943F1F0895A6E0B0E0E2E7FBE045
:1016E0000C94D01E0E9471178C01809193019091EF
:1016F00094010817190781F019821A820E94711744
:10170000682F49815A81792F80E090E00E94FC0285
:1017100010939401009393012696E4E00C94EC1E40
:101720000E947D176093A0017093A1018093A20194
:101730009093A30160939C0170939D0180939E01FF
:1017400090939F0108950E947D176093A00170936C
:10175000A1018093A2019093A301609398017093DB
:10176000990180939A0190939B01089581E00895D7
:1017700081E00895FDCF08950895FECF0895FCCF30
:101780000895FDCF0895F8CF0895FDCF0895F4CFC3
:10179000089585E39EE0ACD3FADFF7CF0895EDDF3F
:1017A000EBCF08957BD20C94D50208950E94681760
:1017B000FCD3A0D602D3F6DFE4CF0895A6E0B0E0D4
:1017C000E4EEFBE00C94C91ED1DF811102C084DF7E
:1017D0004DC006D385E9E82E81E0F82E670100E0D0
:1017E000F60111916F01802F6ED281270F5F0330B8
:1017F00019F08823A9F302C0882349F38091A4013A
:1018000081FD67D2B7DFA82E10E099249394812F31
:101810005AD2B82EF701C080C82609F100E0DD24B5
:10182000D3948C2D8D21A9F0AA2099F009831A83D5
:101830000E9471179C838B839D8291E08B2D8D215B
:1018400009F490E049815A816B817C818D810E94ED
:10185000FC020F5FDD0C043021F7F701B0821F5F3F
:10186000FFEFEF1AFF0A133091F65ADF60D68111AD
:101870006ADF0E94E4022696EBE00C94E51E1F93BB
:10188000CF93DF9307D1EC01C11582E5D807B8F5F6
:10189000C11590E5D90708F0B7C0C83ED105C0F41E
:1018A000C03ED10508F0D6C0C53AD10550F4C430C9
:1018B000D10508F0CFC0219709F0C9C081E090E0C0
:1018C000CAC0CD3CD10508F4C2C0CE019065C3C0EA
:1018D000C11580E4D80708F058C0C11590E2D907B7
:1018E00008F0AAC0C11581E0D80708F4B0C08D2F58
:1018F0006DD1182FCE019927CDD01F71A6C0C03849
:1019000092E5D90720F5C03682E5D80708F060C017
:10191000C03492E5D90708F049C0C03282E5D80743
:10192000E8F54C2F4695469590E2499FA001112479
:10193000C37021E030E0C90102C0880F991FCA9529
:10194000E2F7EA01C82BD92BCE019D6884C0C03CC8
:1019500092E5D90768F48C2F8F71C03AD24508F010
:101960004BC090E0D82FCC27CE01846F906A73C013
:10197000C03E82E5D80708F06AC0CF71DD27DC2FB2
:10198000CC27CE01806F906A66C0CE01992782D0A5
:10199000CC27DF70D06A8C2B9D2B5DC0CF71D0E03F
:1019A000DC2FCC27CE01816F906A55C08C2F8F71B0
:1019B0008695869590E2899F90011124C37081E0FD
:1019C00090E002C0880F991FCA95E2F79C6811C089
:1019D0008C2F8F718695869590E2899F90011124B6
:1019E000C37081E090E002C0880F991FCA95E2F7AA
:1019F0009A68822B932B2FC0E9D08F7190E0D82F5B
:101A0000CC27CE01906227C08C2F8F71DFD095E05C
:101A1000D695C7959A95E1F7CF70D0E0DC2FCC270B
:101A2000282F30E084FF05C084E0220F331F8A9501
:101A3000E1F7D069CE01DDCF8D2F8F71C7D0182F80
:101A4000CE01992727D01F719062912B04C080E0AE
:101A500090E001C0CE01DF91CF911F910895462FF4
:101A6000672F733020F4443078F429C708957D3F00
:101A700021F4411109C041E004C07C3F29F4411127
:101A800003C060E027C7089580E090E00895E7DF95
:101A9000F6CE08958238910569F1B0F4813391054D
:101AA00009F475C048F48932910509F467C08A3297
:101AB000910509F471C008958533910509F459C061
:101AC00089339105B9F00895833E910589F138F481
:101AD000803E9105D1F0823E910529F10895863E20
:101AE0009105C9F1873E9105D9F1843E910509F030
:101AF0006CC027C02091BE0120FD57C021FD55C0FC
:101B00002091BF0123FD5BC008958091BE0180FD3F
:101B100048C08091BF0180FF48C08091BE0184FD14
:101B200046C083EE51C08091BE0182FF3CC0F5CF1C
:101B30008091BE0182FD37C08091BF0180FD35C01C
:101B4000ECCF8091BF0181FF36C08091BE0184FD42
:101B50002EC087EE39C08091BE0183FF2AC0F5CF29
:101B60008091BE0183FD25C08091BF0181FD23C00E
:101B7000ECCF8091BE0185FD22C01FC08091BE01C7
:101B800085FD1BC08091BF0183FF19C00AC08091F1
:101B9000BE0186FD16C017C08091BE0186FD13C030
:101BA00010C089E311C082EE0FC080EE0DC080E04E
:101BB0000BC086EE09C084EE07C085E305C089E24C
:101BC00003C08AE201C081E390E008959091BE01D4
:101BD00092FF10C041E0282F2471243009F040E02A
:101BE00031E0282F2871283009F030E0431711F038
:101BF0002CE0822793FF10C041E0282F247124316C
:101C000009F040E031E0282F2871283109F030E058
:101C1000431711F02CE082273091BF0130FF10C034
:101C200051E0282F2171213009F050E041E0282FA8
:101C30002871283009F040E0541711F029E082277C
:101C400031FF10C041E0282F2171213109F040E01F
:101C500031E0282F2871283109F030E0431711F0C6
:101C600029E0822794FD877E089580E008958ACC3C
:101C70000895B6D02FEF86E791E021508040904044
:101C8000E1F700C00000ACD080E01DD080FF03C0B1
:101C9000EEDF0C94BE170895ECCF08957ADC811125
:101CA00001C012DD81DC8093A40188DC9093BF0128
:101CB0008093BE01F1DF7DDC0E94C20580913B0173
:101CC0000C94D3050895E82FF0E0ED53FE4F80818A
:101CD000089508950895FECF0895FDCF0895FACF91
:101CE0000895FDCF0895CF93DF934EE051E0A1E03A
:101CF000B0E020E030E0FA01E20FF31F80818F3F77
:101D0000A1F0E82FE295EF70F0E061A18F70ED0196
:101D100002C0CC0FDD1F8A95E2F7CE019C2F909573
:101D2000962391A392A1892B82A32F5F3F4F24304A
:101D3000310509F74C5F5F4FD1E04A315D07C9F6C5
:101D4000DF91CF9108950F931F93CF93DF93DC0121
:101D500070E08B01000F111F000F111F40E050E0D9
:101D6000F1E0E0E0CA01800F911F825F9E4FEC011D
:101D700098819F3F89F0292F22952F7030E0E9014B
:101D800028A130E09F7002C0359527959A95E2F71B
:101D900020FD02C02F2F02C020E030E0E22BFF0F19
:101DA0004F5F5F4F44305105E9F6A60FB71FEC9324
:101DB000DF91CF911F910F91089595DF83E0E3ECC0
:101DC000F1E0DF01982F1D929A95E9F7E0ECF1E040
:101DD000DF011D928A95E9F783E03CD082CF089518
:101DE000A3E0B0E0E6EFFEE00C94D11E19821A8267
:101DF0001B8260E0CE010196A6DF61E0CE01019674
:101E0000A2DF62E0CE0101969EDF43E050E0BE011A
:101E10006F5F7F4F80EC91E00E940D1F21E00097E3
:101E200009F420E0892B49F089819A81AB81809364
:101E3000C0019093C101A093C20143E063EC71E043
:101E400080EC91E008D0182F48DF812F2396E3E043
:101E50000C94ED1E0895EF92FF920F931F93CF9372
:101E6000DF937C018B01C42F222349F081E0809312
:101E7000A7010E9471179093A6018093A5018091FC
:101E8000A701811102C080E01AC08091A501909144
:101E9000A6010E9489170597B0F3D0E0AE01B70103
:101EA000C8010E940D1F892B39F0AE01B701C8018E
:101EB0000E941A1F81E001C080E01092A701CDB7F7
:101EC000DEB7E6E00C94EA1E0E942A196FDC0C943F
:101ED000341908950E94381971DC0C944E19089534
:101EE00097D70E94111955DCEFDFF4DF58DCFDCFE6
:101EF00090932B0180932A01089585E290E00E943F
:101F0000231F833281F486E290E00E94231F8131F7
:101F100051F487E290E00E94231F91E0873009F09E
:101F200090E0892F01C080E081700895CF93C82F81
:101F3000811102C06FEF01C063E285E290E00E9470
:101F40003F1FC11102C06FEF01C061E186E290E066
:101F50000E943F1FC11102C06FEF01C067E087E21E
:101F600090E00E943F1FCF910895089588E290E08D
:101F70000E94231F682F70E080E090E0089508958C
:101F8000CF93C62FFCDF6C2F88E290E00E943F1FAA
:101F9000CF91089580E0CADF60E070E0CB01F0DF10
:101FA0001DD4EAD481E0C2CF0895DFDFDFDFE7DFB1
:101FB000A4DF811101C0EECF089508959C01FB01BB
:101FC0008581882349F0A90157574038510528F4E5
:101FD000C901E2D480E0089581E008952FEFFC016B
:101FE00020830895FBCF089580E00895A0E0B0E03D
:101FF000ECEFFFE00C94CA1EEC01F62EF5DF811128
:10200000C3C0E8818E2F90E0FC013197E531F105E6
:1020100008F0B5C0EE59FF4F0C94B51E19828CE044
:102020005EC08981823081F028F4813009F0A7C038
:1020300064D70BC0833071F0843009F0A0C01A82DD
:102040001B821C821D829DC091DF9A838B837C83BF
:102050006D8397C0EA806E0183E0C80ED11C00E05A
:1020600010E0AE2CB12CC501800F911F039708F032
:1020700088C08E2D800F27DEF60181936F010F5FE0
:102080001F4F0C31110579F77CC08981823031F006
:10209000853009F074C08A8190DF73C06A817B81CA
:1020A0008C819D810E94BB1E6BDF6BC04B816A815E
:1020B0008981F9D253C02C813D81322723273227D1
:1020C0004B816A8189810FD35CC088D35AC06F2D40
:1020D000CE0188DF56C007D41FC007D499838A83F6
:1020E00050C06B8170E089819A81AE014C5F5F4F77
:1020F000982789279827FCD344C06B8170E0898199
:102100009A81AE014C5F5F4F98278927982713D497
:1021100038C032D436C0B4D2898333C06B8170E00A
:1021200089819A81AE014C5F5F4F98278927982754
:1021300086D327C06B8170E089819A81AE014C5FA4
:102140005F4F9827892798279BD31BC041E08B813D
:10215000811101C040E06A818981DFD29C838D8337
:1021600010C02C813D8132272327322741E08B810B
:10217000811101C040E06A81898103D302C08FEFE1
:1021800088836F2DCE0151D7CDB7DEB7EAE00C942E
:10219000E61ECF93DF93FC01DB0115968C9188231B
:1021A00009F4DAC09F0130572332310508F0D5C059
:1021B000EF0104DA9093BF018093BE01FE01E1506C
:1021C000F047E232F10520F4E958FF4F0C94B51EB8
:1021D0008091BE018160A9C08091BF018860B1C0BB
:1021E0008091BE018260A1C08091BE0120C080911B
:1021F000BE0188609AC08091BF011EC08091BF015E
:1022000082609FC08091BE0180618FC08091BE01BD
:1022100080628BC08091BE01806487C00E947B0574
:102220008091BE01806881C08091BE018860846019
:102230007CC08091BF018260816083C08091BE01BB
:102240008E7F73C08091BF01877F7BC08091BE016C
:102250008D7F6BC08091BE0120C08091BE01877FC1
:1022600064C08091BF011EC08091BF018D7F69C095
:102270008091BE018F7E59C08091BE018F7D55C077
:102280008091BE018F7B51C00E947B058091BE0171
:102290008F774BC08091BE01877F8B7F46C0809136
:1022A000BF018D7F8E7F4DC08091BE0182FB2227B2
:1022B00020F991E0922790FB82F990FB83F935C0D9
:1022C0008091BF01982F909591708E7F892B90FB04
:1022D00081F937C08091BE0186FB222720F991E069
:1022E000922790FB86F921C00E947B058091BE0158
:1022F00087FB222720F991E0922790FB87F915C0F0
:1023000081E001C080E0E2D91EC08091BE0184FB63
:10231000222720F991E0922790FB84F906C0809152
:10232000BE01982F909590FB80F98093BE010BC061
:102330008091BF0183FB222720F991E0922790FB37
:1023400083F98093BF018091BE019091BF013BD979
:102350000E947B0580E001C081E0DF91CF9108956C
:10236000A0E0B0E0E6EBF1E10C94CD1EE82FF0E048
:10237000E855FE4FD490282F26952695269530E0D7
:10238000F901E85BFD4F0491877010E0082E02C050
:10239000159507950A94E2F701701127F901E85C99
:1023A000FD4FE490F12C082E02C0F594E7940A94B6
:1023B000E2F791E0E922FF24F901E85DFD4FC491C5
:1023C000D0E002C0D595C7958A95E2F7C170DD27A8
:1023D0000115110519F081EE0E943403E114F10496
:1023E00019F086EE0E9434038D2D0E949403E114AF
:1023F000F10419F086EE0E9463030115110519F02E
:1024000081EE0E946303CD2B19F08CE20E949403AD
:10241000CDB7DEB7E7E00C94E91EEF92FF920F9381
:102420001F93CF93DF93EC01162F0AE08881882356
:1024300009F454C0813009F043C08981813041F4EE
:102440007E0182E0E80EF11C8A810E94940309C09B
:10245000823049F47E01E2E0EE0EF11C8A810E9496
:102460003403E7012EC0833041F47E01F2E0EF0E29
:10247000F11C8A810E946303F4CF843011F021960D
:1024800020C02A81229680E090E030E0205331097C
:102490002A30310558F4089FA001099F500D1124DE
:1024A000C901840F951F21962881EFCF009749F02D
:1024B000EFE9FFE03197F1F700C000000197F6CF98
:1024C0004FDF2196812F882309F4B0CFEFE9FFE099
:1024D0003197F1F700C000008150F5CFCDB7DEB7DE
:1024E000E6E00C94EA1E8FE891E00197F1F700C056
:1024F0000000089581E08093A90186988E9A8598BE
:102500008D9AF1DF3091A901EBEAF1E090E09317A9
:1025100069F08FB186FB882780F97D9902C020E0A1
:1025200001C022E0822B81939F5FF1CF0895A8E143
:10253000B0E0EDE9F2E10C94C51E10E000E082E0AD
:10254000982E94E0A92EB12C2DEF822E772473942F
:102550003CEF632E43E0542E8091A901181708F038
:102560008AC0E12EF12CEFB1E6FBEE27E0F97D9970
:1025700002C080E001C082E08E2BD701A555BE4F7E
:10258000EC912E2F237030E0482F082E000C550BB5
:102590002417350709F46DC0EE0FEE0FE82BEC930E
:1025A000EF70F0E0E65EFE4FC70186559E4F6C016E
:1025B0009081F6018081890F8083843034F1F701A6
:1025C000E855FE4F80818F5F80838BD41D876E8698
:1025D000682F8F87988B598A7A8A412F5CEF792FE1
:1025E00083E091E00E94FC027CD41B8B6C8A682FF4
:1025F0008D8B9E8B5F8A188E412F5CEF792F83E045
:1026000090E00E94FC0221E001C020E0F601808100
:102610008D3F2CF5F701E855FE4F80818150808376
:1026200060D419838A82682F8B839C839D827E82EB
:10263000412F5DEF792F82E091E00E94FC0251D49E
:102640001F838886682F89879A879B861C86412FDF
:102650005DEF792F82E090E00E94FC0221E0F6011C
:102660008081082E000C990BB5010E94A21E808368
:10267000022B1F5F71CF802F6896EFE00C94E11E54
:1026800084E0089550E0440F551F28E0629F400DFC
:10269000511D11249A0168E1869F200D311D1124DE
:1026A000C901899608950F931F93CF93DF938430C8
:1026B00098F4633088F4443078F4E4DF8C010E94AD
:1026C000231F90E0D82FCC27C80101960E94231F1A
:1026D0009E01282BC90102C080E090E0DF91CF91DC
:1026E0001F910F9108950F931F93CF93DF93843021
:1026F00078F4633068F4443058F4E901C3DF8C01A6
:102700006D2F0E943F1F6C2FC80101960E943F1F32
:10271000DF91CF911F910F910895FF920F931F9317
:10272000CF93DF93843030F5611124C024E0829F81
:102730008001112407571F4F411103C082E090E030
:1027400002C080E090E0F42E800F911F0E94231FB2
:1027500090E0D82FCC27F11003C083E090E002C0B6
:1027600081E090E0800F911F0E94231F9E01282B83
:10277000C90102C080E090E0CDB7DEB7E5E00C947F
:10278000EB1E0F931F93CF93DF93843010F56111ED
:1027900020C094E0899FE0011124C757DF4F411109
:1027A00003C082E090E002C080E090E0632F022F3F
:1027B000142F8C0F9D1F0E943F1F111103C083E037
:1027C00090E002C081E090E0602F8C0F9D1F0E947E
:1027D0003F1FDF91CF911F910F9108951F93CF93CA
:1027E000DF93C0E0D0E010E0412F6D2F8C2F0E94CE
:1027F000BE019C01412F6D2F8C2F75DF1F5F1430A0
:1028000099F7DF5FD33079F741E060E08C2F0E94C9
:10281000DC019C0141E060E08C2FB3DF40E060E030
:102820008C2F0E94DC019C0140E060E08C2FA9DF2E
:10283000CF5FC430B9F6DF91CF911F910895EF9229
:10284000FF920F931F93CF93DF93EA017A01E60E75
:10285000F71E8C01C8018996CE15DF0561F00036A0
:10286000110520F40E94231F888301C0188221963D
:102870000F5F1F4FEFCFCDB7DEB7E6E00C94EA1E37
:10288000EF92FF920F931F93CF93DF93EA017A01A8
:10289000E60EF71E8C01C8018996CE15DF0551F0B2
:1028A0000036110518F468810E943F1F21960F5FC2
:1028B0001F4FF1CFCDB7DEB7E6E00C94EA1E8430AF
:1028C00030F4633020F4443010F4EDCE089580E00D
:1028D00090E00895843020F4611102C01ECF089565
:1028E00080E090E0089580E1089587E693E0089500
:1028F000EF92FF920F931F93CF93DF93EA017A0138
:10290000E60EF71E8C01C80187569F4FCE15DF05D6
:1029100069F0073623E0120720F40E94231F888302
:1029200001C0188221960F5F1F4FEDCFCDB7DEB7E4
:10293000E6E00C94EA1EEF92FF920F931F93CF9361
:10294000DF93EA017A01E60EF71E8C01C801875673
:102950009F4FCE15DF0559F0073623E0120718F414
:1029600068810E943F1F21960F5F1F4FEFCFCDB7A9
:10297000DEB7E6E00C94EA1ECF93DF93C9E9D0E01E
:1029800060E0CE010E943F1F2196C11584E0D80768
:10299000B9F7DF91CF910895A8E0B0E0E2EDF4E15E
:1029A0000C94C81EF82E8FE08F1508F473C08FEFBB
:1029B00093E00E94231F81116DC009E910E0FF2000
:1029C00071F0011594E0190709F464C0C8010E9470
:1029D000231F811101C0FA940F5F1F4FF0CFFE013A
:1029E00031966F0188E011928A95E9F77801FFEF3F
:1029F000EF1AFF0AC8010E94231F89831A828823C5
:102A000009F448C0813009F040C0580182E0A80EA6
:102A1000B11CC7010E94231F8A838823D9F19FEF2D
:102A2000980F933060F4780193E0E90EF11CC50132
:102A30000E94231F8B83882369F11C8226C0843067
:102A400019F54E01E3E08E0E911C02E010E07501D5
:102A5000FFEFEF1AFF0AC5010E94231FF4018193C3
:102A60004F018823B9F08C3741F4E2E0F0E0EC0F3D
:102A7000FD1FE00FF11F108208C00F5F1F4F5701AD
:102A80000730110521F706C0750160E0C601C5DCFD
:102A90008701ACCF2896ECE00C94E41ECF93DF9333
:102AA00086319C4731F5EB010E94D909982F8D8121
:102AB0002091000130910101882371F09A7A81E020
:102AC00009F480E08093AC01911102C069E201C079
:102AD00065E3C9015BD109C08091AC01811102C0DD
:102AE00069E201C065E3C90153D10E94200A80E078
:102AF00001C081E0DF91CF9108950F931F93CF9391
:102B0000DF93C42FD22FFC0185818823A9F0409345
:102B1000AF01E7D19093AE018093AD0180E28C0FBD
:102B2000883008F04CC0C77081E001C0880FCA959A
:102B3000EAF70E949D0343C08091AF0148132FC064
:102B40008091AD019091AE01E4D1883C910538F5BA
:102B500010E21D0FCD17B9F080E28C0F883040F4E1
:102B6000C77081E001C0880FCA95EAF70E94A203EE
:102B7000183010F581E09D2F977001C0880F9A954D
:102B8000EAF70E949D03802F0E9494031830B8F446
:102B9000D77081E001C0880FDA95EAF70AC080E2B9
:102BA0008C0F883060F4C77081E001C0880FCA952F
:102BB000EAF70E94A20303C0802F0E949403DF91D2
:102BC000CF911F910F9108950F93FC01E851FC479D
:102BD000E730F10588F5CB01E756FF4F0C94B51EA1
:102BE00006E221EE41EE6AE17CE723C007E225EE32
:102BF00045EE6BE17CE71DC006E221EE40EE68E1A8
:102C00007CE717C007E225EE44EE69E17CE711C0DE
:102C100006E221EE42EE6CE17CE70BC007E225EE16
:102C200046EE6DE17CE705C008E221E045EE6EE18D
:102C30007CE763DF80E008C0FB018581882319F011
:102C40001092AF0101C081E00F9108951F93CF93BF
:102C5000DF9387372CE7920721F088379C4749F0AC
:102C600027C0FB01C581CC2311F028D007C026D096
:102C700013C0FB01C581CC2371F023D00E94E40571
:102C800023D0D82F1ED0C82F19D04D2F6C2F0E94C3
:102C90000D07C0E00EC015D00E94EF0515D0182F0B
:102CA00010D0D82F0BD0412F6D2F0E940D0701C0DF
:102CB000C1E08C2FDF91CF911F9108958091040185
:102CC00008958091030108958091020108959093E1
:102CD000B1018093B0010895E091B001F091B1018C
:102CE000309729F00190F081E02D0995089580E05A
:102CF0000895E091B001F091B101309721F0028088
:102D0000F381E02D09950895FC01329697E080E06B
:102D1000915029F021912223D9F38F5FF9CF0895A3
:102D2000662349F0FC01329608962191621729F03A
:102D3000E817F907D1F780E0089581E008959C0134
:102D4000FC0132969FEF80E04191461789F09F3F4A
:102D500019F4411101C0982F8F5F8630A9F79F3F6A
:102D600039F0F901E90FF11D97FDFA956283089595
:102D700008959C012A5F3F4FFC014281461301C028
:102D80001282019682179307B9F70895D8CF089554
:102D9000F0CF0895029626E0FC0111922A95E9F7FA
:102DA00008950895FECF089583E08093B201FACF8D
:102DB0000895811102C081E001C082E08093B201D8
:102DC000F1CF0895F6CF089581E08093B201EACF64
:102DD0000895FACF08950895FECF0895FDCF089580
:102DE000FACF0895F8CF0895F6CF0895CF93FADF7C
:102DF0000E94F00EF5DFC0E08C2F0E94630E81115F
:102E000004C0CF5FC330C1F701C081E0CF91089506
:102E100085B7806885BF85B7806885BF08951F9294
:102E20000F920FB60F9211248F939F93AF93BF937E
:102E30008091B301811113C08091C6019091C701A7
:102E4000A091C801B091C9014196A11DB11D809307
:102E5000C6019093C701A093C801B093C901BF9167
:102E6000AF919F918F910F900FBE0F901F9018956B
:102E70008091CE01843031F10E94BC021092B301E6
:102E800020E488E190E00FB6F894A8958093600064
:102E90000FBE2093600083B7817F846083BF83B7B8
:102EA000816083BF7894889583B78E7F83BF0FB688
:102EB000F894A895809160008861809360001092DA
:102EC00060000FBE08950E947B050C94C002089517
:102ED00082E084BD93E095BD9AEF97BD80936E002C
:102EE00008952FB7F8948091C6019091C701A091E1
:102EF000C801B091C9012FBF08952FB7F894609110
:102F0000C6017091C7018091C8019091C9012FBF7E
:102F100008959C014FB7F8948091C6019091C70124
:102F2000A091C801B091C9014FBF821B930B0895B6
:102F300078941F920F920FB60F9211248F939F9344
:102F4000AF93BF938091C6019091C701A091C80132
:102F5000B091C9010196A11DB11D8093C601909346
:102F6000C701A093C801B093C901BF91AF919F91D0
:102F70008F910F900FBE0F901F90189587E797E7DE
:102F800090930108809300089AE088E10FB6F894C6
:102F9000A895809360000FBE90936000FFCF9AE0E9
:102FA00088E10FB6F894A895809360000FBE9093C7
:102FB0006000FFCF8091BC010895089508959B01A2
:102FC0009091CE019430E9F48F708093E9008FEFF7
:102FD0009091E800815095FD06C095ED9A95F1F726
:102FE00000008111F5CF8091E80085FF0AC0BA0189
:102FF000C90140E050E0F5D18091E8008E778093E0
:10300000E8000895CF93DF93EC0148E050E0BC0165
:1030100081E0D5DF88E0FE01A4EBB1E001900D92E4
:103020008A95E1F7DF91CF910895603229F4BC01D0
:1030300040E250E082E0C3CF08958091CD0181113C
:1030400007C097D3EED38091E20084608093E200C2
:1030500008951092CD010895BCCE08956091CA01E3
:1030600081E0611101C080E09FCE08959091CE0172
:1030700081E0943009F080E06091CA019ACE089511
:1030800042E061EC81E0EED242E261EC82E0EAD221
:1030900042E260EC83E0E6D29091CE0181E0943090
:1030A00009F080E06091CA018DCE08958091D00131
:1030B000833009F460C030F4813071F0823009F45B
:1030C00098C008958A3009F485C08B3009F46BC02C
:1030D000893009F0A5C01FC08091CF01813A09F065
:1030E0009FC08091E800877F8093E8008091D301A2
:1030F0009091D401892B21F468E084EB91E003C026
:1031000060E080E090E070E0EED18091E8008B77A5
:103110008093E80008958091CF01813209F080C04A
:103120008091D3019091D401892B09F079C08091CD
:10313000E800877F8093E8008091E80082FD05C069
:103140008091CE018111F8CF6BC02091F300809166
:10315000F20090E0922B029731F48091F1008130DF
:1031600011F0863021F48091F1008093BC018091B0
:10317000E8008B7752C08091CF01813A09F050C0AE
:103180008091D3019091D401892B09F049C080919D
:10319000E800877F8093E8008091E80080FFFCCF03
:1031A00080910D0135C08091CF018132C9F58091A8
:1031B000D3019091D401892B99F58091E800877F04
:1031C0008093E80084D28091D10180930D010C940A
:1031D0007B0508958091CF01813211F58091E8003F
:1031E000877F8093E80073D28091D2018093BD01E4
:1031F00008958091CF01813A99F48091E800877F0A
:103200008093E8008091E80080FFFCCF8091BD01B1
:103210008093F1008091E8008E778093E80057C298
:10322000089584B7877F84BF0FB6F894A8958091DE
:103230006000886180936000109260000FBE90E093
:1032400080E80FB6F89480936100909361000FBE00
:10325000BBCD08958ED2E5D2E2EEF0E080818460AD
:103260008083789455C5089585E091E030CD089528
:103270008091CE01853089F48091CE01853061F452
:10328000F7DD8091CC018823B9F3B0DD8823A1F369
:1032900092D00E947B05F0CF16CE0895A0E2B0E058
:1032A000E3E5F9E17FC58091CE01843009F583E043
:1032B0008093E9008091E80082FF1AC08091E800C5
:1032C00085FF09C040E050E060E270E0CE01019669
:1032D000C9D091E001C090E08091E8008B778093A5
:1032E000E800992329F060E2CE0101960E94F60FD2
:1032F000A096E2E073C59A014091D5015091D601A4
:1033000001C00895492F552743305105C9F060F495
:103310004130510581F04230510509F044C082E44A
:1033200090E046E852E043C041325105E1F04232BC
:10333000510549F138C082E190E048EC52E037C0D5
:1033400099278130910549F028F0029761F5E8E569
:10335000F2E005C0E2E8F2E002C0E6E7F2E08491C4
:1033600090E0AF0124C06115710541F06130710535
:10337000D1F489E090E041EB52E019C089E090E09F
:1033800048E952E014C06115710541F061307105E2
:1033900051F482E290E04AED52E009C084E490E00A
:1033A0004CEF52E004C080E090E040E050E0F901D2
:1033B00051834083089580E189BD82E189BD09B4CC
:1033C00000FEFDCF8091D8008F7D8093D800809142
:1033D000E00082608093E0008091E00081FDFCCFFE
:1033E0000895A0E0B0E0E6EFF9E1D6C4EC018B016E
:1033F0007A018CD1811132C0E114F10439F0F70166
:1034000080819181081B190BC80FD91FC12CD12CA9
:103410000115110511F18091E80085FD15C080911D
:10342000E8008E778093E800E114F10449F0F70199
:1034300080819181C80ED91ED182C08285E00EC0E4
:1034400065D1882329F30AC089918093F100015046
:103450001109FFEFCF1ADF0ADBCF80E0CDB7DEB76F
:10346000E8E0B6C4A0E0B0E0E7E3FAE195C4EC011F
:103470008B017A014BD1811132C0E114F10439F092
:10348000F70180819181081B190BC80FD91FC12C2E
:10349000D12C0115110511F18091E80085FD15C0B1
:1034A0008091E8008B778093E800E114F10449F003
:1034B000F70180819181C80ED91ED182C08285E03A
:1034C0000EC024D1882329F30AC08091F10089938A
:1034D00001501109FFEFCF1ADF0ADBCF80E0CDB733
:1034E000DEB7E8E075C42091D5013091D6012617EA
:1034F000370748F06115710539F42091E8002E77FF
:103500002093E80001C0B901FC0120E061157105BC
:1035100079F18091CE018823F1F18530F1F180912C
:10352000E80083FD3CC08091E80082FD2EC08091C0
:10353000E80080FFEBCF2091F3008091F20090E053
:10354000922B6115710551F08830910538F4219165
:103550002093F100615071090196F3CF21E00897A3
:1035600009F020E08091E8008E778093E800CECFCC
:103570002111CFCF0AC08091CE01882361F0853020
:1035800061F08091E80083FD0AC08091E80082FF2D
:10359000F2CF80E0089582E0089583E0089581E00D
:1035A00008952091D5013091D6012617370748F0AC
:1035B0006115710539F42091E8002E772093E80019
:1035C00001C0B901FC0120E06115710591F1809104
:1035D000CE01882309F440C0853009F43FC08091B2
:1035E000E80083FD3DC08091E80082FD2FC08091FE
:1035F000E80080FFE9CF2091F3008091F20090E095
:10360000922B6115710559F08830910540F4249191
:103610002093F1003196615071090196F2CF21E0BB
:10362000089709F020E08091E8008E778093E80009
:10363000CBCF2111CCCF0AC08091CE01882361F07D
:10364000853061F08091E80083FD0AC08091E80038
:1036500082FFF2CF80E0089582E0089583E008952C
:1036600081E00895982F973068F59093E9009817B6
:1036700039F07091EC002091ED005091F00003C002
:10368000242F762F50E021FD02C09F5FECCF3091B8
:10369000EB003E7F3093EB003091ED003D7F3093A7
:1036A000ED003091EB0031603093EB007093EC0053
:1036B0002093ED005093F0002091EE0027FDE5CF20
:1036C00080E008958F708093E90081E008958091F3
:1036D000CF0187FF11C08091E80082FD05C0809175
:1036E000CE018111F8CF11C08091E8008B770BC01B
:1036F0008091CE01882349F08091E80080FFF8CFC7
:103700008091E8008E778093E80008952091E4008E
:103710003091E50095E64091EC00842F817040FFE8
:1037200023C08091E80080FD1DC08091CE018823D8
:1037300099F0853099F08091EB0085FD11C04091A2
:10374000E4005091E5002417350729F3915011F05A
:103750009A01E1CF84E0089582E0089583E008951E
:1037600081E0089580E008954091E80042FFDDCFB8
:10377000089568D06FD0E0EEF0E0808181608083B2
:10378000E8EDF0E080818F77808319BCA7EDB0E091
:103790008C918E7F8C9380818F7E80831092CD015F
:1037A00008950F931F93CF93DF934CD053D0C8ED60
:1037B000D0E088818F77888388818068888388813A
:1037C0008F7D888319BC1092CE011092CA0110928D
:1037D000CC011092CB0100EE10E0F80180818B7FCC
:1037E000808388818160888342E060E080E03ADF06
:1037F000E1EEF0E080818E7F8083E2EEF0E0808178
:1038000081608083808188608083F80180818E7FE1
:103810008083888180618883DF91CF911F910F9190
:103820000895E8EDF0E080818F7E8083E7EDF0E0A1
:1038300080818160808384E082BF81E08093CD01BC
:10384000B0CF0895E8EDF0E080818E7F8083109204
:10385000E20008951092DA001092E10008951F929C
:103860000F920FB60F9211242F933F934F935F93B4
:103870006F937F938F939F93AF93BF93EF93FF9338
:103880008091E10082FF0AC08091E20082FF06C0C1
:103890008091E1008B7F8093E10039D28091DA0042
:1038A00080FF1DC08091D80080FF19C08091DA0090
:1038B0008E7F8093DA008091D90080FF0CC080E178
:1038C00089BD82E189BD09B400FEFDCF81E080930E
:1038D000CE01B3DB04C019BC1092CE01BADB8091DB
:1038E000E10080FF18C08091E20080FF14C0809149
:1038F000E2008E7F8093E2008091E20080618093FD
:10390000E2008091D80080628093D80019BC85E0E5
:103910008093CE01A3DB8091E10084FF2FC08091D2
:10392000E20084FF2BC080E189BD82E189BD09B43A
:1039300000FEFDCF8091D8008F7D8093D8008091CC
:10394000E1008F7E8093E1008091E2008F7E809382
:10395000E2008091E20081608093E2008091CA01E0
:10396000882311F084E007C08091E30087FD02C046
:1039700081E001C083E08093CE0178DB8091E1009B
:1039800083FF27C08091E20083FF23C08091E10084
:10399000877F8093E10082E08093CE011092CA017C
:1039A0008091E1008E7F8093E1008091E2008E7F24
:1039B0008093E2008091E20080618093E20042E027
:1039C00060E080E04FDE8091F00088608093F0003E
:1039D00043DBFF91EF91BF91AF919F918F917F91C9
:1039E0006F915F914F913F912F910F900FBE0F906C
:1039F0001F9018951F920F920FB60F9211242F93BC
:103A00003F934F935F936F937F938F939F93AF9366
:103A1000BF93CF93DF93EF93FF93C091E900CF70F3
:103A20008091EC00D82FD17080FDD0E81092E90091
:103A30008091F000877F8093F00078941ED01092E0
:103A4000E9008091F00088608093F000CD2BCF706A
:103A5000C093E900FF91EF91DF91CF91BF91AF91BA
:103A60009F918F917F916F915F914F913F912F9196
:103A70000F900FBE0F901F901895AAE2B0E0E2E4FD
:103A8000FDE18FC1EFECF1E08091F100819321E045
:103A9000E73DF207C9F70ADB8091E80083FF26C102
:103AA0008091CF019091D001492F50E04A305105CB
:103AB00008F01CC1FA01E056FF4F57C1803821F0D1
:103AC000823809F013C108C08091CB019091CC01DC
:103AD000992389F082600FC08091D3018F70873065
:103AE00008F004C18093E9008091EB0085FB8827F2
:103AF00080F91092E9009091E800977F9093E80098
:103B00008093F1001092F100CCC0282F2D7F09F096
:103B1000EDC0882319F0823061F0E8C08091D101B6
:103B2000813009F0E3C0933009F080E08093CC014C
:103B30002EC08091D10181112AC08091D3018F7054
:103B40002FEF280F263008F0D1C08093E900209194
:103B5000EB0020FF1CC0933021F48091EB008062C9
:103B600014C09091EB0090619093EB0021E030E065
:103B7000A90102C0440F551F8A95E2F74093EA005D
:103B80001092EA008091EB0088608093EB00109225
:103B9000E9008091E800877F8093E80098DDA6C067
:103BA0008111A4C01091D1011F778091E30080782A
:103BB000812B8093E3008091E800877F8093E80069
:103BC00086DD8091E80080FFFCCF8091E300806873
:103BD0008093E300111102C082E001C083E0809372
:103BE000CE0184C08058823008F080C08091D1011D
:103BF0009091D2018C3D53E0950771F583E08A8363
:103C00008AE289834FB7F894DE01139620E03EE004
:103C100051E2E32FF0E050935700E49120FF03C0FE
:103C2000E295EF703F5FEF708E2F90E0EA3010F07A
:103C3000C79601C0C0968D939D932F5F243149F79D
:103C40004FBF8091E800877F8093E8006AE270E0D0
:103C5000CE01019648DC14C06091D3017091D4016B
:103C6000AE014F5F5F4F47DBBC01892B09F43EC0BB
:103C70009091E800977F9093E80089819A8191DC88
:103C80008091E8008B778093E80030C0803871F530
:103C90008091E800877F8093E8008091CA0180933B
:103CA000F1008091E8008E7777CF81111FC080915D
:103CB000D1019091D20199270297C4F48091E80034
:103CC000877F8093E8008091D1018093CA01FFDC57
:103CD0008091CA01811106C08091E30087FD02C076
:103CE00081E001C084E08093CE01CAD98091E800D0
:103CF00083FF0AC08091E800877F8093E80080916D
:103D0000EB0080628093EB00AA96E3E066C0089522
:103D1000CF938091CE01882399F0C091E900CF70B4
:103D20009091EC00892F817090FD80E8C82B109253
:103D3000E9008091E80083FDA0DECF70C093E90028
:103D4000CF91089597FB072E16F4009406D077FDC7
:103D500008D04FD007FC05D03EF4909581959F4F39
:103D60000895709561957F4F0895EE0FFF1F0590A0
:103D7000F491E02D099469279627692778278727EA
:103D8000782708952F923F924F925F926F927F9281
:103D90008F929F92AF92BF92CF92DF92EF92FF925B
:103DA0000F931F93CF93DF93CDB7DEB7CA1BDB0B07
:103DB0000FB6F894DEBF0FBECDBF09942A883988AC
:103DC00048885F846E847D848C849B84AA84B984B3
:103DD000C884DF80EE80FD800C811B81AA81B981BF
:103DE000CE0FD11D0FB6F894DEBF0FBECDBFED01D3
:103DF0000895AA1BBB1B51E107C0AA1FBB1FA61732
:103E0000B70710F0A61BB70B881F991F5A95A9F783
:103E100080959095BC01CD010895FB01DC0104C0A3
:103E20008D910190801921F441505040C8F7881BB2
:103E3000990B0895FB01DC0102C001900D924150E5
:103E40005040D8F70895F999FECF92BD81BDF89AF8
:103E5000992780B50895A8E1B0E042E050E02FC076
:103E6000DC01A40FB51F4150504040F0CB01840F3E
:103E7000951F2E9105D041505040D8F70895262F18
:103E8000F999FECF92BD81BDF89A019700B4021650
:103E900039F01FBA20BD0FB6F894FA9AF99A0FBEFE
:103EA00008950396272FECDFEADF252FE9DF242F83
:103EB000E7CF0196272FE4DFE2CFDC01CB01FC0145
:103EC000F999FECF06C0F2BDE1BDF89A319600B473
:0E3ED0000D9241505040B8F70895F894FFCF7E
:103EDE008901030201DA170218DD17DE1701F790C8
:103EEE00946697C634353632333100FF0100010037
:0A3EFE0000FFFF0000010001FF00BB
:00000001FF
