:1000000097C10000B2C10000B0C10000AEC1000045
:10001000ACC10000AAC10000A8C10000A6C1000038
:10002000A4C10000A2C100000C942C1B0C94F71B6F
:100030000C940C169AC1000098C1000096C10000F3
:1000400094C1000092C1000090C100008EC1000068
:100050008CC100000C94951688C1000086C1000078
:1000600084C1000082C1000080C100007EC1000088
:100070007CC100007AC1000078C1000076C1000098
:1000800074C1000072C1000070C100006EC10000A8
:100090006CC100006AC1000068C1000066C10000B8
:1000A00064C1000062C1000060C10000C303C3035B
:1000B000EA03EA0305050505050505054004A00456
:1000C000AD04AD04D00FD30F071018101F10291066
:1000D0002B102B102B106A106A102F1031103510B6
:1000E00041104D104F1052105E10C9103A11D1102E
:1000F0009B109F10D510A210D810E310AD10301136
:10010000B110E710B510EB101511B910EF101F1159
:10011000BF10F510FF10A610DC10A910DF10C410DE
:10012000FA100B112B112D119710CD104311FB1448
:100130000115EF14F51407150D1513155B1C821C22
:10014000731D821C731DCD1CEF1C731D431D521D9E
:1001500027001E002100240028001F002200250087
:1001600021522000230026000100010001000100AF
:100170000100010001000100010001000100007CFC
:100180000100010001000100010001000100010067
:10019000010001000100007C0000000000000000E0
:1001A0002A2B2800000000000000000000000000D2
:1001B00000000029000000002C1E342021222434DD
:1001C0002627252E362D3738271E1F2021222324AF
:1001D00025263333362E37381F0405060708090A4B
:1001E0000B0C0D0E0F101112131415161718191AE7
:1001F0001B1C1D2F3130232D350405060708090A65
:100200000B0C0D0E0F101112131415161718191AC6
:100210001B1C1D2F3130354C000000000000000079
:1002200000000000000000000000000000000000CE
:100230000000000000000000000000007E0F00D45D
:10024000FFFFFFC7000000781C0341007400680036
:100250005F004D006100630072006F005F003300BB
:100260007800340000000A03410074006800500068
:1002700000000403090409024200020100A0FA0977
:1002800004000001030101000921110100012244C1
:1002900000070581030800010904010002030000B2
:1002A000000921110100012222000705820320001C
:1002B00001070503032000011201000200000008ED
:1002C000504120040101010200010660FF0961A103
:1002D000010962150026FF00952075088102096357
:1002E000150026FF00952075089102C0050109063A
:1002F000A101050719E029E71500250195087501F9
:1003000081029501750881010507190029FF150073
:1003100026FF0095067508810005081901290515B5
:10032000002501950575019102950175039101C0A4
:1003300011241FBECFEFDAE0DEBFCDBF11E0A0E099
:10034000B1E0E8EDFCE302C005900D92AA32B107DE
:10035000D9F721E0AAE2B1E001C01D92A43DB207A5
:10036000E1F70E94320F0C946A1E4ACE8330C8F423
:100370006330B8F44430A8F490E0FC01EE0FFF1FA6
:10038000E80FF91FE60FF11DEE0FFF1FEE0FFF1F25
:10039000E40FF11DEE0FFF1FE05BFE4F859194917E
:1003A000089581E090E0089581E0089581E0089546
:1003B000FDCF0895FDCF0895F9CF08950895FECF9C
:1003C0000895A6E0B0E0E7EEF1E00C94CE1D49837D
:1003D0005A839E833091310189819A81311112C0F3
:1003E0003E81332349F0222339F077D4182F682F28
:1003F00089819A8150D402C05FD4182F69817A8193
:10040000812F03C06AD469817A810E94000D2696EB
:10041000E3E00C94EA1DFC01262F408151816281AA
:10042000738184819581CDCF0895CF93DF93EC01C3
:1004300061E0F1DFBE01BEDFDF91CF910895CF9380
:10044000DF93EC0160E0E7DFBE01B9DFDF91CF9120
:100450000895089530D3FDDF2FEF84E39CE0215011
:1004600080409040E1F700C000000895F3DF0C9455
:10047000BB160895EFDF0C94CC1608950F931F93CD
:10048000CF93DF938C0161E0C6DFEC01B8010E94DD
:10049000A00F882309F44AC0B801CE018DDF88235C
:1004A00009F444C0B801CE010E94E314882309F482
:1004B0003DC0B801CE010E9474108823B9F1B80183
:1004C000CE010E944D14882389F1B801CE010E940B
:1004D0002515882359F1F8018581882321F1C3303E
:1004E0008CE7D807C9F040F4C115FCE7DF0791F0AD
:1004F000C130DC4799F017C0CB35ECE7DE0791F04F
:10050000CC35FCE7DF0761F0CA35DC4761F40E94B7
:100510008D0A09C0ABDF0AC00E94930AABDF06C098
:10052000F3D701C0FDD7C8013FDF01C080E0DF91F4
:10053000CF911F910F9108950E94ED151EC008954F
:100540001FD00C94F3150895089581E0089508953F
:10055000CF93DF93D82FF9DFC82F882311F08D2F89
:10056000F6DF8C2FDF91CF9108950895CF93C82F98
:10057000EBDF8C2FEDDFCF91089580E0F7CF08956A
:100580000E946B15F3CF0895CF930E946B15C82F6F
:1005900080912C01C81771F0C0932C010E947A162B
:1005A00060932D0170932E0180932F019093300161
:1005B0008C2FDCDFCF910895ADE0B0E0E2EEF2E009
:1005C0000C94CF1D488759876A877B878C879D87C6
:1005D0009111E0D6CE01019627E0FC0111922A95F7
:1005E000E9F726E0FE013896DC0101900D922A958C
:1005F000E1F72D81211109C029813A814B815C816C
:100600006D817E818F8116D603C00FDF8111F4CFFB
:100610002D96E2E00C94EB1DFC012481213019F4AD
:100620008081918186C30895CF93882351F1C82F8B
:100630008CEF8C0F813AC8F46C2F8091000190915F
:1006400001010E948F15882341F06C2F80910001D9
:10065000909101010E94C715C4D66C2F80910001B2
:10066000909101010E94C5150BC080E28C0F88306B
:1006700040F4C77081E001C0880FCA95EAF76DD6D3
:10068000B0D6CF9108958823C1F0682F8CEF860FE4
:10069000813A38F480910001909101010E94C715C0
:1006A0000BC080E2860F883040F4677081E001C0A3
:1006B000880F6A95EAF757D694C608951F93CF938B
:1006C000DF93182FEB01B0DF209741F08FE99FE017
:1006D0000197F1F700C000002197F6CF812FD3DFFB
:1006E000DF91CF911F910895893319F060E070E098
:1006F00002C060E570E0E2CF0895882311F02DD6A6
:1007000070C60895882311F02ED66BC60895A0E018
:10071000B0E0EDE8F3E00C94C91D7C01D62FC72FA3
:10072000FC011581068102950F700DD68823D9F042
:100730001123C9F08C2F807F803451F080E28D0F1F
:10074000883088F0011104C08C2F807E803259F0EF
:100750008091BC0182FF07C082E0AED6F4D591E063
:10076000D82ED92601C0D12CCC2EC2948FE0C8221D
:100770008C2D90E08C30910508F047C1FC01EA5ABD
:10078000FF4F0C94B21D8C2F807FCF70882311F007
:10079000C295C07F112381F0CC2309F424C180E2EB
:1007A0008D0F883010F0D11103C08C2FD6D502C028
:1007B0008C2FE3D516D617C18D2F65DFCC2309F416
:1007C00024C180E28D0F883018F1DD2309F18C2FD0
:1007D000DAD520C08C2F807FCF70803211F0C29587
:1007E000C07FDD2319F0D13051F133C08091BC01BD
:1007F00082FD12C0112339F0CC2319F08C2FADD516
:10080000F0D580E0F1C080E03EDFCC2309F4FDC0EC
:100810008C2FA9D5E6D5F9C0112341F00023E9F0CA
:10082000013009F0F2C08C2FBDD5EFC00111EDC031
:100830008C2F68DF8C2FC1D58C2F17D6E6C01123E3
:1008400021F0063008F0E1C008C0053008F0DDC036
:1008500014C0112329F00111C6C08C2F4EDFD5C062
:10086000002359F0D93309F0CEC0FFEF27EE83E023
:10087000F15020408040E1F7C4C08C2F43DFC5C059
:100880008C2F837059F51111C4C04D2F4295469598
:100890004770440F440F2D2F2F70042E01C0220FDC
:1008A0000A94EAF7D4FF08C08FE090E001C0880FF7
:1008B0004A95EAF7809501C080E0C695C695C37059
:1008C000822BC23039F040F4C13011F042D1A1C0C6
:1008D0003BD19FC043D19DC035D19BC0112319F09E
:1008E0008C2F817001C08695882309F492C04D2F0A
:1008F000429546954770440F440F2D2F2F70042EBC
:1009000001C0220F0A94EAF7D4FF08C08FE090E0FC
:1009100001C0880F4A95EAF7809501C080E0C6952E
:10092000C695C370822BC23039F040F4C13011F04B
:1009300052D16FC04BD16DC053D16BC016D169C0BD
:10094000CF70112329F08C2F1FD18D2FD6DE61C0DF
:100950008D2FD8DE8C2F23D15CC0D23F11F128F42B
:10096000D03F41F0D13FB9F03AC0D33F01F1D43F7D
:1009700071F035C0112339F0053008F046C08C2FD6
:100980008F7119D142C0063008F03FC0F8CF809176
:10099000BC0182FD14C0112331F08C2F8F71F4D073
:1009A00034C01123D1F38C2F8F71F9D02EC01123B5
:1009B00021F08C2F8F71E0D028C0DBD026C011230E
:1009C00039F0CF718C2FE0D063E08C2F5BD51DC048
:1009D00081E072D50230C8F082E06ED516C01123D6
:1009E00029F00023D1F28D2F1FDE0FC00023D9F292
:1009F000D93349F49FEFE7EEF3E09150E040F04047
:100A0000E1F700C000008D2F3EDE88EF8C0D8430B2
:100A100018F40E946B15AADDDD2059F090D480FDFA
:100A200008C0F701158285D4AFD0C7011BD081D48F
:100A3000B6D0CDB7DEB7E8E00C94E51D0F931F9359
:100A4000CF93DF93EC01688179818D817BD18C011B
:100A5000CCD06ED0B801CE015ADEDF91CF911F917C
:100A60000F910895CF93DF93FC0124812223A9F0F5
:100A7000EC0104DD81110DC066D4882371F08D81F5
:100A8000882359F08091BC0182FF07C082E014D511
:100A900004C0CE01D3DFCE01D2DCDF91CF91089527
:100AA00079D49FC4089580910001909101010E9422
:100AB000C915F6CF08955ED4F6CF089592959F702C
:100AC000963079F010F4925001C09A50923068F448
:100AD000803F69F018F4883E40F409C0843F29F44F
:100AE00006C0883E20F0813F11F080E0089581E04B
:100AF0000895FC012481222329F08081918119D15C
:100B0000DDCF089580E00895A6E0B0E0EAE8F5E0E2
:100B10000C94CF1D2696E2E00C94EB1DA7E0B0E00C
:100B2000E4E9F5E00C94CF1D2796E2E00C94EB1D70
:100B300008950895FECF0895FDCF0895FDDF8093B9
:100B400039010895FBCF089590913901892BF6CF93
:100B50000895909139018923F1CF08959091390139
:100B60008927ECCF0895E5CF0895FDDF8093380104
:100B7000089580E0FACF089591E001C0990F8A9519
:100B8000EAF7892FF2CF089521E030E001C0220F6B
:100B90008A95EAF780913801822BE7CF089521E00A
:100BA00030E001C0220F8A95EAF720958091380144
:100BB0008223DBCF089521E030E001C0220F8A9527
:100BC000EAF7809138018227D0CF089590913801BB
:100BD000892BCBCF0895909138018923C6CF0895F2
:100BE000909138018927C1CF08950895962F977065
:100BF000A1E001C0AA0F9A95EAF793E07695679570
:100C00009A95E1F7FB01EE0FFF1F6E0F7F1FFA01B0
:100C1000E60FF71F40E050E0682F70E090819B01E5
:100C2000042E02C0369527950A94E2F7217021958B
:100C300029272A23292721934F5F5F4F43305105EE
:100C400069F708959B01782F777043E09695879513
:100C50004A95E1F7FC01EE0FFF1F8E0F9F1FF90170
:100C6000E80FF91F40E050E080E0219130E0072ECE
:100C700002C0369527950A94E2F721703327042E97
:100C800001C0220F0A94EAF7822B4F5F5F4F433077
:100C9000510559F70895282F933068F4843058F49B
:100CA000862F622F70E024E0929F600D711D112449
:100CB00042E351E09BCF0895933068F4843058F4B8
:100CC000292F90E062E371E034E0239F800D911DB5
:100CD0001124B8CF089580E00895CF92DF92FF925B
:100CE0000F931F93CF93DF936C0100913801809194
:100CF0003901082BC3E0D0E010E0C8010C2E02C07F
:100D0000959587950A94E2F780FD04C02197A8F78E
:100D1000F12C06C0FC2EB6018C2F7DD60197B1F3C5
:100D20008F2DDF91CF911F910F91FF90DF90CF908A
:100D30000895CF93DF93EC01D0DFBE016CD6DF9135
:100D4000CF9108951F93CF93DF93EB0190913101E1
:100D5000992319F0CB01EDDF0FC0882339F0CB01C7
:100D6000BCDF182F682FCE0196DF03C0CB01A4DFB4
:100D7000182FBE01812F4FD6DF91CF911F9108957B
:100D8000E1E0F0E0DF0102C0AA0FBB1F6A95E2F7C5
:100D9000BD01DF0102C0AA0FBB1F4A95E2F7AD01FA
:100DA000462B01C0EE0F2A95EAF7942F982349139A
:100DB00002C08E2B0895E0958E230895242F462F90
:100DC000682F80913801DCDFD0CE08951F93CF9338
:100DD000DF93C0913A0117E080913B01C81799F069
:100DE000D0E01C9FF0011D9FF00D1124E45CFE4F2C
:100DF00020813181428153816481758186818EDEBB
:100E00002196C770E9CFDF91CF911F91089520916E
:100E10007401309175014091760150917701609194
:100E200078017091790180917A0178CE0895CF93FD
:100E3000DF9380917A0182958F7009F04CC0809188
:100E40007901882309F447C080913A0140913B0120
:100E50005091750160917401C0917601D091770134
:100E600077E08417C1F190E0789FF001799FF00D51
:100E70001124DF01A45CBE4F14962C9114972223F9
:100E800039F111962C911197251322C02C9126131C
:100E90001FC015962C91159721111AC012962D91ED
:100EA0003C9113972C1B3D0B283C310588F4809115
:100EB0007A018F70806180937A01EE5BFE4F8081B2
:100EC0008F708061808384E791E0CCDD7FDF03C099
:100ED00001968770C6CFDF91CF91089520913A0196
:100EE00090913B0157E02917A9F030E0529FF001A3
:100EF000539FF00D1124E45CFE4F7181761306C000
:100F00007081781303C07581741306C02F5F3F4F43
:100F10002770E9CF80E0089581E00895A4E1B0E072
:100F2000E4E9F7E00C94C51D8C0186E0F801DE01D0
:100F30001F9601900D928A95E1F7F8018481E58072
:100F400094E7A92E91E0B92E90917801911115C0E6
:100F5000882309F468C1EE20B9F1C801CADDF82E72
:100F6000882391F187E0F801D50101900D928A95CF
:100F7000E1F7C50151DB5BDF8FC0F801C080D18094
:100F800082809380F09079012091760130917701F1
:100F9000A401421B530BFF2009F4F4C0483C510547
:100FA00008F0A2C0882309F440C180917A01282F5B
:100FB000207F90917501222351F09D1509F45AC0AC
:100FC000C80197DD81116AC0C8014CDD2CC19D119B
:100FD00013C0909174019C110FC0E1100DC08F706F
:100FE000806180937A0113DF84E791E03BDD80919B
:100FF0007A01F801868315C1E11036C040E06D2DFD
:101000008C2D6CDF40E06D2D8C2D68DFE82E81117A
:1010100008C1CF86D88A8F8598898BDE292F2295A3
:101020002F70243020F49F70223028F009C02A50FD
:10103000223080F014C0992349F0811107C012C0FA
:10104000992321F0F8019681907F61F0805E8830CD
:1010500030F408C0803F30F0815F833018F0C80161
:1010600001DDEF2CFE2CE1C080917A01816080933C
:101070007A01D7C0909174019C11A2CFE110A0CF4A
:10108000F8018683C801EEDC87E0F801A4E7B1E04F
:1010900001900D928A95E1F7BADEC7C0EE2009F4FF
:1010A00093CF20917A01822F82958F7090E00297E2
:1010B00084F08091740190917501998788879B864F
:1010C0008A86809178018C871D862E87CE010896AE
:1010D000C9DC87E0F801A4E7B1E001900D928A95A0
:1010E000E1F7A5DE94DE9FC090917A01292F207F41
:1010F00089F4682D9A8A898AA6017A899E2D04DD51
:1011000084E791E0AFDC87E0F50111928A95E9F779
:101110007EDE87C0882309F488C0809175018D1117
:1011200010C0809174018C110CC0E1100AC0F8014C
:101130009683C80197DC87E0F50111928A95E9F75B
:1011400074C0C801D6DC882309F43ECFEE2009F430
:101150003BCF20917A01822F82958F7090E0029789
:101160000CF4B7CF80917401909175019A838983B3
:101170009C828B82809178018D831E822F83CE0189
:101180000196A6CF483C510508F03EC0882309F4DB
:101190004AC0FE2CEE2009F417CF809175018D1105
:1011A00027C0809174018C1123C090917A0190FD29
:1011B00016C0892F82958F70282F30E021153105B8
:1011C00071F0F80196832F30310509F45BCF8F5F02
:1011D000982F9295907F86818F70892B52CF87E0D0
:1011E000F801A4E7B1E001900D928A95E1F71DC0E6
:1011F000C8017FDC81116DCF80917A01816080937D
:101200007A01C8012FDC11C0682D9A8A898AA6014B
:101210007A899E2D79DC87E0F50111928A95E9F7AC
:101220003BCFF12C02C0FF24F3948F2D6496ECE0A9
:101230000C94E11DAEE0B0E0E0E2F9E00C94CE1DCC
:10124000288739874A875B876C877D878E87CE01A1
:10125000089664DE882359F06C85662399F1288509
:1012600039854A855B857D858E8558DC2BC087E076
:10127000FE013896DE01119601900D928A95E1F7F4
:101280006C856623F9F020913B0130E0C90101969D
:101290008770992740913A0150E084179507C9F16A
:1012A0006D8397E0929FD001939FB00D1124A45CB1
:1012B000BE4FFE01319601900D929A95E1F7809311
:1012C0003B0184DD17E080913A0190913B01891741
:1012D00061F1189FC0011124845C9E4F1FDE88239A
:1012E00021F1E0913A011E9FF0011124E45CFE4FD0
:1012F00020813181428153816481758186810EDC38
:1013000080913A0190E001968770992780933A0185
:10131000DACFD1DB10923B0110923A01E4E7F1E021
:1013200087E0DF011D928A95E9F72E96E3E00C94A1
:10133000EA1D809183018695869586950895809112
:1013400083018770089590918301977081E009F47B
:1013500080E0089580918F01089590918F01892BED
:1013600080938F010895809590918F0189238093B8
:101370008F01089510928F01089590918E01892B0D
:1013800080938E010895809590918E01892380939A
:101390008E01089510928E0108950895FECF08954C
:1013A000FDCF089590918501292F2823821721F0E0
:1013B000982B90938501F4CF089590918501292F62
:1013C000282329F08095892380938501E9CF08950A
:1013D00080918501882321F01092850180E0E0CF83
:1013E0000895CF93DF93E0910001F0910101809186
:1013F0008F018083E0910001F09101019081809143
:101400008E01892B808380918501882379F0E0917A
:101410000001F09101019081892B8083809100016E
:10142000909101010E9483158111D2DFC0910001CA
:10143000D091010148E050E06BE771E0CE010E94DD
:101440000A1E892B59F088E0FE01ABE7B1E001905C
:101450000D928A95E1F7CE010E947815DF91CF9128
:1014600008959BCF0895FDCF089590918401292F71
:10147000282329F08095892380938401F4CF08954F
:101480008CCF08959091BC0192FF0FC098E0899F86
:1014900090011124262B2093830176DB8091830118
:1014A000869586958695ECCF08956ECB089510921B
:1014B000830180E0E5CF0895909183018095892391
:1014C00080938301282F277059F4981749F0909141
:1014D000BC0192FF05C086958695869560DBE7CFB7
:1014E00008959091BC0192FB222720F9281759F00A
:1014F00080FB92F99093BC018091BB019091BC015B
:1015000033D082E0D9CF08958091BC0182FB882737
:1015100080F991E08927E5CF089581E0E2CF089531
:1015200080E0DFCF08956FEF7FEF80E090E00C94D4
:10153000561E089580E090E00E94281E863E9E4F31
:1015400011F49DC4089580E0089582E090E00C9429
:10155000201E089583E090E00C94201E089584E0FE
:1015600090E00C94281E0895BC0184E090E00C9457
:10157000561E0895AB01BC018FE090E00C944E1E06
:101580000895AB01BC0183E190E00C944E1E0895D8
:1015900060E070E0CB01F5CF089560E070E0CB0132
:1015A000E9DFF6CF0895A8E0B0E0E9EDFAE00C94A9
:1015B000CF1D66EE7EEF80E090E00E94561E60E058
:1015C00082E090E00E943C1E60E083E090E00E9498
:1015D0003C1E1092390160E074E184E090E00E94CA
:1015E000561E60E086E090E00E943C1E6FEF87E0B0
:1015F00090E00E943C1E40E050E0BA0188E090E09C
:101600000E944E1E60E084E290E00E943C1E60E07A
:1016100087E190E00E943C1E60E08CE090E00E9438
:101620003C1E60E08DE090E00E943C1E19821A8210
:101630001B821C821D821E821F82188648E050E099
:1016400068E170E0CE0101960E942D1E40E050E05E
:10165000BA0180E290E00E944E1E80E029D45CD462
:101660009CDF2896E2E00C94EB1D9DCF0895682F37
:101670008EE090E00C943C1E0895A6E0B0E0E3E418
:10168000FBE00C94CD1D0E946E168C0180919001A0
:10169000909191010817190781F019821A820E940E
:1016A0006E16682F49815A81792F80E090E00E9460
:1016B000DC0210939101009390012696E4E00C94D3
:1016C000E91D0E947A1660939D0170939E0180939C
:1016D0009F019093A0016093990170939A01809368
:1016E0009B0190939C0108950E947A1660939D013E
:1016F00070939E0180939F019093A0016093950148
:10170000709396018093970190939801089581E0DA
:10171000089581E00895FDCF08950895FECF0895BE
:10172000FCCF0895FDCF0895F8CF0895FDCF08951B
:10173000F4CF089589EF9DE09DD3FADFF7CF0895A8
:10174000EDDFEBCF08956ED20C94B50208950E94A0
:101750006516EDD390D6F5D2F6DFE4CF0895A6E076
:10176000B0E0E5EBFBE00C94C61DD1DF811102C0B7
:1017700084DF4DC0F9D282E9E82E81E0F82E6701BE
:1017800000E0F60111916F01802F61D281270F5F78
:10179000033019F08823A9F302C0882349F380910C
:1017A000A10181FD5AD2B7DFA82E10E099249394AD
:1017B000812F4DD2B82EF701C080C82609F100E074
:1017C000DD24D3948C2D8D21A9F0AA2099F00983D2
:1017D0001A830E946E169C838B839D8291E08B2DD1
:1017E0008D2109F490E049815A816B817C818D8142
:1017F0000E94DC020F5FDD0C043021F7F701B0829C
:101800001F5FFFEFEF1AFF0A133091F65ADF50D631
:1018100081116ADF0E94C4022696EBE00C94E21D5F
:101820001F93CF93DF93FAD0EC01C11582E5D8075F
:10183000B8F5C11590E5D90708F0B7C0C83ED10585
:10184000C0F4C03ED10508F0D6C0C53AD10550F469
:10185000C430D10508F0CFC0219709F0C9C081E09C
:1018600090E0CAC0CD3CD10508F4C2C0CE0190655D
:10187000C3C0C11580E4D80708F058C0C11590E274
:10188000D90708F0AAC0C11581E0D80708F4B0C094
:101890008D2F60D1182FCE019927C0D01F71A6C0FF
:1018A000C03892E5D90720F5C03682E5D80708F0A0
:1018B00060C0C03492E5D90708F049C0C03282E563
:1018C000D807E8F54C2F4695469590E2499FA00130
:1018D0001124C37021E030E0C90102C0880F991FB4
:1018E000CA95E2F7EA01C82BD92BCE019D6884C0C6
:1018F000C03C92E5D90768F48C2F8F71C03AD2456D
:1019000008F04BC090E0D82FCC27CE01846F906AAE
:1019100073C0C03E82E5D80708F06AC0CF71DD27EA
:10192000DC2FCC27CE01806F906A66C0CE0199274C
:1019300075D0CC27DF70D06A8C2B9D2B5DC0CF710A
:10194000D0E0DC2FCC27CE01816F906A55C08C2F60
:101950008F718695869590E2899F90011124C370BE
:1019600081E090E002C0880F991FCA95E2F79C6859
:1019700011C08C2F8F718695869590E2899F90017A
:101980001124C37081E090E002C0880F991FCA95AE
:10199000E2F79A68822B932B2FC0DCD08F7190E0F6
:1019A000D82FCC27CE01906227C08C2F8F71D2D038
:1019B00095E0D695C7959A95E1F7CF70D0E0DC2FEA
:1019C000CC27282F30E084FF05C084E0220F331F8E
:1019D0008A95E1F7D069CE01DDCF8D2F8F71BAD016
:1019E000182FCE0199271AD01F719062912B04C035
:1019F00080E090E001C0CE01DF91CF911F9108956A
:101A0000733030F4643020F4462F672F60C6089599
:101A100080E090E00895F4DF03CF089582389105C7
:101A200069F1B0F48133910509F475C048F4893245
:101A3000910509F467C08A32910509F471C00895CF
:101A40008533910509F459C089339105B9F008959A
:101A5000833E910589F138F4803E9105D1F0823EB4
:101A6000910529F10895863E9105C9F1873E9105BA
:101A7000D9F1843E910509F06CC027C02091BB01CB
:101A800020FD57C021FD55C02091BC0123FD5BC046
:101A900008958091BB0180FD48C08091BC0180FF0A
:101AA00048C08091BB0184FD46C083EE51C0809147
:101AB000BB0182FF3CC0F5CF8091BB0182FD37C0E6
:101AC0008091BC0180FD35C0ECCF8091BC0181FFCD
:101AD00036C08091BB0184FD2EC087EE39C0809155
:101AE000BB0183FF2AC0F5CF8091BB0183FD25C0D8
:101AF0008091BC0181FD23C0ECCF8091BB0185FDAD
:101B000022C01FC08091BB0185FD1BC08091BC011C
:101B100083FF19C00AC08091BB0186FD16C017C0A3
:101B20008091BB0186FD13C010C089E311C082EE15
:101B30000FC080EE0DC080E00BC086EE09C084EEC1
:101B400007C085E305C089E203C08AE201C081E3E2
:101B500090E008959091BB0192FF10C041E0282FC2
:101B60002471243009F040E031E0282F287128301A
:101B700009F030E0431711F02CE0822793FF10C0EA
:101B800041E0282F2471243109F040E031E0282F72
:101B90002871283109F030E0431711F02CE082273A
:101BA0003091BC0130FF10C051E0282F217121304D
:101BB00009F050E041E0282F2871283009F040E07A
:101BC000541711F029E0822731FF10C041E0282F7F
:101BD0002171213109F040E031E0282F28712831AE
:101BE00009F030E0431711F029E0822794FD877E49
:101BF000089580E0089597CC0895B6D02FEF86E73A
:101C000091E0215080409040E1F700C00000ACD04E
:101C100080E01DD080FF03C0EEDF0C94BB1608955A
:101C2000ECCF089587DC811101C01FDD8EDC80932D
:101C3000A10195DC9093BC018093BB01F1DF8ADCAC
:101C40000E94A205809138010C94B3050895E82FF5
:101C5000F0E0E054FE4F8081089508950895FECF8E
:101C60000895FDCF0895FACF0895FDCF0895CF933D
:101C7000DF934EE051E0A1E0B0E020E030E0FA0177
:101C8000E20FF31F80818F3FA1F0E82FE295EF7004
:101C9000F0E061A18F70ED0102C0CC0FDD1F8A95CD
:101CA000E2F7CE019C2F9095962391A392A1892BC8
:101CB00082A32F5F3F4F2430310509F74C5F5F4F00
:101CC000D1E04A315D07C9F6DF91CF9108950F93B6
:101CD0001F93CF93DF93DC0170E08B01000F111F86
:101CE000000F111F40E050E0F1E0E0E0CA01800F7A
:101CF000911F825F9E4FEC0198819F3F89F0292FB1
:101D000022952F7030E0E90128A130E09F7002C0D9
:101D1000359527959A95E2F720FD02C02F2F02C036
:101D200020E030E0E22BFF0F4F5F5F4F4430510562
:101D3000E9F6A60FB71FEC93DF91CF911F910F919A
:101D4000089595DF83E0E0ECF1E0DF01982F1D922C
:101D50009A95E9F7EDEBF1E0DF011D928A95E9F73D
:101D600083E03CD082CF0895A3E0B0E0EAEBFEE050
:101D70000C94CE1D19821A821B8260E0CE0101965E
:101D8000A6DF61E0CE010196A2DF62E0CE010196FE
:101D90009EDF43E050E0BE016F5F7F4F8DEB91E02F
:101DA0000E940A1E21E0009709F420E0892B49F0E7
:101DB00089819A81AB818093BD019093BE01A093EC
:101DC000BF0143E060EC71E08DEB91E008D0182F8B
:101DD00048DF812F2396E3E00C94EA1D0895EF92EB
:101DE000FF920F931F93CF93DF937C018B01C42F3E
:101DF000222341F081E08093A40170D79093A30146
:101E00008093A2018091A401811102C080E019C0D9
:101E10008091A2019091A30179D70597B8F3D0E002
:101E2000AE01B701C8010E940A1E892B39F0AE012C
:101E3000B701C8010E94171E81E001C080E0109226
:101E4000A401CDB7DEB7E6E00C94E71D0E94271889
:101E50007EDC0C94311808950E94351880DC0C94B7
:101E60004B180895D2D60E940E1864DCEFDFF4DF21
:101E700067DCFDCF90932B0180932A01089585E2C2
:101E800090E00E94201E833281F486E290E00E945E
:101E9000201E813151F487E290E00E94201E91E0E3
:101EA000873009F090E0892F01C080E081700895AB
:101EB000CF93C82F811102C06FEF01C063E285E2AA
:101EC00090E00E943C1EC11102C06FEF01C061E1B1
:101ED00086E290E00E943C1EC11102C06FEF01C07B
:101EE00067E087E290E00E943C1ECF91089508953C
:101EF00088E290E00E94201E682F70E080E090E071
:101F000008950895CF93C62FFCDF6C2F88E290E0F0
:101F10000E943C1ECF91089580E0CADF60E070E02F
:101F2000CB01F0DF77D327D481E0C2CF0895DFDF84
:101F3000DFDFE7DFA4DF811101C0EECF0895089550
:101F40009C01FB018581882349F0A901575740383E
:101F5000510528F4C9011FD480E0089581E0089557
:101F60002FEFFC0120830895FBCF089580E00895B2
:101F7000A0E0B0E0EEEBFFE00C94C71DEC01F62E04
:101F8000F5DF8111ACC0E8818E2F90E0FC01319724
:101F9000E331F10508F09EC0EE59FF4F0C94B21DDD
:101FA00019828CE060C08981823081F028F4813010
:101FB00009F090C09FD60BC0833071F0843009F0D7
:101FC00089C01A821B821C821D8286C091DF9A837F
:101FD0008B837C836D8380C0EA806E0183E0C80EB2
:101FE000D11C00E010E0AE2CB12CC501800F911F78
:101FF000039708F071C08E2D800F29DEF6018193C2
:102000006F010F5F1F4F0C31110579F765C0898192
:10201000823031F0853009F05DC08A8190DF5CC08C
:102020006A817B818C819D810E94B81D6BDF54C0C9
:102030004B816A818981B4D29C838D834DC02C8170
:102040003D813227232732274B816A818981C8D27B
:1020500043C0E0D241C06F2DCE0186DF3DC042D3E8
:102060001FC042D399838A8337C06B8170E0898116
:102070009A81AE014C5F5F4F98278927982737D305
:102080002BC06B8170E089819A81AE014C5F5F4FFC
:102090009827892798274ED31FC06DD31DC06DD2B6
:1020A00089831AC06B8170E089819A81AE014C5F8F
:1020B0005F4F982789279827CAD20EC06B8170E09E
:1020C00089819A81AE014C5F5F4F982789279827B5
:1020D000DFD202C08FEF88836F2DCE01A3D6CDB79C
:1020E000DEB7EAE00C94E31DCF93DF93FC01DB0144
:1020F00015968C91882309F4DAC09F01305723325A
:10210000310508F0D5C0EF012ADA9093BC01809325
:10211000BB01FE01E150F047E232F10520F4EB583B
:10212000FF4F0C94B21D8091BB018160A9C08091CA
:10213000BC018860B1C08091BB018260A1C0809168
:10214000BB0120C08091BB0188609AC08091BC0116
:102150001EC08091BC0182609FC08091BB018061E4
:102160008FC08091BB0180628BC08091BB01806475
:1021700087C00E945B058091BB01806881C080910F
:10218000BB01886084607CC08091BC0182608160FA
:1021900083C08091BB018E7F73C08091BC01877F1B
:1021A0007BC08091BB018D7F6BC08091BB0120C043
:1021B0008091BB01877F64C08091BC011EC080916B
:1021C000BC018D7F69C08091BB018F7E59C0809119
:1021D000BB018F7D55C08091BB018F7B51C00E9498
:1021E0005B058091BB018F774BC08091BB01877FDE
:1021F0008B7F46C08091BC018D7F8E7F4DC08091CA
:10220000BB0182FB222720F991E0922790FB82F903
:1022100090FB83F935C08091BC01982F9095917007
:102220008E7F892B90FB81F937C08091BB0186FBA3
:10223000222720F991E0922790FB86F921C00E9485
:102240005B058091BB0187FB222720F991E0922753
:1022500090FB87F915C081E001C080E008DA1EC05C
:102260008091BB0184FB222720F991E0922790FB0B
:1022700084F906C08091BB01982F909590FB80F95E
:102280008093BB010BC08091BC0183FB222720F906
:1022900091E0922790FB83F98093BC018091BB0170
:1022A0009091BC0161D90E945B0580E001C081E092
:1022B000DF91CF910895A0E0B0E0E1E6F1E10C9468
:1022C000CA1DE82FF0E0E856FE4FD490282F26953F
:1022D0002695269530E0F901E85CFD4F0491877062
:1022E00010E0082E02C0159507950A94E2F70170D8
:1022F0001127F901E85DFD4FE490F12C082E02C092
:10230000F594E7940A94E2F791E0E922FF24F901B9
:10231000E85EFD4FC491D0E002C0D595C7958A957F
:10232000E2F7C170DD270115110519F081EE0E9459
:102330001403E114F10419F086EE0E9414038D2DAC
:102340000E947403E114F10419F086EE0E94430325
:102350000115110519F081EE0E944303CD2B19F0F0
:102360008CE20E947403CDB7DEB7E7E00C94E61D63
:10237000EF92FF920F931F93CF93DF93EC01162FF1
:102380000AE08881882309F454C0813009F043C0F1
:102390008981813041F47E0182E0E80EF11C8A815E
:1023A0000E94740309C0823049F47E01E2E0EE0E1F
:1023B000F11C8A810E941403E7012EC0833041F48E
:1023C0007E01F2E0EF0EF11C8A810E944303F4CFFC
:1023D000843011F0219620C02A81229680E090E07E
:1023E00030E0205331092A30310558F4089FA0010C
:1023F000099F500D1124C901840F951F2196288132
:10240000EFCF009749F0EFE9FFE03197F1F700C017
:1024100000000197F6CF4FDF2196812F882309F422
:10242000B0CFEFE9FFE03197F1F700C00000815035
:10243000F5CFCDB7DEB7E6E00C94E71D8FE891E06D
:102440000197F1F700C00000089581E00895CF934F
:10245000DF93D62FFADFC82F882349F06AE070E0B7
:10246000DD2311F08EE401C08BE40E945E038C2F0B
:10247000DF91CF91089581E08093A60186988E9A8E
:1024800085988D9ADBDF3091A601E8EAF1E090E0D3
:10249000931769F08FB186FB882780F97D9902C078
:1024A00020E001C022E0822B81939F5FF1CF08954D
:1024B000A0E0B0E0EEE5F2E10C94C91DF12CE12CB6
:1024C00084E0C82ED12C8091A601F81608F04FC0E8
:1024D0000F2D10E0EFB1E6FBEE27E0F97D9902C089
:1024E00080E001C082E08E2BD801A855BE4FEC9150
:1024F0002E2F237030E0482F082E000C550B241788
:10250000350799F1EE0FEE0FE82BEC93EF70F0E04A
:10251000E65EFE4FE801C955DE4F90818881890F44
:10252000888384305CF0F801EB55FE4F80818F5F2B
:10253000808360E08F2D8BDF21E001C020E0888167
:102540008D3F54F4F801EB55FE4F8081815080831C
:1025500061E08F2D7CDF21E08881082E000C990B33
:10256000B6010E949F1D8883E22AF394ACCF8E2D82
:10257000CDB7DEB7E8E00C94E51D84E0089550E0A7
:10258000440F551F28E0629F400D511D11249A01F0
:1025900068E1869F200D311D1124C9018996089597
:1025A0000F931F93CF93DF93843098F4633088F4B4
:1025B000443078F4E4DF8C010E94201E90E0D82F94
:1025C000CC27C80101960E94201E9E01282BC9011C
:1025D00002C080E090E0DF91CF911F910F910895AC
:1025E0000F931F93CF93DF93843078F4633068F4B4
:1025F000443058F4E901C3DF8C016D2F0E943C1E6A
:102600006C2FC80101960E943C1EDF91CF911F9153
:102610000F9108951F93CF93DF93D0E0C0E010E0B7
:10262000412F6C2F8D2F0E94B6019C01412F6C2FE2
:102630008D2FD6DF1F5F143099F7CF5FC33079F746
:10264000DF5FD43059F7DF91CF911F910895EF925A
:10265000FF920F931F93CF93DF93EA017A01E60E67
:10266000F71E8C01C8018996CE15DF0561F0003692
:10267000110520F40E94201E888301C01882219633
:102680000F5F1F4FEFCFCDB7DEB7E6E00C94E71D2D
:10269000EF92FF920F931F93CF93DF93EA017A019A
:1026A000E60EF71E8C01C8018996CE15DF0551F0A4
:1026B0000036110518F468810E943C1E21960F5FB8
:1026C0001F4FF1CFCDB7DEB7E6E00C94E71D8430A5
:1026D00030F4633020F4443010F462CF089580E089
:1026E00090E0089580E1089587E793E00895EF92E0
:1026F000FF920F931F93CF93DF93EA017A01E60EC7
:10270000F71E8C01C80187579F4FCE15DF0569F072
:10271000073723E0120720F40E94201E888301C09F
:10272000188221960F5F1F4FEDCFCDB7DEB7E6E0E1
:102730000C94E71DEF92FF920F931F93CF93DF93BB
:10274000EA017A01E60EF71E8C01C80187579F4FF8
:10275000CE15DF0559F0073723E0120718F468811A
:102760000E943C1E21960F5F1F4FEFCFCDB7DEB703
:10277000E6E00C94E71DCF93DF93C9E8D0E060E07A
:10278000CE010E943C1E2196C11584E0D807B9F7FE
:10279000DF91CF910895A8E0B0E0E1EDF3E10C9472
:1027A000C51DF82E8FE08F1508F473C08FEF93E0EE
:1027B0000E94201E81116DC009E810E0FF2071F019
:1027C000011594E0190709F464C0C8010E94201E95
:1027D000811101C0FA940F5F1F4FF0CFFE013196B7
:1027E0006F0188E011928A95E9F77801FFEFEF1AFF
:1027F000FF0AC8010E94201E89831A82882309F4D7
:1028000048C0813009F040C0580182E0A80EB11CD8
:10281000C7010E94201E8A838823D9F19FEF980F59
:10282000933060F4780193E0E90EF11CC5010E9439
:10283000201E8B83882369F11C8226C0843019F501
:102840004E01E3E08E0E911C02E010E07501FFEFF7
:10285000EF1AFF0AC5010E94201EF40181934F0167
:102860008823B9F08C3741F4E2E0F0E0EC0FFD1F73
:10287000E00FF11F108208C00F5F1F4F5701073094
:10288000110521F706C0750160E0C60171DD870101
:10289000ACCF2896ECE00C94E11DCF93DF9386310A
:1028A0009C4731F5EB010E94AA09982F8D81209158
:1028B000000130910101882371F09A7A81E009F4D6
:1028C00080E08093A901911102C069E201C065E333
:1028D000C9015BD109C08091A901811102C069E2DF
:1028E00001C065E3C90153D10E94F10980E001C034
:1028F00081E0DF91CF9108950F931F93CF93DF93E2
:10290000C42FD22FFC0185818823A9F04093AC010C
:10291000E5D19093AB018093AA0180E28C0F8830BF
:1029200008F04CC0C77081E001C0880FCA95EAF773
:102930000E947D0343C08091AC0148132FC0809159
:10294000AA019091AB01E2D1883C910538F510E2E3
:102950001D0FCD17B9F080E28C0F883040F4C7709E
:1029600081E001C0880FCA95EAF70E9482031830FF
:1029700010F581E09D2F977001C0880F9A95EAF7B6
:102980000E947D03802F0E9474031830B8F4D77022
:1029900081E001C0880FDA95EAF70AC080E28C0F67
:1029A000883060F4C77081E001C0880FCA95EAF7EB
:1029B0000E94820303C0802F0E947403DF91CF9195
:1029C0001F910F9108950F93FC01E851FC47E730E8
:1029D000F10588F5CB01E956FF4F0C94B21D06E2D4
:1029E00021EE41EE6AE17CE723C007E225EE45EEE9
:1029F0006BE17CE71DC006E221EE40EE68E17CE77A
:102A000017C007E225EE44EE69E17CE711C006E25B
:102A100021EE42EE6CE17CE70BC007E225EE46EECC
:102A20006DE17CE705C008E221E045EE6EE17CE760
:102A300063DF80E008C0FB018581882319F01092D4
:102A4000AC0101C081E00F9108951F93CF93DF93F4
:102A500087372CE7920721F088379C4749F027C039
:102A6000FB01C581CC2311F028D007C026D013C0AC
:102A7000FB01C581CC2371F023D00E94C40523D073
:102A8000D82F1ED0C82F19D04D2F6C2F0E94DE06D4
:102A9000C0E00EC015D00E94CF0515D0182F10D061
:102AA000D82F0BD0412F6D2F0E94DE0601C0C1E050
:102AB0008C2FDF91CF911F9108958091040108958B
:102AC0008091030108958091020108959093AE01D1
:102AD0008093AD010895E091AD01F091AE01309782
:102AE00029F00190F081E02D0995089580E0089586
:102AF000E091AD01F091AE01309721F00280F381B9
:102B0000E02D09950895FC01329697E080E0915000
:102B100029F021912223D9F38F5FF9CF08956623FD
:102B200049F0FC01329608962191621729F0E817C6
:102B3000F907D1F780E0089581E008959C01FC0138
:102B400032969FEF80E04191461789F09F3F19F43C
:102B5000411101C0982F8F5F8630A9F79F3F39F050
:102B6000F901E90FF11D97FDFA9562830895089523
:102B70009C012A5F3F4FFC014281461301C0128233
:102B8000019682179307B9F70895D8CF0895F0CF2B
:102B90000895029626E0FC0111922A95E9F708951E
:102BA0000895FECF089583E08093AF01FACF089592
:102BB000811102C081E001C082E08093AF01F1CFBA
:102BC0000895F6CF089581E08093AF01EACF08958C
:102BD000FACF08950895FECF0895FDCF0895FACF56
:102BE0000895F8CF0895F6CF0895CF93FADFBCD8B3
:102BF000F6DFC0E08C2F2BD8811104C0CF5FC3302B
:102C0000C9F701C081E0CF91089585B7806885BF7D
:102C100085B7806885BF08951F920F920FB60F92F7
:102C200011248F939F93AF93BF938091B001811133
:102C300013C08091C3019091C401A091C501B091CE
:102C4000C6014196A11DB11D8093C3019093C4019B
:102C5000A093C501B093C601BF91AF919F918F9191
:102C60000F900FBE0F901F9018958091CB0184306C
:102C700031F10E949C021092B00120E488E190E0C2
:102C80000FB6F894A895809360000FBE2093600063
:102C900083B7817F846083BF83B7816083BF78946B
:102CA000889583B78E7F83BF0FB6F894A8958091DF
:102CB0006000886180936000109260000FBE0895EC
:102CC0000E945B050C94A002089582E084BD93E00D
:102CD00095BD9AEF97BD80936E0008952FB7F89435
:102CE0008091C3019091C401A091C501B091C6012A
:102CF0002FBF08952FB7F8946091C3017091C4015C
:102D00008091C5019091C6012FBF08959C014FB7D6
:102D1000F8948091C3019091C401A091C501B09134
:102D2000C6014FBF821B930B089578941F920F9298
:102D30000FB60F9211248F939F93AF93BF938091FF
:102D4000C3019091C401A091C501B091C601019643
:102D5000A11DB11D8093C3019093C401A093C5012F
:102D6000B093C601BF91AF919F918F910F900FBE0D
:102D70000F901F90189587E797E79093010880932D
:102D800000089AE088E10FB6F894A8958093600057
:102D90000FBE90936000FFCF9AE088E10FB6F894E1
:102DA000A895809360000FBE90936000FFCF809144
:102DB000B9010895089508959B019091CB01943035
:102DC000E9F48F708093E9008FEF9091E8008150D3
:102DD00095FD06C095ED9A95F1F700008111F5CFAC
:102DE0008091E80085FF0AC0BA01C90140E050E0C7
:102DF000F5D18091E8008E778093E8000895CF9315
:102E0000DF93EC0148E050E0BC0181E0D5DF88E0D1
:102E1000FE01A1EBB1E001900D928A95E1F7DF91FF
:102E2000CF910895603229F4BC0140E250E082E085
:102E3000C3CF08958091CA01811107C097D3EED303
:102E40008091E20084608093E20008951092CA01AC
:102E50000895BECE08956091C70181E0611101C05F
:102E600080E0A1CE08959091CB0181E0943009F0EB
:102E700080E06091C7019CCE089542E061EC81E062
:102E8000EED242E261EC82E0EAD242E260EC83E020
:102E9000E6D29091CB0181E0943009F080E060911E
:102EA000C7018FCE08958091CD01833009F460C0B1
:102EB00030F4813071F0823009F498C008958A307E
:102EC00009F485C08B3009F46BC0893009F0A5C0C6
:102ED0001FC08091CC01813A09F09FC08091E80029
:102EE000877F8093E8008091D0019091D101892B58
:102EF00021F468E081EB91E003C060E080E090E0C5
:102F000070E0EED18091E8008B778093E80008951F
:102F10008091CC01813209F080C08091D0019091E4
:102F2000D101892B09F079C08091E800877F8093D7
:102F3000E8008091E80082FD05C08091CB018111FD
:102F4000F8CF6BC02091F3008091F20090E0922BBB
:102F5000029731F48091F100813011F0863021F434
:102F60008091F1008093B9018091E8008B7752C085
:102F70008091CC01813A09F050C08091D0019091AC
:102F8000D101892B09F049C08091E800877F8093A7
:102F9000E8008091E80080FFFCCF80910D0135C0F2
:102FA0008091CC018132C9F58091D0019091D101FD
:102FB000892B99F58091E800877F8093E80084D27F
:102FC0008091CE0180930D010C945B050895809152
:102FD000CC01813211F58091E800877F8093E80071
:102FE00073D28091CF018093BA0108958091CC0172
:102FF000813A99F48091E800877F8093E80080917E
:10300000E80080FFFCCF8091BA018093F1008091AD
:10301000E8008E778093E80057C2089584B7877FD1
:1030200084BF0FB6F894A895809160008861809362
:103030006000109260000FBE90E080E80FB6F89438
:1030400080936100909361000FBEBDCD08958ED234
:10305000E5D2E2EEF0E0808184608083789455C50B
:10306000089585E091E032CD08958091CB018530BF
:1030700089F48091CB01853061F4F7DD8091C9013D
:103080008823B9F3B2DD8823A1F392D00E945B05B7
:10309000F0CF16CE0895A0E2B0E0E0E5F8E17FC5FC
:1030A0008091CB01843009F583E08093E900809121
:1030B000E80082FF1AC08091E80085FF09C040E067
:1030C00050E060E270E0CE010196C9D091E001C00D
:1030D00090E08091E8008B778093E800992329F0B5
:1030E00060E2CE0101960E94B80FA096E2E073C59F
:1030F0009A014091D2015091D30101C00895492F06
:10310000552743305105C9F060F44130510581F035
:103110004230510509F044C082E490E046E752E0B5
:1031200043C041325105E1F04232510549F138C006
:1031300082E190E048EB52E037C099278130910559
:1031400049F028F0029761F5E8E4F2E005C0E2E713
:10315000F2E002C0E6E6F2E0849190E0AF0124C024
:103160006115710541F061307105D1F489E090E09D
:1031700041EA52E019C089E090E048E852E014C00A
:103180006115710541F06130710551F482E290E002
:103190004AEC52E009C084E490E04CEE52E004C0F6
:1031A00080E090E040E050E0F901518340830895D1
:1031B00080E189BD82E189BD09B400FEFDCF809127
:1031C000D8008F7D8093D8008091E000826080934A
:1031D000E0008091E00081FDFCCF0895A0E0B0E028
:1031E000E3EFF8E1D6C4EC018B017A018CD18111B7
:1031F00032C0E114F10439F0F70180819181081B9C
:10320000190BC80FD91FC12CD12C0115110511F1B3
:103210008091E80085FD15C08091E8008E7780934D
:10322000E800E114F10449F0F70180819181C80EB2
:10323000D91ED182C08285E00EC065D1882329F3D2
:103240000AC089918093F10001501109FFEFCF1A54
:10325000DF0ADBCF80E0CDB7DEB7E8E0B6C4A0E0A0
:10326000B0E0E4E3F9E195C4EC018B017A014BD1C4
:10327000811132C0E114F10439F0F70180819181AC
:10328000081B190BC80FD91FC12CD12C0115110512
:1032900011F18091E80085FD15C08091E8008B77E1
:1032A0008093E800E114F10449F0F70180819181F5
:1032B000C80ED91ED182C08285E00EC024D18823D9
:1032C00029F30AC08091F100899301501109FFEFA1
:1032D000CF1ADF0ADBCF80E0CDB7DEB7E8E075C4F8
:1032E0002091D2013091D3012617370748F061159C
:1032F000710539F42091E8002E772093E80001C091
:10330000B901FC0120E06115710579F18091CB01D3
:103310008823F1F18530F1F18091E80083FD3CC014
:103320008091E80082FD2EC08091E80080FFEBCF05
:103330002091F3008091F20090E0922B61157105CD
:1033400051F08830910538F421912093F1006150BB
:1033500071090196F3CF21E0089709F020E08091F0
:10336000E8008E778093E800CECF2111CFCF0AC03E
:103370008091CB01882361F0853061F08091E80075
:1033800083FD0AC08091E80082FFF2CF80E00895BB
:1033900082E0089583E0089581E008952091D201AC
:1033A0003091D3012617370748F06115710539F4BC
:1033B0002091E8002E772093E80001C0B901FC01BC
:1033C00020E06115710591F18091CB01882309F40A
:1033D00040C0853009F43FC08091E80083FD3DC0C6
:1033E0008091E80082FD2FC08091E80080FFE9CF46
:1033F0002091F3008091F20090E0922B611571050D
:1034000059F08830910540F424912093F1003196D1
:10341000615071090196F2CF21E0089709F020E090
:103420008091E8008E778093E800CBCF2111CCCF3C
:103430000AC08091CB01882361F0853061F08091D2
:10344000E80083FD0AC08091E80082FFF2CF80E0AF
:10345000089582E0089583E0089581E00895982F0B
:10346000973068F59093E900981739F07091EC0067
:103470002091ED005091F00003C0242F762F50E0F2
:1034800021FD02C09F5FECCF3091EB003E7F309377
:10349000EB003091ED003D7F3093ED003091EB007B
:1034A00031603093EB007093EC002093ED0050936B
:1034B000F0002091EE0027FDE5CF80E008958F70A9
:1034C0008093E90081E008958091CC0187FF11C0CD
:1034D0008091E80082FD05C08091CB018111F8CF79
:1034E00011C08091E8008B770BC08091CB018823BD
:1034F00049F08091E80080FFF8CF8091E8008E7756
:103500008093E80008952091E4003091E50095E66D
:103510004091EC00842F817040FF23C08091E8002F
:1035200080FD1DC08091CB01882399F0853099F0F2
:103530008091EB0085FD11C04091E4005091E500C1
:103540002417350729F3915011F09A01E1CF84E057
:10355000089582E0089583E0089581E0089580E071
:1035600008954091E80042FFDDCF089568D06FD004
:10357000E0EEF0E0808181608083E8EDF0E0808122
:103580008F77808319BCA7EDB0E08C918E7F8C93F0
:1035900080818F7E80831092CA0108950F931F93BC
:1035A000CF93DF934CD053D0C8EDD0E088818F7794
:1035B000888388818068888388818F7D888319BC0F
:1035C0001092CB011092C7011092C9011092C8014C
:1035D00000EE10E0F80180818B7F8083888181601C
:1035E000888342E060E080E03ADFE1EEF0E0808155
:1035F0008E7F8083E2EEF0E0808181608083808135
:1036000088608083F80180818E7F808388818061DB
:103610008883DF91CF911F910F910895E8EDF0E03D
:1036200080818F7E8083E7EDF0E080818160808300
:1036300084E082BF81E08093CA01B0CF0895E8EDB5
:10364000F0E080818E7F80831092E20008951092D6
:10365000DA001092E10008951F920F920FB60F92B8
:1036600011242F933F934F935F936F937F938F9387
:103670009F93AF93BF93EF93FF938091E10082FFFD
:103680000AC08091E20082FF06C08091E1008B7F3A
:103690008093E10039D28091DA0080FF1DC08091D3
:1036A000D80080FF19C08091DA008E7F8093DA0005
:1036B0008091D90080FF0CC080E189BD82E189BD85
:1036C00009B400FEFDCF81E08093CB01B3DB04C0E1
:1036D00019BC1092CB01BADB8091E10080FF18C0C9
:1036E0008091E20080FF14C08091E2008E7F809381
:1036F000E2008091E20080618093E2008091D80036
:1037000080628093D80019BC85E08093CB01A3DB55
:103710008091E10084FF2FC08091E20084FF2BC0E4
:1037200080E189BD82E189BD09B400FEFDCF8091B1
:10373000D8008F7D8093D8008091E1008F7E8093A8
:10374000E1008091E2008F7E8093E2008091E200B0
:1037500081608093E2008091C701882311F084E0AA
:1037600007C08091E30087FD02C081E001C083E0D3
:103770008093CB0178DB8091E10083FF27C08091AB
:10378000E20083FF23C08091E100877F8093E10006
:1037900082E08093CB011092C7018091E1008E7F7F
:1037A0008093E1008091E2008E7F8093E20080911F
:1037B000E20080618093E20042E060E080E04FDE62
:1037C0008091F00088608093F00043DBFF91EF91DF
:1037D000BF91AF919F918F917F916F915F914F9129
:1037E0003F912F910F900FBE0F901F9018951F9231
:1037F0000F920FB60F9211242F933F934F935F9325
:103800006F937F938F939F93AF93BF93CF93DF93E8
:10381000EF93FF93C091E900CF708091EC00D82F17
:10382000D17080FDD0E81092E9008091F000877F90
:103830008093F00078941ED01092E9008091F000FF
:1038400088608093F000CD2BCF70C093E900FF918A
:10385000EF91DF91CF91BF91AF919F918F917F9128
:103860006F915F914F913F912F910F900FBE0F90ED
:103870001F901895AAE2B0E0EFE3FCE18FC1ECECF9
:10388000F1E08091F100819321E0E43DF207C9F776
:103890000ADB8091E80083FF26C18091CC019091E2
:1038A000CD01492F50E04A30510508F01CC1FA0102
:1038B000E256FF4F57C1803821F0823809F013C11A
:1038C00008C08091C8019091C901992389F0826054
:1038D0000FC08091D0018F70873008F004C18093B1
:1038E000E9008091EB0085FB882780F91092E900C0
:1038F0009091E800977F9093E8008093F1001092F8
:10390000F100CCC0282F2D7F09F0EDC0882319F0DD
:10391000823061F0E8C08091CE01813009F0E3C0CF
:10392000933009F080E08093C9012EC08091CE01D0
:1039300081112AC08091D0018F702FEF280F26307F
:1039400008F0D1C08093E9002091EB0020FF1CC05B
:10395000933021F48091EB00806214C09091EB00D1
:1039600090619093EB0021E030E0A90102C0440F88
:10397000551F8A95E2F74093EA001092EA00809181
:10398000EB0088608093EB001092E9008091E800E2
:10399000877F8093E80098DDA6C08111A4C01091B4
:1039A000CE011F778091E3008078812B8093E30024
:1039B0008091E800877F8093E80086DD8091E800B1
:1039C00080FFFCCF8091E30080688093E3001111B9
:1039D00002C082E001C083E08093CB0184C08058A4
:1039E000823008F080C08091CE019091CF018C3D53
:1039F00053E0950771F583E08A838AE289834FB7A4
:103A0000F894DE01139620E03EE051E2E32FF0E06F
:103A100050935700E49120FF03C0E295EF703F5FA1
:103A2000EF708E2F90E0EA3010F0C79601C0C0967C
:103A30008D939D932F5F243149F74FBF8091E8000C
:103A4000877F8093E8006AE270E0CE01019648DC4F
:103A500014C06091D0017091D101AE014F5F5F4FF2
:103A600047DBBC01892B09F43EC09091E800977FA9
:103A70009093E80089819A8191DC8091E8008B77AE
:103A80008093E80030C0803871F58091E800877F2E
:103A90008093E8008091C7018093F1008091E80055
:103AA0008E7777CF81111FC08091CE019091CF0189
:103AB00099270297C4F48091E800877F8093E800FB
:103AC0008091CE018093C701FFDC8091C7018111F5
:103AD00006C08091E30087FD02C081E001C084E060
:103AE0008093CB01CAD98091E80083FF0AC08091FE
:103AF000E800877F8093E8008091EB0080628093EC
:103B0000EB00AA96E3E066C00895CF938091CB01C5
:103B1000882399F0C091E900CF709091EC00892F33
:103B2000817090FD80E8C82B1092E9008091E80038
:103B300083FDA0DECF70C093E900CF91089597FB7D
:103B4000072E16F4009406D077FD08D04FD007FC5E
:103B500005D03EF4909581959F4F0895709561959D
:103B60007F4F0895EE0FFF1F0590F491E02D09940B
:103B700069279627692778278727782708952F921E
:103B80003F924F925F926F927F928F929F92AF92ED
:103B9000BF92CF92DF92EF92FF920F931F93CF933A
:103BA000DF93CDB7DEB7CA1BDB0B0FB6F894DEBFD1
:103BB0000FBECDBF09942A88398848885F846E84F7
:103BC0007D848C849B84AA84B984C884DF80EE8041
:103BD000FD800C811B81AA81B981CE0FD11D0FB64A
:103BE000F894DEBF0FBECDBFED010895AA1BBB1B2D
:103BF00051E107C0AA1FBB1FA617B70710F0A61BED
:103C0000B70B881F991F5A95A9F780959095BC010D
:103C1000CD010895FB01DC0104C08D910190801954
:103C200021F441505040C8F7881B990B0895FB01BF
:103C3000DC0102C001900D9241505040D8F7089528
:103C4000F999FECF92BD81BDF89A992780B5089564
:103C5000A8E1B0E042E050E02FC0DC01A40FB51FA6
:103C60004150504040F0CB01840F951F2E9105D05C
:103C700041505040D8F70895262FF999FECF92BDB4
:103C800081BDF89A019700B4021639F01FBA20BD21
:103C90000FB6F894FA9AF99A0FBE08950396272F53
:103CA000ECDFEADF252FE9DF242FE7CF0196272F6E
:103CB000E4DFE2CFDC01CB01FC01F999FECF06C0C5
:103CC000F2BDE1BDF89A319600B40D9241505040DA
:083CD000B8F70895F894FFCF46
:103CD8008601030201D716FF16DA16DB160191904A
:103CE800946697C634353632333100FF010001003F
:0A3CF80000FFFF0000010001FF00C3
:00000001FF
