:100000000C9471020C948E020C948E020C948E024D
:100010000C948E020C948E020C948E020C948E0220
:100020000C948E020C948E020C941C1F0C945E1E79
:100030000C942F2A0C948E020C948E020C948E0237
:100040000C948E020C948E020C948E020C948E02F0
:100050000C948E020C94E2290C948E020C948E0265
:100060000C948E020C948E020C948E020C948E02D0
:100070000C948E020C948E020C948E020C948E02C0
:100080000C948E020C948E020C948E020C948E02B0
:100090000C948E020C948E020C948E020C948E02A0
:1000A0000C948E020C948E020C948E02BF073308BF
:1000B000C70791079507CB079807CE07D907A3076E
:1000C0002908A707DD07AB07E1070B08AF07E5071E
:1000D0001508B507EB07F5079C07D2079F07D5075B
:1000E000BA07F0070108210823088D07C3073C0859
:1000F0006208680856085C086E0874087A08620985
:10010000620990099009690B690B690B690B3D0A3B
:10011000B00AC20AC20A801197119D11D411E511CB
:10012000F7110A121D125F1264129012B412E71234
:10013000EA12F61202131913501362138713A9134C
:100140006B1C921C3C1E921C3C1EDA1CFD1C3C1EAF
:10015000F81D0C1EFD377A585A000004E6D6B44646
:100160000200210116000000742FE5A3E001260023
:10017000B35D003D8889C65436C3174FE4DBA03A0F
:100180007F9637E916E0E00009C3015377F254582F
:1001900090A3591750694AEB585EB13B0351BD59C2
:1001A0008D8E859BD644137DCE568B3A8D3C9474B0
:1001B000086904E17C339670F02691DA41E551FD3F
:1001C000E29F48606ECF7095B1FC54F9F21DF4E7E0
:1001D000E44E468038A2BA0DEE08B5DEB021D33425
:1001E000A338277042A746E583E527E0613A9B7F65
:1001F000CDC47EA3987E2BB4826D88EDAB553C5F59
:10020000F41D7F222EA7AEA7E2829DB2B4886A3782
:1002100047A52426E83F6B69ACE470FAC0E34B7B4A
:100220003C77759AC09400009B853F0771465ED26B
:100230000001CF01A7020000DEA4B3CDB1C467FB6B
:10024000020000000004595A01000100070335159F
:100250001A15000002000200030335151A150000EC
:1002600003000100080335151A1500000400020000
:10027000ED0235151A157514050001000903351531
:100280001A15000006000200EF0235151A150000CD
:1002900007000200050335151A15000008000100CB
:1002A0000A0335151A150000120002000B0335155C
:1002B0001A150000130002000D0335151A15000071
:1002C000140001000F0335151A1500001500000079
:1002D0000000F8139A1400000660FF0961A10109EB
:1002E00062150026FF00952075088102096315003C
:1002F00026FF00952075089102C005010906A1019D
:10030000050719E029E71500250195087501810207
:100310009501750881010507190029FF150026FFC1
:1003200000950675088100050819012905150025A5
:1003300001950575019102950175039101C00902AE
:100340004200020100A0FA090400000103010100BB
:100350000921110100012244000705810308000161
:10036000090401000203000000092111010001221B
:100370002200070582032000010705030320000176
:100380001201000200000008504120040101010296
:1003900003011C037600690061006C003A006600EE
:1003A0003600340063003200620033006300000056
:1003B0001C034100740068005F004D006100630091
:1003C00072006F005F0033007800340000000A0301
:1003D000410074006800500000000403090400009C
:1003E000000000000000000000000000000000000D
:1003F00000000000000000000000000000000000FD
:1004000000007E0F00D4FFFFFFC70000007800004F
:100410000000000000002A2B28000000000000005F
:1004200000000000000000000029000000002C1E59
:100430003420212224342627252E362D3738271E16
:100440001F202122232425263333362E37381F043C
:1004500005060708090A0B0C0D0E0F1011121314D4
:1004600015161718191A1B1C1D2F3130232D350492
:1004700005060708090A0B0C0D0E0F1011121314B4
:1004800015161718191A1B1C1D2F3130354C270053
:100490001E002100240028001F00220025002152F8
:1004A00020002300260001000100010001000100DE
:1004B000010001000100010001000100007C0100B9
:1004C0000100010001000100010001000100010024
:1004D00001000100007CDA00D90023782478277815
:1004E000287811241FBECFEFDAE0DEBFCDBF11E0C8
:1004F000A0E0B1E0EEE4F2E602C005900D92A23376
:10050000B107D9F724E0A2E3B1E001C01D92A637FC
:10051000B207E1F70E94D10B0C9425310C94000036
:10052000ACE0B0E0E6E9F2E00C94BD30DC011496FA
:100530002C91222311F40C94CD0B7C0161E00E94DC
:100540002C2D8C01F7018581882319F180916D0490
:1005500090916E040097E9F008171907D1F09927D8
:1005600064E0880F991F6A95E1F7FC01EC58FE4F93
:1005700020812460208381599E4FDC010D931C93C0
:100580000E94AB2A10926C0461E0C7010E942C2DDE
:100590008C01F7013580332009F4C2C0C801975798
:1005A0008038910508F008C1D02EFFE0F01710F454
:1005B0000C94BE0B8FEF93E00E94423081110C949B
:1005C000BE0B0DEA11E0DD2079F0011524E01207E1
:1005D00011F40C94BE0BC8010E944230811101C07D
:1005E000DA940F5F1F4FEFCF19821A821B821C8291
:1005F000AA24AA9468013FEFC31AD30AC8010E9433
:10060000423089831A82882311F40C94BE0B813006
:1006100009F081C0480142E0840E911CC6010E948D
:100620004230B82E8A83882311F40C94BE0B8FEFCE
:100630008B0D833060F4680153E0C50ED11CC401FA
:100640000E9442308B83811166C08601D3CF8BEF2D
:100650008B0D833078F5380183E0680E711CC4017E
:100660000E9442308B83811102C06301EECF68018A
:1006700094E0C90ED11CC3010E9442308C838823B0
:1006800021F32B813C812130AFEF3A0718F0922FF4
:1006900080E001C0C901B6E0BB1631F0E7E0BE164C
:1006A00031F00E94081AD1CF0E94E319CECF0E94E8
:1006B0006919CBCFF4E0BF1611F06401C6CFC401B5
:1006C0000E944230B82E680124E0C20ED11CC8013D
:1006D00003960E944230BB2011F40C94BE0B882379
:1006E00011F40C94BE0B282F30E021503109A29E4A
:1006F000A001A39E500D11248B2D90E00197840F33
:10070000951F019708F4A1CFAFE9BFE01197F1F76A
:1007100000C00000F6CFCE0101960E94DF1A95CFEF
:100720006801E7E5DE1AFFEFCF16D10411F008F0FB
:100730005DC065E671E08C2D0E94F22C892BB9F525
:10074000C60154E0880F991F5A95E1F7FC01E15961
:10075000FE4F22812130C9F420916501309166015C
:10076000232B29F12091670130916801232BF9F0A7
:100770002091690130916A01232BC9F420916B010A
:1007800030916C01232B49F012C0223081F420916A
:10079000690130916A01232B51F0FC01EC58FE4FA6
:1007A00020812E7F208381599E4F0E94AB2AD70142
:1007B00015963C903320D9F00E35BCE71B0761F04D
:1007C0000F35ECE71E0761F00D35FCE71F0779F4E4
:1007D00080910001811104C081E080930001CEC7A7
:1007E0001092000180E00E94952BC8C7312C8091A7
:1007F0000001811108C0C80197558F3F910509F08C
:1008000008F47AC1E7C1480120EE821A91082090CD
:10081000460480913804282A8091CC02282A38E0A6
:100820008316910480F498012770332781E090E0CB
:1008300001C0880F2A95EAF7332011F0282A18C042
:100840008095282215C0332009F416C11093350174
:10085000009334010E94172A60935E0470935F0432
:100860008093600490936104109266041092650472
:10087000D7018D919C910E94B72021E030E0F901D1
:1008800002C0EE0FFF1F8A95E2F7FC87EB872091ED
:1008900067043091680438872F8340913401509168
:1008A00035015A8749871D82432C512C5D81E52FE4
:1008B000F0E0EE0FFF1FE05CFD4FC080D180C1145F
:1008C000D10409F4F0C0211005C0D60112968C9114
:1008D0008111CEC0F601838190E02B853C85822377
:1008E0009323892B09F4C4C08085982F977009F44D
:1008F00087E038E08316910440F4332019F081FD3D
:1009000009C0B6C082FD06C0B3C0332009F4B0C030
:1009100080FFAEC0D601AD90BC900A151B0519F43E
:10092000332009F4A5C0EF81F885CE16DF0609F45F
:100930009FC0D6011D96ED91FC911E97309721F036
:100940008081882309F494C0622DC6010E94042C82
:10095000882309F48DC00A151B0511F4320102C069
:10096000612C712CB62DB170BE8381E0A114B1044D
:1009700041F0B11106C0E985FA85AE16BF0609F04F
:1009800080E080FF75C080E00E94952BD0926804C3
:10099000C092670481E080936404D60115968C911F
:1009A00080936204BE81B11113C0AB2889F0F601B7
:1009B000808191819C0124503109213A310530F424
:1009C000682F8CE494E00E94582A02C00E94F4230D
:1009D000D6011696AD90BC901797C5019A958115D2
:1009E0009F4110F4E0EEBE2255245394C5010197B7
:1009F0008F339E4708F0512CD6011996ED91FC914A
:100A00001A97309739F01B966D917C911C9781E075
:100A100009955822552029F1F601868197810E9477
:100A2000902F80936304C501F8E08F16910418F4A9
:100A30000E94442B16C00497813A910530F46A2D28
:100A40008CE494E00E94652A0EC00E94DB278FE3AD
:100A50009CE90197F1F700C000008A2D0E940F2445
:100A600002C00E94DB2791E0692660FE79C1C3CEF7
:100A7000AD81AF5FAD831ACF809134019091350184
:100A80000817190781F41092350110923401109261
:100A90005E0410925F041092600410926104109240
:100AA0006604109265048091670490916804009731
:100AB00009F4A1CEB8E08B16910438F4622D0E949F
:100AC000042C811198CE81E014C0FC012081318179
:100AD0000217130729F4311006C01092640408C0ED
:100AE000332009F488CEDC0118968C9185FD83CEE5
:100AF00080E00E94952B7FCE5801BB24C50134E0D5
:100B0000880F991F3A95E1F7FC01E159FE4F6F01FB
:100B1000D70115962C911597FC01EC58FE4F5F01FB
:100B2000808120FB80F9808315968C918823A1F128
:100B30000E94232A9093430180934201D60112968A
:100B40008C9112978F5F12968C93129790916C04F0
:100B50008091CC02892B13968C9313978091460435
:100B600014968C93149716964D915C9117971E9638
:100B70006D917C911F97C6010E948C2AF50180819E
:100B800081FF03C090E080E002C0902F812F9093FE
:100B90006D0480936E041EC0D6011C964D915C912D
:100BA0001D971E966D917C911F97C6010E948C2AFD
:100BB000F501808181FF0EC0C6010E94922A8091BA
:100BC0006D0490916E040817190721F410926E04B9
:100BD00010926D048091080380FF93C00E94232A25
:100BE0006C01D70115968C918823B1F180910B018E
:100BF00082FF08C024E431E040E0B60180E090E0EC
:100C00000E946C170431BCE71B07A9F00531ECE723
:100C10001E0751F00331FCE71F07A1F480910B017F
:100C2000816080930B010EC080910B01982F9095ED
:100C300090FB80F903C080910B018E7F80930B01A4
:100C40000E943217C80190528115904358F51092B6
:100C500014031092130355C0013E110521F4809135
:100C60000B018F7E06C0053E110531F480910B010A
:100C70008F7D80930B0116C0C8019052811590435F
:100C800088F480910B0182FF3CC080910A0381FDB2
:100C900038C024E431E040E0B60180E090E00E94FA
:100CA0006C172FC080910B0180FF2BC0D7011596C8
:100CB0008C910832110538F40E311105B8F4043066
:100CC000110578F41CC00933110538F40D321105F3
:100CD00090F40B32110579F012C00436110559F069
:100CE0000EC09091080394FD0AC03DC09091080386
:100CF00093FD05C038C09091080392FF34C0811164
:100D0000E4C0F801E851FC47E730F10508F4CAC136
:100D1000F70195819111E4C00631FCE71F0709F046
:100D20001BC28091CC02282F2A7A3091070330FD14
:100D3000ECC131FDF0C132FDF4C133FDF8C199239E
:100D400009F4FEC181E0211101C080E080933601E9
:100D5000222309F4F3C165E38CE494E00E94652A40
:100D60000E94DB270BC5882309F4A8C09091460494
:100D70008091CC02892B8D7F79F11092140310920F
:100D800013038091080381FD27C0F80123E0F69545
:100D9000E7952A95E1F7EE71FF27E353FD4F9801A0
:100DA0002F70332781E090E002C0880F991F2A95A9
:100DB000E2F780959095208131818223932391835E
:100DC0008083A70160E0C8010E945117809146040A
:100DD0008D7F0E9438276EC089E0F701A4E4B1E05E
:100DE00001900D928A95E1F7109249011092470106
:100DF000109246018091130390911403081719076C
:100E0000E1F58091080385FF38C090910B0191FFB7
:100E100002C086FF32C080911103909112035601E7
:100E2000A81AB90AB701C8010E943319A816B90651
:100E300020F58091CC0281FF08C080910B01806178
:100E400080930B0182E00E9468278091CC0285FF8D
:100E500008C080910B01806280930B0180E20E94A8
:100E6000682760910B0166956170A701809113035B
:100E7000909114030E94511781C48091460490916F
:100E8000CC02982B9695917020910B0190FB21F943
:100E900020930B018D7F0E94382710931403009339
:100EA0001303D0921203C092110380910B0184604E
:100EB00080930B0182E00E947C2760C4970140E090
:100EC000B601C8010E946C1759C410921403109205
:100ED0001303F801E851FC47E730F10508F4E2C0DC
:100EE00010926B04C8019057839708F00CC184E0FE
:100EF00090E00E944A309093CB028093CA02F8019E
:100F0000E150F047E232F10520F4EA5AFF4F0C9429
:100F1000B0308091CA028160ACC08091CB02886001
:100F2000B4C08091CA028260A4C08091CA0220C06D
:100F30008091CA0288609DC08091CB021EC08091C2
:100F4000CB028260A2C08091CA02806192C080916F
:100F5000CA0280628EC08091CA0280648AC00E94E8
:100F60005A238091CA02806884C08091CA02886036
:100F700084607FC08091CB028260816086C0809156
:100F8000CA028E7F76C08091CB02877F7EC080911F
:100F9000CA028D7F6EC08091CA0220C08091CA02B1
:100FA000877F67C08091CB021EC08091CB028D7F6E
:100FB0006CC08091CA028F7E5CC08091CA028F7D16
:100FC00058C08091CA028F7B54C00E945A238091DE
:100FD000CA028F774EC08091CA02877F8B7F49C03B
:100FE0008091CB028D7F8E7F50C08091CA0282FBA0
:100FF000222720F991E0922790FB82F990FB83F958
:1010000038C08091CB02982F909591708E7F892B5C
:1010100090FB81F93AC08091CA0286FB222720F911
:1010200091E0922790FB86F924C00E945A23809178
:10103000CA0287FB222720F991E0922790FB87F9CB
:1010400018C061E001C060E08EE090E00E94603076
:101050001EC08091CA0284FB222720F991E09227CA
:1010600090FB84F906C08091CA02982F909590FB5E
:1010700080F98093CA020BC08091CB0283FB2227A8
:1010800020F991E0922790FB83F98093CB02609145
:10109000CA027091CB0284E090E00E947E300E94F0
:1010A0005A236CC3E858FF4F0C94B03006E221EE8F
:1010B00041EE6AE17CE723C007E225EE45EE6BE1F5
:1010C0007CE71DC006E221EE40EE68E17CE717C038
:1010D00007E225EE44EE69E17CE711C006E221EE6D
:1010E00042EE6CE17CE70BC007E225EE46EE6DE1D7
:1010F0007CE705C008E221E045EE6EE17CE7C70130
:101100000E94D22A3BC391E007CE482F447409F4D1
:1011100010CE20E00ECE482F417109F40CCE20E015
:101120000ACE482F487809F408CE20E006CE827215
:1011300009F405CE992321F01092360169E20CCE14
:1011400080913601882311F065E301C069E28CE4E7
:1011500094E00E94582A04CE07372CE7120711F4B6
:1011600081E005C008373CE7130771F482E099235A
:1011700019F00E94212102C00E94142143E062E084
:1011800081E00E94F220FAC2D70115968C91882343
:10119000F1F10330BCE71B0731F148F40115FCE71E
:1011A0001F0799F001302CE7120719F130C00B35F9
:1011B0003CE7130749F10C354CE71407E9F00A3511
:1011C0005CE7150721F581E020C00E945A238FEFCC
:1011D00094E3ACE081509040A040E1F700C00000F3
:1011E0000E94D129CBC26FEF7FEF80E090E00E9498
:1011F0007E300E947A2FC2C28091CB0282FB882768
:1012000080F991E0892701C080E00E949327D701EF
:1012100017968D919C9118970097C9F4D701159650
:101220008C9115970D911C91882349F0C8010E945B
:101230007B20D82E682FC8010E94D42004C0C8018A
:101240000E94B720D82EB8018D2D0E94E2250E9461
:101250001126182FD92EF701B580C680C2949FE0C1
:10126000C92280913B048770E9F0BB20D9F08D2D15
:10127000807F803451F080E2810F883098F0C11077
:1012800004C08D2D807E803269F08091CB0282FF78
:1012900009C082E00E947C2780913B048770AA24C9
:1012A000A3948111A12C9D2C92948FE09822892DDA
:1012B00090E08C30910508F00CC2FC01E158FF4F22
:1012C0000C94B0300D2D0F708D2D807F11F0029594
:1012D000007FBB20A9F0002309F4DBC180E2810F6D
:1012E000883010F0111104C0802F0E946F2705C0B4
:1012F00080916C04082B00936C040E94DB27C9C109
:10130000812F0E94F423002309F4E3C180E2810FBE
:10131000883058F1112349F1802F0E94612728C09D
:101320000D2D0F708D2D807F803211F00295007F82
:10133000112321F0113009F469C074C08091CB02EF
:1013400082FD19C0BB2059F0002329F0802F0E9494
:101350006F270E94DB2780E00E940F24BAC180E043
:101360000E94F423002309F4B4C1802F0E9468274F
:101370000E94DB27AEC1BB2081F1CC2009F473C0F1
:10138000F1E0CF1212C0809146048023081709F4BF
:10139000A0C10E94232A9093450480934404809125
:1013A0004604082B0093460494C1809109038230BF
:1013B00008F48FC1C8128DC1802F0E94ED23802FA9
:1013C0000E944C2780913804902F9823091709F424
:1013D00080C1082B009338047CC1CC2069F0809137
:1013E0000903823008F475C121E0C21272C18091F4
:1013F000CC02802309F46DC1802F0E94E623802F48
:101400000E944C27802F0E94312863C180910F03D6
:10141000BB2021F08C1508F45CC125C0C81608F06B
:1014200058C127C0BB2019F1CC20E9F020E0D7013A
:101430004C9111965C91119712966C91129713969C
:101440007C91139714968C91149715969C910E94F9
:10145000072D80910A0381FD1CC1F701868180FF61
:1014600018C18F708683802F0E94ED2332C1C11076
:1014700019C1802F0E94E6232CC18D2D8370A1F508
:10148000B1102BC1412F429546954770440F440F30
:10149000212F2F7030E0C901042E01C0880F0A945B
:1014A000EAF714FF08C02FE030E001C0220F4A9590
:1014B000EAF7209501C020E03D2D36953695337032
:1014C000323069F040F440913C01313019F0822B08
:1014D000842302C0842B822B0E942D21FEC0282B46
:1014E00080913C018227F8CFBB2019F08D2D8170AF
:1014F00001C08695882309F4F0C0412F4295469596
:101500004770440F440F212F2F7030E0C901042E83
:1015100001C0880F0A94EAF714FF08C02FE030E0FA
:1015200001C0220F4A95EAF7209501C020E03D2D29
:10153000369536953370323051F070F440913D015C
:10154000313019F0822B842308C0842B05C0282B4E
:1015500080913D01822701C0822B0E94EF20BDC0F7
:101560000D2D0F70BB2039F0802F0E942121812F7B
:101570000E94ED23B2C0812F0E94E623802F0E949B
:101580001421ABC0123F11F128F4103F41F0113F7C
:10159000A9F17BC0133F01F1143F61F176C0809146
:1015A0000F03BB2021F0C81608F093C003C08C15B0
:1015B00008F48FC02D2D2F7181E090E001C0880FBD
:1015C0002A95EAF790913D01892711C08D2D8F71E1
:1015D000BB2009F462C079C0BB2041F081E09D2DA1
:1015E0009F7101C0880F9A95EAF701C080E00E94C0
:1015F000EF206FC08091CB0282FD06C08D2D8F71D0
:10160000BB2009F462C049C080910903823038F1DF
:10161000BB20B9F090913B049770943039F40E944C
:1016200075278D2D8F710E94142152C0C81608F0A5
:101630004FC00D2D0F71802F0E94212163E0802F5C
:1016400007C0C81640F00E94752764E08D2D8F7189
:101650000E94AA273DC081E00E947C2739C0BB20A0
:1016600051F00D2D0F71802F0E94212163E0802FFA
:101670000E94AA272EC081E00E947C27F1E0FC1581
:1016800040F582E00E947C2724C0BB2049F0CC209A
:1016900011F0812F61CE8D2D8F710E94212119C0F3
:1016A000CC2089F0193329F480910D0390910E0319
:1016B00004C080910B0390910C030E946117812F4D
:1016C0000E94F42306C08D2D8F710E94142101C049
:1016D000A12C88EF890D843010F40E947F2A812F7D
:1016E0009D2D0E943021811105C010923801109269
:1016F000370128C0BB2019F0C110F7CF23C0C1109B
:10170000F4CF20E0D7014C9111965C91119712967D
:101710006C91129713967C91139714968C91149751
:1017200015969C910E94072D80910A0383FFDDCFBF
:1017300080913701909138010297B9F6812F0E946C
:101740003F24D3CFAA20A9F080913B0480FD11C093
:10175000F70115828695869586950E942121C701FD
:101760000E94900280913B048695869586950E9402
:10177000142160E0C7010E942C2D0FC080913B0412
:10178000877059F0F7018581882339F08091CB0269
:1017900082FF03C082E00E947C272C96E2E10C9439
:1017A000D930A1E5B0E0E7EDFBE00C94BD3085B7A2
:1017B000806885BF85B7806885BF84B7877F84BF11
:1017C0000FB6F894A89580916000886180936000BE
:1017D000109260000FBE90E080E80FB6F8948093FE
:1017E0006100909361000FBE82E694E29093330112
:1017F000809332010E9451190E94EF180E947B18B9
:101800000E941F180E94A21E0E94C11E8091E20029
:1018100084608093E20078948091D2038823A1F0C1
:101820001091E9001F709091EC00892F817090FD5C
:1018300080E8182B1092E9008091E80083FD0E9457
:101840008B1B1F701093E90082E084BD93E095BD6F
:101850009AEF97BD80936E000E941030811102C0F4
:101860000E94CF1A81E080934F0186988E9A8598C6
:101870008D9A8FE891E00197F1F700C00000309158
:101880004F01E0E5F1E020E0231769F08FB186FB1E
:10189000882780F97D9B02C092E001C090E0892BEF
:1018A00081932F5FF1CF46E151E0A2E2B1E001E088
:1018B00010E020E030E0FA01E20FF31F80818F3F5B
:1018C000A1F0E82FE295EF70F0E061A18F70780150
:1018D00002C0EE0CFF1C8A95E2F7C7019E2D909581
:1018E000962391A392A1892B82A32F5F3F4F24308F
:1018F000310509F74C5F5F4FA417B507D1F683E0B8
:10190000E6E5F1E0DF01E82E1D92EA94E9F7E9E36C
:10191000F1E0DF011D928A95E9F780E090E00E94F6
:101920004A30863E9E4F21F40E941030811167C0DC
:1019300066EE7EEF80E090E00E947E3060E082E024
:1019400090E00E94603060E083E090E00E946030B0
:1019500010923C0160E074E184E090E00E947E30EF
:1019600060E086E090E00E9460306FEF87E090E0FA
:101970000E94603040E050E0BA0188E090E00E94B0
:10198000723060E084E290E00E94603060E087E1C5
:1019900090E00E94603060E08CE090E00E94603057
:1019A00060E08DE090E00E94603019821A821B8214
:1019B0001C821D821E821F82188648E050E068E16A
:1019C00070E0CE0101960E94503040E050E0BA0134
:1019D00080E290E00E94723080E00E94F12F0E942D
:1019E000CF1A40E050E0BA018FE090E00E947230E0
:1019F00040E050E0BA0183E190E00E94723082E062
:101A000090E00E94423080933E0184E090E00E948A
:101A10004A309093CB028093CA020E944F25EFEF89
:101A2000F6E721E0E150F0402040E1F700C000007F
:101A30000E944F258091560180FF08C06FEF7FEF15
:101A400080E090E00E947E300E94D12983E090E007
:101A50000E9442300E942D2181E091E09093700419
:101A600080936F0468E1262E312C8091D20385305B
:101A700009F046C050E4F52E00E112E18091D20356
:101A8000853009F039C08091D203843009F1109279
:101A900071040FB6F894A895209260000FBEF092E2
:101AA000600083B7817F846083BF83B7816083BF19
:101AB0007894889583B78E7F83BF0FB6F894A895E6
:101AC00080916000886180936000109260000FBE7A
:101AD0008091D103882391F20E944F258091560175
:101AE000811167C680915701811163C680915801A9
:101AF000882309F4C3CF5DC60E945A230E947F2A1F
:101B00000E944F253FE3E32E31E0F32E46E5A42E5D
:101B100041E0B42E22E431E0D501F70191918D919D
:101B200089272E173F0719F08823C1F305C08111BB
:101B300003C00E94092747C010E088248394D50180
:101B40009D905D01F701C080C924A1F100E0DD2472
:101B5000D3948C2D8D2141F12D960FAF2D972E967C
:101B60001FAF2E970E94232A60969FAF8EAF60977B
:101B700061968FAE619791E0892D8D2109F490E0F7
:101B800062969FAF62972D964FAD2D972E965FADC3
:101B90002E972F966FAD2F9760967FAD60976196C9
:101BA0008FAD61970E943B2D0F5FDD0C043089F6ED
:101BB000D7019C921F5FBFEFEB1AFB0A133009F0AD
:101BC000BECF0E94172A8091650490916604892BEC
:101BD00009F43EC040915A0450915B0460915C044A
:101BE00070915D042FB7F894809172049091730402
:101BF000A0917404B09175042FBF841B950BA60BA4
:101C0000B70B40915604509157046091580470915D
:101C1000590484179507A607B707D0F0809165048B
:101C2000909166040E94D72F10926604109265046A
:101C300010925A0410925B0410925C0410925D049E
:101C4000109256041092570410925804109259049E
:101C500080916D0490916E04892B61F18091420115
:101C6000909143010E94082A8C01BE01655D7F4F5F
:101C700089E0FB0111928A95E9F780916D049091BA
:101C80006E040E94331980179107A0F480916D04AF
:101C900090916E04992724E0880F991F2A95E1F707
:101CA000FC01EC58FE4F208122FD04C081599E4F5B
:101CB0000E94AB2A80910C01882341F18091C303DB
:101CC0009091C403009711F10E94082A20911503F6
:101CD0003091160328173907C8F49091C1038091F9
:101CE000C203981759F00E94991610921603109289
:101CF00015031092C4031092C30308C00E942F164C
:101D00001092C4031092C3030E94791680910803B5
:101D100080FF1EC080910B0182FF1AC00E94232AFF
:101D20002091110330911203AC01421B530B2091FF
:101D3000090130910A014217530750F024E431E0C1
:101D400041E0BC0180911303909114030E946C1731
:101D500010E000E0A2E09A2EB4E0CB2ED12C8DEF63
:101D6000882E772473949CEF692E80914F01181769
:101D700008F0ABC0A12EB12CEFB1E6FBEE27E0F9E5
:101D80007D9B02C092E001C090E08E2F892BD5018F
:101D9000A05BBE4FEC912E2F237030E0482F082E11
:101DA000000C550B2417350709F48DC0EE0FEE0F0C
:101DB000E82BEC93EF70F0E0EE5DFE4F9501225BB7
:101DC0003E4F79019081D9018C91890F8C93843099
:101DD0000CF442C0F501E35BFE4F80818F5F80838E
:101DE0000E94232A21961FAF219722966FAE229739
:101DF000682F23968FAF239724969FAF2497F3E005
:101E00005F2E25965FAE259726967FAE2697412FAB
:101E10005CEF792F83E091E00E943B2D0E94232A02
:101E200027961FAF279728966FAE2897682F299679
:101E30008FAF29972A969FAF2A972B965FAE2B9745
:101E40002C961FAE2C97412F5CEF792F83E090E00A
:101E50000E943B2D21E001C020E0F70180818D3FF1
:101E60003CF5F501E35BFE4F8081815080830E9449
:101E7000232A1CAB8DAA682F8EAB9FAB98AE79AE90
:101E8000412F5DEF792F82E091E00E943B2D0E946F
:101E9000232A1AAF8BAE682F8CAF9DAF9EAE1FAEBC
:101EA000412F5DEF792F82E090E00E943B2D21E0F1
:101EB000D7018C91082E000C990BB6010E949C3022
:101EC000F7018083022B1F5F50CF01110E94172A58
:101ED0000E947F2A90915101891721F0809351012E
:101EE0000E94172A8091D203843009F0BECD83E08E
:101EF0008093E9008091E80082FFB7CD8091E800EF
:101F000085FF22C00E94F31F81111CC000E210E077
:101F10009E012F5F3F4F790108C08091F100D701EA
:101F20008D937D010150110969F08091E80085FDD4
:101F3000F4CF8091E8008B778093E8000E94F31F34
:101F4000882399F391E001C090E08091E8008B77BD
:101F50008093E800992309F488CD009159011091EC
:101F60005A0189810115110561F08E3F09F018C4ED
:101F70008A81833008F4B8C18550833008F010C4DA
:101F8000B3C18B3009F495C110F5853009F46CC0EC
:101F9000B0F48230D9F130F4813009F0FFC31A82F5
:101FA00089E02EC3833009F452C0843009F0F6C3AF
:101FB0004C816B818A810E94D3159D8317C4873021
:101FC00009F4ECC308F0EAC30E94342CE9C3803161
:101FD00009F4B1C078F48D3009F453C008F44FC04F
:101FE000FE0131967F018E3009F44FC08F3009F425
:101FF00075C0D4C3823109F4A4C008F49FC08331F2
:1020000009F4CAC08E3F09F46FC1C8C38A81823007
:1020100009F4E5C3833051F0813009F0BFC30E9459
:10202000172A9B838C837D836E83BAC3809154046B
:1020300090915504892B09F4B3C3809156018B8389
:10204000809157018C83809158018D83A9C38A8127
:10205000823009F0A3C36B817C818D819E810E94B7
:10206000B6300E94CA1A9CC32D813E813227232795
:1020700032274C816B818A810E94AC1591C380E12B
:102080005EC082E08A8383E5BBC20A811B81102780
:1020900001271027AC80B12CFDE1AF16B10408F088
:1020A0007FC36701C80183559E4F96012E193F09D2
:1020B0002A153B0508F074C3033522E0120730F4FB
:1020C0000E944230D60114968C9302C0F60114820D
:1020D0000F5F1F4FFFEFCF1ADF0AE4CF8091540448
:1020E00090915504892B09F45BC30A811B81102749
:1020F00001271027CC80D12C2DE1C216D10408F085
:102100004FC35F01C80183559E4F95012E193F09AA
:102110002C153D0508F044C3033532E0130728F4BD
:10212000D50114966C910E9460300F5F1F4FBFEF76
:10213000AB1ABB0AE7CF0E94242C32C384E08A8307
:102140002FC30A811B81102701271027CC80D12C97
:10215000EDE1CE16D10408F023C39E012F5F3F4F5F
:1021600059017901C801899697012A193B092C1553
:102170003D0508F015C30036110530F40E944230C9
:10218000D70114968C9302C0F70114820F5F1F4F82
:10219000FFEFEF1AFF0AE6CF0A811B811027012704
:1021A0001027CC80D12C2DE1C216D10408F0F8C242
:1021B0000036110508F0F4C280E690E0801B910B18
:1021C0008C159D0508F4ECC2380139E2630E711CD0
:1021D0008091540490915504DE0111965D01892B84
:1021E00011F075015DC000FF0FC0C80188960E9404
:1021F000423090E0982F88272D81822B81159C47B3
:1022000031F48FEF8D8303C0E12CF12C03C0EE2459
:10221000E394F12CC601800F911F460180FF1BC083
:10222000E1E08E1A910855E0452E512C4C0E5D1EB2
:10223000480C591CC3018C0D9D1D0E944230D201D7
:102240002C9130E0322F2227282B21153C4719F4FE
:102250008FEFF2018083F501EE0DFF1D2FEFCF010F
:102260008A199B098815990508F0BBCF848190E0F5
:10227000982F88273581832B81159C4711F424835F
:1022800025833296ECCF0036110528F4D701149639
:102290006C910E9460300F5F1F4FBFEFEB1AFB0A7B
:1022A000C801899697012A193B092C153D0558F359
:1022B00077C28091540490915504892B09F470C21F
:1022C00040E250E0BE016F5F7F4F82E00E947F29B5
:1022D000EFEFF1EE24E0E150F0402040E1F700C0E4
:1022E00000000E94D1295CC2EA818E2F90E08E30DE
:1022F000910508F055C2FC01E557FF4F0C94B03032
:1023000088E0EEE0F1E0DE01919601900D928A9571
:10231000E1F7FE01319680E2DF011D928A95E9F72F
:1023200086E0898388E0B096DE0115960DC284EFC1
:1023300089831A821B821C8233C28C8190E0982F81
:1023400088272B81820F911D092E000CAA0BBB0B35
:1023500035E0880F991FAA1FBB1F3A95D1F7AC0132
:10236000BD01405E5F4F6F4F7F4F481759076A07A7
:102370007B0708F415C2843F9105A105B10508F05B
:102380000FC2453F51056105710520F044EF50E053
:1023900060E070E0481B590BBC016C5A7E4FCE01C7
:1023A00001960E942930FCC11B810C8140E0602F06
:1023B000812F0E94781599838A8341E0602F812FB5
:1023C0000E9478159B838C83EBC18E819F81982717
:1023D000892798270E94BA1A41E02D81211101C056
:1023E00040E09C016C818B810E944B15D9C140E279
:1023F00050E06FEF70E0CE0101960E941E31809197
:10240000540489830A8381E08B838C8382E08D83EB
:1024100083E0ECC181E090E090935A0180935901F0
:1024200082E390E090935501809354010E94232A07
:102430009093530180935201B3C1012BB9F11091D4
:102440005701169511708091580183FB882780F9F8
:10245000182380915201909153010E94082A8536D9
:102460009105F0F01123E1F00E94232A909353018B
:10247000809352018091540190915501019790935E
:10248000550180935401892B89F410925A011092BE
:10249000590181E090E0909355048093540406C064
:1024A00082E390E09093550180935401809154040D
:1024B0008983809159018A8380915401A1C010922F
:1024C0005504109254046CC10B811C8140E250E011
:1024D0006FEF70E0CE0101960E941E3128E432E0D9
:1024E000A8EDB2E080E090E0AC014E5F5F4F41327A
:1024F000510508F055C1F901659174910617170748
:1025000048F4E1E0F0E0EC0FFD1FE80FF91F7183E4
:102510006083CA01245F3F4FA217B30729F740C168
:102520004B815C8128ED32E088E492E0FC0165910A
:1025300074914617570729F00C9628173907B1F7F9
:102540002DC1009709F42AC1FC01369625913491DA
:102550002115310509F422C14FE150E0BE016E5F43
:102560007F4FF90109951BC12B813C8188ED92E0D9
:1025700008E412E0F801459154912417350731F031
:10258000045F1F4F80179107A9F708C101151105B6
:1025900009F404C1F80138962591349121153105CB
:1025A00009F4FCC04CE150E0BE016B5F7F4FC801F5
:1025B000F9010995009709F0F2C0F8013A96859162
:1025C0009491009711F0FC01099580E0E8C00E9409
:1025D0004518E6C0EB818E2F90E08730910508F01A
:1025E000DFC0FC01E756FF4F0C94B030FE0131967E
:1025F00080E2DF011D928A95E9F788E089838A836A
:102600008B83CEC08C811AE07E01B1E2EB0EF11C0F
:10261000F701212F11922A95E9F7B7010E94F22CB8
:102620008983F701DE01129601900D921A95E1F768
:10263000B7C01C818AE0FE013596DE0191960190BB
:102640000D928A95E1F789A19AA10E94BA1A9AA3DC
:1026500089A38BA19CA10E94BA1A9CA38BA38DA1D4
:102660009EA10E94BA1A9EA38DA38FA198A50E9435
:10267000BA1A98A78FA3183070F43AE0139FB001EC
:10268000112463547F4F4AE050E0CE0181960E94AE
:10269000843080E001C08FEF89830E94511980C08F
:1026A0006C81CE0181962AE0DC011D922A95E9F722
:1026B000683008F042C0BAE06B9FB0011124635F3C
:1026C0007E4F35C01C818AE0FE013596DE01919671
:1026D00001900D928A95E1F789A59AA50E94BA1AF0
:1026E0009AA789A7183070F4EAE01E9FB001112460
:1026F000635F7E4F4AE050E0CE0181960E948430B5
:1027000080E001C08FEF89830E94EF1849C06C817F
:10271000CE0181962AE0DC011D922A95E9F7683006
:1027200060F4BAE06B9FB0011124635A7E4F4AE017
:1027300050E00E94323080E001C08FEF89838AE050
:10274000FE01B196DE01129601900D928A95E1F795
:1027500027C01C818AE0FE013596DE01919601902A
:102760000D928A95E1F78BA19CA10E94BA1A9CA3B5
:102770008BA3183070F4EAE01E9FB0011124635A55
:102780007E4F4AE050E0CE0181960E94843080E086
:1027900001C08FEF89830E947B1802C08FEF89836D
:1027A00040E250E0BE016F5F7F4F82E00E947F29D0
:1027B0005CC909BD19BD09B400FEFDCF8091D800E8
:1027C0008F7D8093D8008091E00082608093E0004C
:1027D0008091E00081FDFCCF0E945A234FC988E21E
:1027E00090E00E9442301B821C821D828E83D8CFD3
:1027F000A0E0B0E0EEEFF3E10C94C53044305105B9
:1028000008F46CC04091CA0241FBCC24C0F8D12C22
:10281000CC0CDD1C42FB882780F9C82FE0E0DE2FBE
:10282000CC0FDD1FCC0FDD1FCC2ADD2A40FBEE24B0
:10283000E0F8F12CEC28FD2843FBAA27A0F9B0E032
:1028400023E0AA0FBB1F2A95E1F7EA2AFB2A44FBE3
:10285000EE27E0F9F0E034E0EE0FFF1F3A95E1F7E4
:10286000EE29FF2945FB222720F930E055E0220F11
:10287000331F5A95E1F72E2B3F2B46FB882780F913
:1028800090E0E6E0880F991FEA95E1F7822B932B01
:1028900047FB442740F950E05695542F442757955D
:1028A0004795842B952B2091CB02322F3170132F1B
:1028B00000E0082B192B26952170B22EBB0CA12C01
:1028C0000A291B29012E000C220B330BFB0100836C
:1028D00011832283338380E090E002C08FEF9FEF6B
:1028E000CDB7DEB7EAE00C94E1308091ED02909133
:1028F000EE0290930A018093090108950F931F93AC
:10290000CF93DF930DEE12E0C9E9D0E0CE010E9433
:102910004230F80161918F01681719F0CE010E94D1
:1029200060302196CD3BD10589F7DF91CF911F9182
:102930000F910895CF92DF92EF92FF9244305105AC
:1029400008F471C0FB01C080D180E280F3800E9456
:102950005A238091CA02C0FA80F9B701A601769580
:1029600067955795479540FB81F9B701A60122E08D
:1029700076956795579547952A95D1F740FB82F94B
:10298000B701A60133E076956795579547953A9537
:10299000D1F740FB83F9B701A601E4E0769567958E
:1029A00057954795EA95D1F740FB84F9B701A60101
:1029B000F5E07695679557954795FA95D1F740FBE1
:1029C00085F9B701A601A6E07695679557954795D5
:1029D000AA95D1F740FB86F9B701A601B7E0769535
:1029E000679557954795BA95D1F740FB87F980933E
:1029F000CA028091CB02D0FA80F999E0F694E7946C
:102A0000D794C7949A95D1F7C0FA81F98093CB02F5
:102A10006091CA027091CB0284E090E00E947E3007
:102A200080E090E002C08FEF9FEFFF90EF90DF908B
:102A3000CF900895DA019C012E5F3F4FF901459137
:102A40005491F90125913491A217B30758F0FC0174
:102A50003496859194910E9415310E947E1480E0F5
:102A600090E008958FEF9FEF08959C01CA01F9014E
:102A70003296459154918417950750F0CB01F90196
:102A80003496659174910E94153180E090E008952C
:102A90008FEF9FEF08950F931F93CF93DF938430B1
:102AA00010F5611120C094E0899FE0011124C757FF
:102AB000DF4F411103C082E090E002C080E090E06F
:102AC000632F022F142F8C0F9D1F0E946030111155
:102AD00003C083E090E002C081E090E0602F8C0FA3
:102AE0009D1F0E946030DF91CF911F910F9108953B
:102AF000FF920F931F93CF93DF93843030F56111D2
:102B000024C024E0829F8001112407571F4F4111E8
:102B100003C082E090E002C080E090E0F42E800FDD
:102B2000911F0E94423090E0D82FCC27F11003C0B3
:102B300083E090E002C081E090E0800F911F0E944E
:102B400042309E01282BC90102C080E090E0CDB741
:102B5000DEB7E5E00C94E6301F93CF93DF93962F1A
:102B60008430E8F46330D8F44430C8F4632F122F73
:102B7000C42FD0E0CC0FDD1F28E0929FC00DD11DE7
:102B8000112498E1899FC00DD11D1124CE01899691
:102B90000E946030612FCE018A960E946030DF91E2
:102BA000CF911F9108950F931F93CF93DF9384309C
:102BB00008F56330F8F44430E8F4C42FD0E0CC0FCB
:102BC000DD1F28E0629FC00DD11D112438E1839FD5
:102BD000C00DD11D1124CE0189960E94423090E093
:102BE000182F0027CE018A960E9442309801282B88
:102BF000C90102C080E090E0DF91CF911F910F9159
:102C00000895BC014091C1038091C203942F98178D
:102C100029F1292F30E0F901EE0FFF1FE754FC4F97
:102C20000190F081E02DE617F70799F487E0869F81
:102C3000F001879FF00D1124E85EFC4F81E0848352
:102C400094130CC02F5F3F4F237033272093C10391
:102C500008952F5F3F4F922F9370D9CF0895EF9231
:102C6000FF920F931F93CF93DF938091500388239C
:102C7000D9F1C09117038DE0F82E80915003C81749
:102C800078F5EE24E394EC0EE0921703D0E0FC9E7E
:102C9000F001FD9EF00D1124EF5AFC4F8481882332
:102CA000E9F087819085892B21F4818592850196B1
:102CB00059F40081118122813381448155816681DB
:102CC000778180850E946823FC9EF001FD9EF00DB7
:102CD0001124EF5AFC4F148210926C04CE2DCDCFEC
:102CE0001092500310921703CDB7DEB7E6E00C94B4
:102CF000E5301092160310921503E8E1F3E08581A8
:102D0000811102C014821682379683E0E035F807FD
:102D1000B1F708951092C4031092C30310920C01EE
:102D20008091C2038093C1030E9479160E942F16DE
:102D30000895A0E0B0E0EFE9F6E10C94BE30C09158
:102D4000C10397E0992E01E010E02DE0322E34E02F
:102D5000432E552453948091C203C81709F479C0B7
:102D6000D0E0FE01EE0FFF1FE754FC4F8081918100
:102D7000989ED001999EB00D1124A85EBC4F149668
:102D80002C911497211162C070905003E1E5F3E09B
:102D900020E030E0812C5D01271508F055C0E38468
:102DA000F484D501CD90DC906FEF7FEF612C462D40
:102DB00050E0DA01AA0FBB1FAC0DBD1D0D90BC91F8
:102DC000A02D109731F0EA16FB0609F4BA016394BE
:102DD000EECF6F3FBFEF7B0799F1D80102C0AA0F7A
:102DE000BB1F6A95E2F78A2AB801062C02C0660F5B
:102DF000771F0A94E2F7AB0141505109682D70E04A
:102E000046175707E1F4329EF001339EF00D11246E
:102E1000EF5AFC4F989ED001999EB00D1124A85EE8
:102E2000BC4F12962D913C91139730872783448293
:102E3000108211829287818715965C9205C0148258
:102E40002F5F3F4F3D96A8CF0E9401162196C37079
:102E500082CF0E942F160E947916CDB7DEB7E1E12E
:102E60000C94DA3080910B01877F80930B0182E014
:102E70000E94612780910B0184FF06C08F7E8093A2
:102E80000B0182E00E946F2780910B0185FF06C035
:102E90008F7D80930B0180E20E946F270E94DB27C9
:102EA0000895662329F020916C04226020936C041D
:102EB0009C0130522115304308F499270E94D72FE6
:102EC0000895009741F0EFE9FFE03197F1F700C076
:102ED00000000197F6CF0895A0E0B0E0E2E7F7E147
:102EE0000C94C5305C017B01C42E890180910B01DB
:102EF00082FF88C0C0911303D0911403CA15DB056B
:102F000021F0A114B10409F07DC080910B018B7FE9
:102F100080930B0181FD11C08091110390911203E8
:102F2000A701481B590B81E02091090130910A014A
:102F30004217530718F480E001C081E08170D82E59
:102F400080910B01D0FA81F980930B01FE01FF27DC
:102F500084E0F695E7958A95E1F79E012F70332777
:102F6000EE0FFF1FE353FD4F81E090E002C0880F9A
:102F7000991F2A95E2F7DD2029F020813181822BEB
:102F8000932B06C0809590952081318182239323D5
:102F9000918380838091CC0281FF08C080910B01D6
:102FA000806180930B0182E00E9468278091CC02AF
:102FB00085FF08C080910B01806280930B0180E245
:102FC0000E946827A8016D2DCE010E945117CC20C8
:102FD00031F08091080385FF02C086FF2BC08091ED
:102FE0000B0390910C030E94611780911303909141
:102FF00014039C0130522115304308F499270E9494
:10300000BD2F12C0C50190528115904318F4C5011F
:10301000992701C0C5010E94BD2F80911303909193
:103020001403A816B90611F40E943217F092120385
:10303000E0921103CDB7DEB7EAE00C94E1300F93D4
:103040001F93CF93DF930DEE12E0C9E9D0E0CE01DC
:103050000E944230F80181938F012196CD3BD1052A
:10306000B1F7C0E0D0E0FE01EE5AFD4F859194919A
:10307000009711F0FC0109952C96C039D10599F7FC
:10308000DF91CF911F910F910895EDEEF2E0128E36
:10309000138E8FEA90E09183808385E0848F28E807
:1030A00033E13383228322E330E0378B268B28EC15
:1030B00030E0318F208F158E178E168E20E530E090
:1030C00031A320A382A30E947E140E945A2310924F
:1030D000CB021092CA02EBECF2E080818460808324
:1030E0006091CA027091CB0284E090E00E947E3031
:1030F0000E941F180895AAE0B0E0E1E8F8E10C94FE
:10310000C33002E512E080E4C82E82E0D82E9DE5AF
:10311000E92EFF24F3942FE0922E3FE3A32E32E01A
:10312000B32E88248394F601019311936F014AE032
:1031300050E0B701CE0101960E943230F801892D8E
:1031400011928A95E9F789819A81F80191838083A8
:103150008F8182838D81838388858483898585831C
:103160008B819C819783868310868A8587FF03C025
:103170001686158603C0F801B686A58680FF02C0B4
:10318000F801808681FF04C0F801908592609087E5
:1031900082FF04C0F80190859460908783FF04C08B
:1031A000F80190859860908784FF04C0F8019085AD
:1031B0009061908785FF04C0F801808580628087D8
:1031C000015F1F4FFAE0EF0EF11C8DEAE81681E077
:1031D000F80609F0A8CF2A96ECE00C94DF30AAE0BC
:1031E000B0E0E5EFF8E10C94C73080E5EFEEF1E0F8
:1031F000DF011D928A95E9F788E3E8E1F3E0DF015A
:103200001D928A95E9F78FEEC82E81E0D82E7F01B6
:103210000DE011E0F701D182C0824AE050E0B80130
:10322000CE0101960E94323088E0FE013196D6012F
:1032300001900D928A95E1F789859A85D7011396B9
:103240009C938E931297BAE0CB0ED11CE7E0EE0E62
:10325000F11C065F1F4F0D35F1E01F07D9F62A96C6
:10326000E8E00C94E330AAE0B0E0E9E3F9E10C9483
:10327000CD309C0137552F3F310509F050F4BE0188
:103280006F5F7F4F0E94F22C892B19F489859A85F4
:1032900004C080910503909106032A96E2E00C9405
:1032A000E930EFE6F1E080E090E069E17AE140E4C6
:1032B0005AE12EE839E17783668351874087338767
:1032C000228797878687019670968830910599F7AF
:1032D0000895A6E0B0E0EFE6F9E10C94CD309093CC
:1032E0005C0180935B01811520E2920718F40E9433
:1032F000BD2F10C080EF89838A830E94232A8160BA
:10330000682F9C838B8349815A817C8181E090E086
:103310000E943B2D2696E2E00C94E9300F931F9318
:10332000CF93DF938C01EB0165E671E08C2F0E9457
:10333000F22C892B09F042C080910B0390910C0371
:103340000E946117DD27C35ADE4F8881F80112827F
:103350001882833079F048F4813041F1823071F580
:10336000809167019091680109C0843051F08530E7
:10337000E9F024C08091690190916A010097B1F051
:103380001BC080916B0190916C010097A9F4209172
:103390006501309166018091670190916801211566
:1033A000310541F0009741F4C90106C080916501E3
:1033B00090916601009711F00E946919DF91CF91F9
:1033C0001F910F910895A6E0B0E0E9EEF9E10C94A9
:1033D000CD3090935C0180935B01811520E29207D0
:1033E00018F40E94D72F10C080EF89838A830E942F
:1033F000232A8160682F9C838B8349815A817C8139
:1034000081E091E00E943B2D2696E2E00C94E930A9
:10341000CF93DF93EC010E94E31980910B0390910D
:103420000C030E946117CE010E946919DF91CF91B0
:1034300008950F931F93CF93DF938C01862F65E63A
:1034400071E00E94F22C892BB1F4C0916501D091FA
:103450006601209781F0F8018281833039F4CE0132
:103460000E94081ACE010E94081A02C0843018F087
:10347000CE010E94081ADF91CF911F910F910895FC
:103480000F931F93CF93DF938C01EB0165E671E0FF
:103490008C2F0E94F22C892B09F067C0DD27F801E0
:1034A0008281813039F4958192FD13C090FF11C063
:1034B00082E00FC0823041F4F801858182FD06C0B0
:1034C00080FD06C083E005C086E003C085E001C042
:1034D00084E0C35ADE4F88838330B1F028F4813012
:1034E00071F0823031F041C08430A9F0853079F13B
:1034F0003CC080916701909168010097A1F580918F
:1035000065019091660120C08091690190916A01E6
:103510000097E9F028C080916B0190916C010097B1
:1035200011F58091650190916601009749F00E9424
:10353000081A8091670190916801009781F013C08B
:103540008091670190916801009779F00CC080919B
:10355000650190916601009741F00E94081A8091E0
:103560006501909166010E94E319DF91CF911F914F
:103570000F91089581152CE7920759F48091540416
:1035800090915504892B19F480E090E0089580E033
:103590009CE7089588E290E00E946030089580E002
:1035A0000E94F12F60E070E0CB010E94CA1A0E94D5
:1035B000342C0E94242C81E00E94F12F0895A0E079
:1035C000B0E0E5EEFAE10C94C530EC018AE0A82EFB
:1035D0002881222309F49AC0213009F041C0898151
:1035E000813039F48E010E5F1F4F8A810E943F2483
:1035F00008C0823041F48E010E5F1F4F8A810E9405
:103600000F24E80181C0833039F48E010E5F1F4F13
:103610008A810E94F423F5CF843011F0219674C082
:103620002A81229680E090E030E0205331092A3050
:10363000310558F4A89EA001A99E500D1124C9017E
:10364000840F951F21962881EFCF009709F45CC065
:10365000EFE9FFE03197F1F700C000000197F5CFE7
:10366000E22FF0E0E25FFB4FB490822F86958695C3
:10367000869590E0FC01E250FC4FE4902770F12C1D
:10368000022E02C0F594E7940A94E2F7F1E0EF22EB
:10369000FF24FC01E251FC4FC490D12C022E02C049
:1036A000D594C7940A94E2F731E0C322DD24FC01EB
:1036B000E252FC4F049110E002C0159507952A953F
:1036C000E2F701701127E114F10419F081EE0E9474
:1036D0000F24C114D10419F086EE0E940F248B2D03
:1036E0000E943F24C114D10419F086EE0E94F423F5
:1036F000E114F10419F081EE0E94F4230115110583
:1037000019F08CE20E943F24219662CFCDB7DEB73C
:10371000EAE00C94E130AAE2B0E0E1E9FBE10C94CC
:10372000CC30E4EDF3E08091F100819323E0EC3DB7
:10373000F207C9F78091D503833009F461C030F4F2
:10374000813071F0823009F49BC0B2C08A3009F434
:1037500087C08B3009F46CC0893009F0A9C020C043
:103760008091D403813A09F0A3C08091E800877F5B
:103770008093E8008091D8039091D903892B21F49C
:1037800068E088EC93E003C060E080E090E070E0E7
:103790000E9421298091E8008B778093E80088C0FF
:1037A0008091D403813209F083C08091D803909135
:1037B000D903892B09F07CC08091E800877F809332
:1037C000E8008091E80082FD05C08091D20381115C
:1037D000F8CF6EC02091F3008091F20090E0922B20
:1037E000029731F48091F100813011F0863021F49C
:1037F0008091F1008093C7038091E8008B7754C0DB
:103800008091D403813A09F053C08091D8039091FC
:10381000D903892B09F04CC08091E800877F809301
:10382000E8008091E80080FFFCCF80910D0137C057
:103830008091D4038132E1F58091D8039091D9032E
:10384000892BB1F58091E800877F8093E8000E9482
:10385000CD288091D60380930D010E945A2328C061
:103860008091D403813221F58091E800877F809395
:10387000E8000E94CD288091D7038093C60318C02A
:103880008091D403813AA1F48091E800877F8093EE
:10389000E8008091E80080FFFCCF8091C603809310
:1038A000F1008091E8008E778093E8000E94CD2897
:1038B0008091E80083FFE0C18091D4039091D5030B
:1038C000492F50E04A30510508F0D6C1FA01E056C0
:1038D000FF4F0C94B030803821F0823809F0CCC111
:1038E00008C08091D0039091D103992389F0826020
:1038F0000FC08091D8038F70873008F0BDC18093CE
:10390000E9008091EB0085FB882780F91092E9009F
:103910009091E800977F9093E8008093F1001092D7
:10392000F10072C1282F2D7F09F0A6C1882319F05C
:10393000823061F0A1C18091D603813009F09CC131
:10394000933009F080E08093D1032EC08091D6039C
:1039500081112AC08091D8038F702FEF280F263055
:1039600008F08AC18093E9002091EB0020FF1CC081
:10397000933021F48091EB00806214C09091EB00B1
:1039800090619093EB0021E030E0A90102C0440F68
:10399000551F8A95E2F74093EA001092EA00809161
:1039A000EB0088608093EB001092E9008091E800C2
:1039B000877F2DC1811160C11091D6031F7780913F
:1039C000E3008078812B8093E3008091E800877F7B
:1039D0008093E8000E94CD288091E80080FFFCCF12
:1039E0008091E30080688093E300111102C082E0BF
:1039F00001C083E08093D2033FC18058823008F039
:103A00003BC18091D6039091D7038C3D53E095073D
:103A100079F583E08A838AE289834FB7F894DE01DF
:103A2000139620E03EE051E2E32FF0E05093570080
:103A3000E49120FF03C0E295EF703F5FEF708E2F9F
:103A400090E0EA3010F0C79601C0C0968D939D9328
:103A50002F5F243149F74FBF8091E800877F809323
:103A6000E8006AE270E0CE0101960E942129BAC006
:103A70004091D8035091D903292F332723303105A2
:103A8000B1F068F42130310509F405C12230310567
:103A900009F0F2C082E490E0EEE3F3E050C021329E
:103AA000310581F12232310509F439C0E5C0992789
:103AB00081309105B9F070F082309105D9F003970B
:103AC00009F0DAC0E2E9F3E0E4918E2F90E0E2E958
:103AD000F3E032C0EAEDF3E0E4918E2F90E0EAEDFE
:103AE000F3E02AC0EEECF3E0E4918E2F90E0EEECF0
:103AF000F3E022C0E0EBF3E0E4918E2F90E0E0EB06
:103B0000F3E01AC04115510509F4CAC0413051050E
:103B100009F0B2C089E090E0E9E6F3E010C0411599
:103B2000510509F4C2C04130510509F0A5C082E237
:103B300090E0E8EDF2E003C0009709F49DC0209109
:103B4000E800277F2093E8002091DA033091DB031F
:103B50008217930708F49C0140E02115310589F193
:103B60008091D203882309F43DC08530D9F180913A
:103B7000E80083FD37C08091E80082FD2FC080916E
:103B8000E80080FFEACF4091F3008091F20090E0DE
:103B9000942B2115310559F08830910540F444915A
:103BA0004093F1003196215031090196F2CF41E066
:103BB000089709F040E08091E8008E778093E80054
:103BC000CCCF4111CDCF0AC08091D203882351F0D0
:103BD000853041F08091E80083FD04C08091E800C9
:103BE00082FFF2CF8091E8008B778093E80044C099
:103BF000803809F041C08091E800877F8093E80019
:103C00008091D3038093F1008091E8008E778093B8
:103C1000E8000E94CD2830C081112EC08091D603CB
:103C20009091D703992702973CF58091E800877F10
:103C30008093E8001091D6031093D3030E94CD28FF
:103C4000111106C08091E30087FD02C081E001C030
:103C500084E08093D20342E061EC81E00E94EC2892
:103C600042E261EC82E00E94EC2842E260EC83E0F8
:103C70000E94EC288091D2038091E80083FF1AC053
:103C80008091E800877F8093E8008091EB0080625C
:103C90008093EB000FC082E190E0E0E8F3E04FCFCB
:103CA00089E090E0E0E5F3E04ACF84E490E0EAEFD9
:103CB000F2E045CFAA96E3E00C94E8301F920F9211
:103CC0000FB60F9211242F933F934F935F936F93EF
:103CD0007F938F939F93AF93BF93CF93DF93EF9394
:103CE000FF93C091E900CF708091EC00D82FD17084
:103CF00080FDD0E81092E9008091F000877F8093EA
:103D0000F00078940E948B1B1092E9008091F000E3
:103D100088608093F000CD2BCF70C093E900FF91B5
:103D2000EF91DF91CF91BF91AF919F918F917F9153
:103D30006F915F914F913F912F910F900FBE0F9018
:103D40001F901895E8EDF0E080818E7F80831092BF
:103D5000E2001092DA001092E100A0EEB0E08C9147
:103D600081608C9380818F77808319BCA7EDB0E050
:103D70008C918E7F8C9380818F7E80831092C5037F
:103D80000895A0E0B0E0E7ECFEE10C94C730C8ED88
:103D9000D0E088818F7E8883E7EDF0E080818160CC
:103DA000808384E082BF81E08093C50388818E7F19
:103DB000888302EE10E0F80110821092DA0081EEA2
:103DC000C82ED12CF601108288818F778883888154
:103DD0008068888388818F7D888319BC1092D20384
:103DE0001092D3031092D1031092D00390EEE92EDB
:103DF000F12CF70180818B7F8083888181608883AB
:103E000042E060E080E00E94EC28F60180818E7F35
:103E10008083F801808181608083808188608083D5
:103E2000F70180818E7F8083888180618883CDB710
:103E3000DEB7E8E00C94E3301F920F920FB60F92BA
:103E400011242F933F934F935F936F937F938F939F
:103E50009F93AF93BF93EF93FF938091E10082FF15
:103E600009C08091E20082FF05C08091E1008B7F54
:103E70008093E1008091DA0080FF2AC08091D80011
:103E800080FF26C08091DA008E7F8093DA008091D7
:103E9000D90080FF18C080E189BD82E189BD09B4E5
:103EA00000FEFDCF81E08093D2038091C503811194
:103EB0000FC00E94A21E0E94C11E8091E200846079
:103EC0008093E20005C019BC1092D2031092C50382
:103ED0008091E10080FF17C08091E20080FF13C055
:103EE0008091E2008E7F8093E2008091E200806109
:103EF0008093E2008091D80080628093D80019BC42
:103F000085E08093D2038091E10084FF30C08091EE
:103F1000E20084FF2CC080E189BD82E189BD09B443
:103F200000FEFDCF8091D8008F7D8093D8008091D6
:103F3000E1008F7E8093E1008091E2008F7E80938C
:103F4000E2008091E20081608093E2008091D303DF
:103F5000882311F084E007C08091E30087FD02C050
:103F600081E001C083E08093D2038091D2038091ED
:103F7000E10083FF27C08091E20083FF23C080918E
:103F8000E100877F8093E10082E08093D20310926A
:103F9000D3038091E1008E7F8093E1008091E20065
:103FA0008E7F8093E2008091E20080618093E20046
:103FB00042E060E080E00E94EC288091F0008860A0
:103FC0008093F000FF91EF91BF91AF919F918F91FE
:103FD0007F916F915F914F913F912F910F900FBE05
:103FE0000F901F9018952091E4003091E50095E620
:103FF0004091EC00842F817040FF23C08091E80045
:1040000080FD1DC08091D203882399F0853099F0FE
:104010008091EB0085FD11C04091E4005091E500D6
:104020002417350729F3915011F09A01E1CF84E06C
:10403000089582E0089583E0089581E0089580E086
:1040400008954091E80042FFDDCF08959B01782F4D
:10405000777043E0969587954A95E1F7FC01EE0F5E
:10406000FF1F8E0F9F1FF901E80FF91F40E050E07E
:1040700080E0219130E0072E02C0369527950A9402
:10408000E2F721703327042E01C0220F0A94EAF7C9
:10409000822B4F5F5F4F4330510559F70895962F9C
:1040A0009770A1E001C0AA0F9A95EAF793E0769580
:1040B00067959A95E1F7FB01EE0FFF1F6E0F7F1FCB
:1040C000FA01E60FF71F40E050E0682F70E09081A2
:1040D0009B01042E02C0369527950A94E2F72170C1
:1040E000219529272A23292721934F5F5F4F4330AA
:1040F000510569F70895CF92DF92FF920F931F93B6
:10410000CF93DF936C0100913D0180913C01082B1E
:10411000C3E0D0E010E0C8010C2E02C09595879551
:104120000A94E2F780FD04C02197A8F7F12C09C09A
:10413000FC2EB6018C2F0E94E2250E9411260197C9
:1041400099F38F2DDF91CF911F910F91FF90DF9009
:10415000CF900895CF93DF93EC010E947B20BE01A6
:104160000E94E2250E941126DF91CF910895903F91
:10417000C9F0933070F4843060F4282F30E06FED94
:1041800073E0A901E4E09E9F400D511D1124CA0176
:1041900006C09C5F923030F46CED73E090E00E94BA
:1041A0002620089580E00895282F903FB9F0862FAB
:1041B000622F933058F4243048F470E024E0929F4A
:1041C000600D711D11244FED53E006C09C5F9230CD
:1041D00028F470E04CED53E00E944F200895809346
:1041E0003D01089590913D0121E030E0F90101C0C9
:1041F000EE0F8A95EAF7D90102C0AA0FBB1F6A9594
:10420000E2F7BD016E2B01C0220F4A95EAF7892F14
:104210008623681303C0892F822B03C02095822F29
:1042200089230E94EF20089521E030E001C0220F91
:104230008A95EAF7209580913D0182230E94EF2024
:10424000089521E030E001C0220F8A95EAF78091BD
:104250003D01822B0E94EF20089580933C01089538
:1042600092959F70963079F010F4925001C09A5058
:10427000923068F4803F69F018F4883E40F409C039
:10428000843F29F406C0883E20F0813F11F080E091
:10429000089581E00895FC012481222371F0878133
:1042A0009085009719F00E94112604C080819181A9
:1042B0000E94AA200E943021089580E00895A8E17C
:1042C000B0E0E5E6F1E20C94C0308C0186E0F80144
:1042D000DE01539601900D928A95E1F7D80114966C
:1042E0007C9014971596EC9085EEA82E83E0B82E5E
:1042F0008091E903811122C0772009F45BC0EE2090
:1043000009F455C0C8010E944B21F82E882309F4F6
:104310004EC089E0F801A5EEB3E001900D928A95B8
:10432000E1F78091E903813031F48091E5039091C8
:10433000E6030E94AA200E946528B7C1F8015080B8
:104340006180C280D38060E085EE93E00E942C2DD6
:10435000F090EA038091E7039091E8034601881A00
:10436000990A60E085EE93E0FF2009F426C10E94DF
:104370002C2D65EE73E00E9433198816990608F01B
:10438000C5C07720B9F08091EB03382F307F2091A2
:10439000E603D80111969C911197332371F02917E8
:1043A00009F473C0C8010E944B21811182C0C80169
:1043B0000E949002FF24F39478C129131FC020911A
:1043C000E5039C9129131AC04091EC035091ED0331
:1043D00017962D913C9118974217530779F4E110E5
:1043E0000DC08F7080618093EB0385EE93E00E9497
:1043F00090028091EB03F801868356C1E1103BC027
:1044000040E0662D852D0E943B28E82E882329F068
:1044100080910A0380FD3DC147C15B8A6C8A8B890C
:104420009C890E94AA20292F22952F70243020F4E5
:104430009F70223028F009C02A50223088F015C021
:10444000992351F0811108C014C0992329F0D80193
:1044500016969C91907F69F0805E883030F409C098
:10446000803F38F0815F833020F0C8010E949002C5
:10447000EF2CFE2C1AC18091EB0381608093EB033B
:1044800080910A0381FD10C104C12091E503F80168
:104490009081291387CF4091EC035091ED03278140
:1044A00030854217530709F07DCFE1107BCF86831B
:1044B000D0C0EE2009F47BCF2091EB03822F8295B0
:1044C0008F7090E00297BCF08091E5039091E60335
:1044D0009B878A87DD86CC868091E9038E871F863D
:1044E000288B8091EC039091ED039A8B898BCE0100
:1044F0000A960E94900289E0F801A5EEB3E00190CF
:104500000D928A95E1F70E94652854CF8091EB03C4
:10451000982F907F39F485EE93E00E94900289E015
:10452000D501BFC0772009F445CF2091E603F801FB
:10453000918129131AC02091E5039081291315C098
:104540004091EC035091ED032781308542175307CA
:1045500061F4E1100AC08683C8010E94900289E0DC
:10456000D5011D928A95E9F7A0C0C8010E944B2190
:10457000882309F41CCFEE2009F419CF2091EB0316
:10458000822F82958F7090E002970CF4B4CF8091C7
:10459000E5039091E6039A838983DC82CB82809144
:1045A000E9038D831E822F838091EC039091ED03AC
:1045B00099878887CE0101969CCF0E942C2D65EEAD
:1045C00073E00E9433198816990608F05CC07720C2
:1045D00009F4F0CEFE2CEE2009F4E9CE9091E6032A
:1045E000F8018181981341C09091E503808198136F
:1045F0003CC02091EC033091ED0387819085281712
:10460000390799F58091E7039091E803C81AD90A10
:10461000F8ECCF16D10400F58091EB0380FD1CC0AF
:1046200082958F70482F50E041155105A9F02091D7
:10463000EB03D80116962C9316974F30510549F08D
:104640008F5F982F9295907F822F8F70892B16966F
:104650008C93C8010E94900289E0F801A5EEB3E0B6
:1046600001900D928A95E1F720C0C8010E944B216C
:10467000811141CF8091EB0381608093EB03C801EE
:104680000E94900212C089E0F50111928A95E9F723
:104690000CC085EE93E00E949002E5EEF3E089E025
:1046A000DF011D928A95E9F7F12C8F2D6896EFE0D6
:1046B0000C94DC301092CC0286E0EEE4F4E0DF01F2
:1046C0001D928A95E9F710926C040E94DB270895E9
:1046D000A2E1B0E0EEE6F3E20C94CB300A871B8750
:1046E0002C873D874E875F87688B798B8A8BCE01BD
:1046F0000A960E945F2181113BC089E0FE013A9633
:10470000DE01119601900D928A95E1F76E85662380
:1047100079F12091EE0330E0C90101968770992765
:104720004091370450E084179507A1F06D8399E01C
:10473000929FD001939FB00D1124A151BC4FFE0157
:10474000319601900D929A95E1F78093EE030E94C5
:104750005B280EC00E945A231092EE031092370479
:10476000E5EEF3E089E0DF011D928A95E9F719C0D3
:1047700019E0809137049091EE03891791F0189F0A
:10478000C001112481519C4F0E945F21882349F070
:104790008091370490E001968770992780933704C1
:1047A000E8CF6296E4E00C94E730882321F00E9481
:1047B00061270E94DB270895882339F090916C04CB
:1047C000892B80936C040E94DB270895882321F0B5
:1047D0000E9468270E94DB270895882321F00E9409
:1047E0006F270E94DB2708958823C1F0682F8CEF84
:1047F000860F813A28F48CE494E00E94582A0CC079
:1048000080E2860F883050F4677081E001C0880F25
:104810006A95EAF70E9468270E94DB270895CF93E4
:10482000882359F1C82F8CEF8C0F813A78F4EEE48D
:10483000F4E08191C817C9F084E0E435F807C9F7BE
:104840006C2F8CE494E00E94652A0CC080E28C0FEF
:10485000883098F4C77081E001C0880FCA95EAF7E4
:104860000E946F270E94DB2708C06C2F8CE494E025
:104870000E94582A0E94DB27E3CFCF9108951F930F
:10488000CF93DF93182F893329F4C0910D03D09172
:104890000E0304C0C0910B03D0910C03812F0E9422
:1048A0000F24209741F08FE99FE00197F1F700C0B6
:1048B00000002197F6CF812F0E94F423DF91CF9142
:1048C0001F91089580E008959091CA0292FF10C050
:1048D00041E0282F2471243009F040E031E0282FF6
:1048E0002871283009F030E0431711F02CE08227BE
:1048F00093FF10C041E0282F2471243109F040E0DB
:1049000031E0282F2871283109F030E0431711F0E9
:104910002CE082273091CB0230FF10C051E0282FCD
:104920002171213009F050E041E0282F2871283012
:1049300009F040E0541711F029E0822731FF10C040
:1049400041E0282F2171213109F040E031E0282F8A
:104950002871283109F030E0431711F029E082274F
:1049600094FD877E08958238910569F1B0F4813312
:10497000910509F475C048F48932910509F467C0BE
:104980008A32910509F471C008958533910509F4BF
:1049900059C089339105B9F00895833E910589F195
:1049A00038F4803E9105D1F0823E910529F10895B9
:1049B000863E9105C9F1873E9105D9F1843E910566
:1049C00009F06CC027C02091CA0220FD57C021FD0C
:1049D00055C02091CB0223FD5BC008958091CA028F
:1049E00080FD48C08091CB0280FF48C08091CA0200
:1049F00084FD46C083EE51C08091CA0282FF3CC054
:104A0000F5CF8091CA0282FD37C08091CB0280FD34
:104A100035C0ECCF8091CB0281FF36C08091CA02B5
:104A200084FD2EC087EE39C08091CA0283FF2AC060
:104A3000F5CF8091CA0283FD25C08091CB0281FD14
:104A400023C0ECCF8091CA0285FD22C01FC0809197
:104A5000CA0285FD1BC08091CB0283FF19C00AC02A
:104A60008091CA0286FD16C017C08091CA0286FDD9
:104A700013C010C089E311C082EE0FC080EE0DC0DC
:104A800080E00BC086EE09C084EE07C085E305C058
:104A900089E203C08AE201C081E390E00895CF92E9
:104AA000DF92EF92FF921F93CF93DF9300D01F927C
:104AB000CDB7DEB719821A821B82CE0101966C0136
:104AC000E6E1F1E082E2E82E81E0F82EB60140E076
:104AD00050E010E031E0CF01840F951FDC012C91F4
:104AE0002F3F91F0822F82958F7090E0DC0190969D
:104AF0008C9190E02F7002C0959587952A95E2F7EA
:104B000080FD02C0832F02C080E090E0182B330F9D
:104B10004F5F5F4F44305105F1F6D6011D936D0193
:104B20003496EE16FF0699F643E050E089E391E0F3
:104B30000E940831892B91F089819A81AB81809301
:104B4000390190933A01A0933B0181E080934B049B
:104B50000E94232A90934A048093490480914B0435
:104B6000811102C080E023C08091490490914A04E1
:104B70000E94082A0597B0F343E050E069E371E032
:104B800086E591E00E940831892B71F0809139010E
:104B900090913A01A0913B01809356019093570167
:104BA000A093580181E001C080E010924B040F9067
:104BB0000F900F90DF91CF911F91FF90EF90DF90BA
:104BC000CF900895462F2091590130915A01232BFF
:104BD00029F5703F39F4603F09F580915B019091B0
:104BE0005C010895672F733038F44430B8F4843092
:104BF000A8F40E94D31508957D3F31F441110EC0F1
:104C0000843060F441E006C07C3F41F4411106C0AD
:104C1000843020F460E00E947815089580E090E0F0
:104C200008951F93CF93DF930E94B324EC01C11525
:104C300082E5D807C8F5C11590E5D90708F0BBC0D3
:104C4000C83ED105C0F4C03ED10508F0DDC0C53A6C
:104C5000D10550F4C430D10508F0D6C0219709F031
:104C6000D0C081E090E0D1C0CD3CD10508F4C9C0EE
:104C7000CE019065CAC0C11580E4D80708F05AC0BB
:104C8000C11590E2D90708F0AFC0C11581E0D8077F
:104C900008F4B7C08D2F0E946424182FCE019927E5
:104CA0000E94B3241F71ABC0C03892E5D90720F52C
:104CB000C03682E5D80708F061C0C03492E5D90754
:104CC00008F04AC0C03282E5D807F0F54C2F46956F
:104CD000469590E2499FA0011124C37021E030E085
:104CE000C90102C0880F991FCA95E2F7EA01C82BD3
:104CF000D92BCE019D6889C0C03C92E5D90768F4E4
:104D00008C2F8F71C03AD24508F04CC090E0D82F5C
:104D1000CC27CE01846F906A78C0C03E82E5D80768
:104D200008F06FC0CF71DD27DC2FCC27CE01806F5C
:104D3000906A6BC0CE0199270E94B324CC27DF7004
:104D4000D06A8C2B9D2B61C0CF71D0E0DC2FCC279B
:104D5000CE01816F906A59C08C2F8F718695869590
:104D600090E2899F90011124C37081E090E002C01D
:104D7000880F991FCA95E2F79C6811C08C2F8F711C
:104D80008695869590E2899F90011124C37081E0F9
:104D900090E002C0880F991FCA95E2F79A68822BAB
:104DA000932B33C00E9464248F7190E0D82FCC27BE
:104DB000CE0190622AC08C2F8F710E94642495E0EE
:104DC000D695C7959A95E1F7CF70D0E0DC2FCC2728
:104DD000282F30E084FF05C084E0220F331F8A951E
:104DE000E1F7D069CE01DBCF8D2F8F710E94642453
:104DF000182FCE0199270E94B3241F719062912B26
:104E000004C080E090E001C0CE01DF91CF911F91FE
:104E10000895A6E0B0E0EFE0F7E20C94CB300E94FA
:104E2000232A8C01809147049091480408171907A0
:104E300081F019821A820E94232A682F49815A819F
:104E4000792F80E090E00E943B2D1093480400935E
:104E500047042696E4E00C94E730809146048823CA
:104E600031F01092460410924504109244040895C3
:104E7000CF939091CB0292FF0DC09091460498176A
:104E800049F0C82F0E94232A90934504809344043C
:104E9000C0934604CF91089590914604292F28236A
:104EA00079F08095892380934604882319F00E9425
:104EB000232A02C080E090E090934504809344044C
:104EC0000895809590916C04892380936C040895D3
:104ED00080959091CC0289238093CC020895909183
:104EE000CC02892B8093CC02089510923B0410923F
:104EF0003A0410923904089590913B0480958923D7
:104F000080933B04282F277069F4981759F09091EB
:104F1000CB0292FF07C08695869586950E94142144
:104F20000E94752708959091CB0292FB222720F9C9
:104F3000281779F080FB92F99093CB026091CA0216
:104F40007091CB0284E090E00E947E3082E00E946B
:104F50007C2708959091CB0292FF10C098E0899F22
:104F600090011124262B20933B040E9421210E94B2
:104F7000232A90933A048093390408950E942121B2
:104F800008958091EF029091F002892B89F00E94A0
:104F9000232A2091440430914504AC01421B530B59
:104FA00081E02091EF023091F0024217530708F49C
:104FB00080E0817008959091CC0280916C04892BDF
:104FC00080934C0480914604882301F18091EF0284
:104FD0009091F002892B29F00E94C12781110E9433
:104FE0002D2790914C0480914604892B80934C048A
:104FF000EEE4F4E097E080E0915029F02191222343
:10500000D9F38F5FF9CF81110E942D27809162041F
:10501000809590914C04892390916304892B80930F
:105020004C0448E050E06CE374E08CE494E00E94AF
:105030000831892BA9F088E0ECE4F4E0ACE3B4E0BB
:1050400001900D928A95E1F7E0916F04F091700460
:10505000309731F00280F381E02D8CE494E00995E3
:10506000089590913804292F282321F080959823C2
:10507000909338040895209137049091EE0359E0FD
:105080002917A9F030E0529FF001539FF00D112431
:10509000E151FC4F7181761306C07081781303C013
:1050A0007581741306C02F5F3F4F2770E9CF80E0F2
:1050B000089581E00895809137049091EE03891757
:1050C00019F08F5F8770FBCF0895A0E0B0E0EBE6AA
:1050D000F8E20C94C8308091EB0382958F7009F050
:1050E00052C08091EA03882309F44DC0C09137046F
:1050F00089E0D82E8091EE03C81709F444C0D0E0AF
:10510000DC9E8001DD9E100D1124F801E151FC4F61
:1051100084818823A9F191818091E603981330C09E
:1051200090818091E50398132BC08581811128C05F
:10513000E280F3808091E7039091E803E81AF90A8E
:1051400060E085EE93E00E942C2D65EE73E00E94F6
:105150003319E816F906A0F48091EB038F70806193
:105160008093EB03F801EB50FC4F80818F708061DE
:10517000808385EE93E00E9490020E945B2803C02A
:105180002196C770B7CFCDB7DEB7E7E00C94E43017
:10519000089508958091C70308958091D40387FFEF
:1051A00011C08091E80082FD05C08091D203811179
:1051B000F8CF11C08091E8008B770BC08091D203AB
:1051C000882349F08091E80080FFF8CF8091E800C3
:1051D0008E778093E8000895982F973068F5909324
:1051E000E900981739F07091EC002091ED00509192
:1051F000F00003C0242F762F50E021FD02C09F5FF6
:10520000ECCF3091EB003E7F3093EB003091ED001E
:105210003D7F3093ED003091EB0031603093EB0037
:105220007093EC002093ED005093F0002091EE007D
:1052300027FDE5CF80E008958F708093E90081E03D
:1052400008952091DA033091DB032617370748F0E1
:105250006115710539F42091E8002E772093E8005C
:1052600001C0B901FC0120E06115710579F180915F
:10527000D2038823F1F18530F1F18091E80083FDBC
:105280003CC08091E80082FD2EC08091E80080FF44
:10529000EBCF2091F3008091F20090E0922B61150A
:1052A000710551F08830910538F421912093F10077
:1052B000615071090196F3CF21E0089709F020E0D1
:1052C0008091E8008E778093E800CECF2111CFCF78
:1052D0000AC08091D203882361F0853061F080910B
:1052E000E80083FD0AC08091E80082FFF2CF80E0F1
:1052F000089582E0089583E0089581E008950F9372
:105300001F93CF93DF938B01EA019091D2039430E6
:1053100079F58F708093E9008FEF9091E8008150CC
:1053200095FD06C095ED9A95F1F700008111F5CF36
:105330008091E80085FF1CC00E94F31F882361F064
:105340008091E8008E778093E80012C0F801819187
:105350008F018093F1002197209791F38091E800CD
:1053600085FDF4CF8091E8008E778093E800E4CF4C
:10537000DF91CF911F910F910895CF93DF93EC01AF
:1053800048E050E0BC0181E00E947F2988E0FE01F6
:10539000A8ECB3E001900D928A95E1F7DF91CF91EF
:1053A000089587E797E790930108809300089AE0B3
:1053B00088E10FB6F894A895809360000FBE909393
:1053C0006000FFCF78941F920F920FB60F921124B6
:1053D0008F939F93AF93BF938091720490917304C6
:1053E000A0917404B09175040196A11DB11D809324
:1053F000720490937304A0937404B0937504BF91E6
:10540000AF919F918F910F900FBE0F901F901895A5
:105410009C014FB7F8948091720490917304A0910D
:105420007404B09175044FBF821B930B08952FB77E
:10543000F894609172047091730480917404909157
:1054400075042FBF08952FB7F8948091720490913E
:105450007304A0917404B09175042FBF08951F9236
:105460000F920FB60F9211248F939F93AF93BF9318
:1054700080917104811113C0809172049091730422
:10548000A0917404B09175044196A11DB11D809343
:10549000720490937304A0937404B0937504BF9145
:1054A000AF919F918F910F900FBE0F901F90189505
:1054B0009C012A5F3F4FFC014281461301C01282CA
:1054C000019682179307B9F708959C01FC01329663
:1054D0009FEF80E04191461789F09F3F19F44111F9
:1054E00001C0982F8F5F8630A9F79F3F39F0F901EF
:1054F000E90FF11D97FDFA95628308950895E091F3
:105500006F04F0917004309729F00190F081E02D44
:105510000995089580E008954115510511F0FA01AB
:1055200009950895CF93DF93EC014A855B856E85DD
:105530007F850E948C2A8B810E9461278C810E942A
:1055400068270E94DB2786E0FE0111928A95E9F721
:10555000DF91CF910895CF93DF93EC018D8181FD91
:1055600014C082608D8390916C048B81892B809311
:105570006C048C810E946F270E94DB274885598527
:105580006E857F85CE010E948C2A10926E04109247
:105590006D048D8180FD03C0CE010E94922ADF91AF
:1055A000CF910895A0E0B0E0E8EDFAE20C94C530A8
:1055B0007C015B01C42FD22FFC0185818823B1F0CF
:1055C00040936B040E94232A90936A048093690499
:1055D00080E28C0F883008F052C0C77081E001C0B3
:1055E000880FCA95EAF70E94ED2349C080916B04A9
:1055F000481335C08091690490916A040E94082A7A
:105600006C01B701C5010E943319C816D90638F5D7
:1056100010E21D0FCD17B9F080E28C0F883040F4F6
:10562000C77081E001C0880FCA95EAF70E94E6239F
:10563000183010F581E09D2F977001C0880F9A9562
:10564000EAF70E94ED23802F0E943F241830B8F41F
:10565000D77081E001C0880FDA95EAF70AC080E2CE
:105660008C0F883060F4C77081E001C0880FCA9544
:10567000EAF70E94E62303C0802F0E943F24CDB7A3
:10568000DEB7EAE00C94E130CF93DF93EC01409178
:105690005E0450915F0460916004709161042FB7C3
:1056A000F8948091720490917304A0917404B09165
:1056B00075042FBF841B950BA60BB70B843F91403D
:1056C000A105B105A8F480915E0490915F04A091BA
:1056D0006004B091610480935A0490935B04A0939A
:1056E0005C04B0935D0484EF91E0A0E0B0E00EC0F4
:1056F0000E94172A60935A0470935B0480935C04A1
:1057000090935D0482E390E0A0E0B0E080935604C3
:1057100090935704A0935804B0935904D09366040F
:10572000C0936504DF91CF910895FF920F931F936B
:10573000CF93DF9300916704109168040115110560
:1057400009F45CC010926604109265041092620421
:1057500010926304D80116966D917C9117979B0166
:105760003A9521153F4108F4707EC62FD1E06111B2
:1057700001C0D0E0F82ED8011996ED91FC911A974E
:10578000309739F01B966D917C911C9780E00995BC
:10579000D823DD2379F08CEF8C0F813A30F46C2F15
:1057A0008CE494E00E94582A05C00E94DB278C2FCD
:1057B0000E94F423E0916704F091680440815181D4
:1057C000FF2071F0808584FD0BC0809164048823E4
:1057D00039F091E09A01215031092F333E4708F00A
:1057E00090E090FF03C0CA010E94442B0E94DB2777
:1057F000109268041092670410926404C801CDB737
:10580000DEB7E5E00C94E630FC0184818623C1F428
:1058100092819923B9F08085692383FF04C081E0D8
:10582000611111C00DC0892F8F7092959F70982BB8
:10583000862F8F7062956F70682B81E0961719F034
:1058400080E0089581E00895CF93DF93CDEAD1E021
:1058500060E0CE010E9460302196C11584E0D80737
:10586000B9F7DF91CF910895AEE1B0E0EAE3FCE251
:105870000C94BF30609054047090550481E090E027
:10588000909355048093540496EDE92E94E0F92EFC
:10589000A12CB12C512CC12CD12C412C00E010E0BA
:1058A00045018C0C9D1C402F83E0581659F0F401E3
:1058B000E00FF11FEE0FFF1FE257FB4F8591949110
:1058C0009C0102C021E030E0642D852D0E94AC15C2
:1058D0000F5F1F4F0430110531F74394E4E0CE0E03
:1058E000D11CF3E04F12DACF83E0581629F0F7010C
:1058F000859194919C0102C021E030E041E060E09C
:10590000852D0E944B15E3E05E1631F0F7013296CB
:10591000859194919C0102C021E030E040E060E07C
:10592000852D0E944B155394F4E0EF0EF11C8CE092
:10593000A80EB11CE4E05E12AECF0E9445181A8298
:1059400019821C821B821E821D8218861F8288EC8F
:1059500090E09A8789870DEB10E04AE050E0B801AB
:10596000CE0101960E948430065F1F4F0D30F1E09A
:105970001F0799F77E018BE0E80EF11C8AE0F70122
:1059800011928A95E9F74AE050E0B801C7010E94F8
:105990008430065F1F4F0D35F1E01F07A1F77E0130
:1059A00085E1E80EF11C8AE0F70111928A95E9F78A
:1059B0008FEF9FEF9A8F898F87E08E8F4AE050E0BC
:1059C000B801C7010E948430065F1F4F0D3AF1E015
:1059D0001F07A1F770925504609254046E96E0E19F
:1059E0000C94DB30883080F49B01982F8AE0989FDC
:1059F000B001112463547F4F4AE050E0C9010E9476
:105A0000323080E090E008958FEF9FEF0895A6E098
:105A1000B0E0EDE0FDE20C94CC3049835A8349813B
:105A20005A81992361F0222351F0CA010E947B2000
:105A3000182F682F89819A810E94D42004C0CA013E
:105A40000E94B720182F69817A81812F0E94E22558
:105A50002696E3E00C94E830FC018781908500975E
:105A600049F4262F4081518162817381848195811F
:105A70000E94072D0895ADE1B0E0E1E4FDE20C9451
:105A8000BD304B8B5C8B6D8B7E8B8F8B988F88237F
:105A900049F0809137019091380101969093380137
:105AA00080933701888D811110926C048E01065FFE
:105AB0001F4F89E0F80111928A95E9F786E0FE010F
:105AC0007396D80101900D928A95E1F78091CB02EF
:105AD00082FF28C08091EF029091F002892B11F192
