:100000000C946B020C9488020C9488020C94880265
:100010000C9488020C9488020C9488020C94880238
:100020000C9488020C9488020C94611E0C94A31DFD
:100030000C94C9140C9488020C9488020C948802C5
:100040000C9488020C9488020C9488020C94880208
:100050000C9488020C947C140C9488020C948802F2
:100060000C9488020C9488020C9488020C948802E8
:100070000C9488020C9488020C9488020C948802D8
:100080000C9488020C9488020C9488020C948802C8
:100090000C9488020C9488020C9488020C948802B8
:1000A0000C9488020C9488020C948802B9072D08DD
:1000B000C1078B078F07C5079207C807D3079D079E
:1000C0002308A107D707A507DB070508A907DF074E
:1000D0000F08AF07E507EF079607CC079907CF078B
:1000E000B407EA07FB071B081D088707BD0736088A
:1000F0005C0862085008560868086E0874085C09B5
:100100005C098A098A09630B630B630B630B370A6B
:10011000AA0ABC0ABC0A101126112C113C133C136C
:10012000621174118711CA11CF11F7111B125112EC
:10013000541260126A128212BA12CC12F212141302
:10014000B01BD71B811DD71B811D1F1C421C811D8D
:100150003D1D511DFD377A585A000004E6D6B446BD
:100160000200210116000000742FE5A3E001260023
:10017000B35D003D8889C65436C3174FE4DBA03A0F
:100180007F9637E916E0E00009C3015377F254582F
:1001900090A3591750694AEB585EB13B0351BD59C2
:1001A0008D8E859BD644137DCE568B3A8D3C9474B0
:1001B000086904E17C339670F02691DA41E551FD3F
:1001C000E29F48606ECF7095B1FC54F9F21DF4E7E0
:1001D000E44E468038A2BA0DEE08B5DEB021D33425
:1001E000A338277042A746E583E527E0613A9B7F65
:1001F000CDC47EA3987E2BB4826D88EDAB553C5F59
:10020000F41D7F222EA7AEA7E2829DB2B4886A3782
:1002100047A52426E83F6B69ACE470FAC0E34B7B4A
:100220003C77759AC09400009B853F0771465ED26B
:100230000001CF01A7020000DEA4B3CDB1C467FB6B
:10024000020000000004595A27001E00210024006B
:1002500028001F0022002500215220002300260034
:100260000100010001000100010001000100010086
:10027000010001000100007C0100010001000100FB
:100280000100010001000100010001000100007CEB
:100290000660FF0961A1010962150026FF00952093
:1002A000750881020963150026FF009520750891E5
:1002B00002C005010906A101050719E029E715009B
:1002C00025019508750181029501750881010507D1
:1002D000190029FF150026FF009506750881000505
:1002E000081901290515002501950575019102954B
:1002F0000175039101C009024200020100A0FA0940
:100300000400000103010100092111010001224440
:100310000007058103080001090401000203000031
:10032000000921110100012222000705820320009B
:10033000010705030320000112010002000000086C
:10034000504120040101010203011C0376006900F1
:1003500061006C003A006600360034006300320031
:1003600062003300630000001C0341007400680059
:100370005F004D006100630072006F005F0033009A
:100380007800340000000A03410074006800500047
:100390000000040309040000000000000000000049
:1003A000000000000000000000000000000000004D
:1003B000000000000000000000007E0F00D4FFFFDE
:1003C000FFC70000007800000000000000002A2B9A
:1003D00028000000000000000000000000000000F5
:1003E0000029000000002C1E34202122243426275E
:1003F000252E362D3738271E1F202122232425267F
:100400003333362E37381F0405060708090A0B0C4C
:100410000D0E0F101112131415161718191A1B1C94
:100420001D2F3130232D350405060708090A0B0C52
:100430000D0E0F101112131415161718191A1B1C74
:100440001D2F3130354C01000100A001E028382972
:100450000000020002009C01E0283829000003008F
:100460000100A101E02838290000040002008601F3
:10047000E0283829572805000100A201E028382982
:100480000000060002008801E0283829000007006B
:1004900002009E01E0283829000008000100A301A5
:1004A000E0283829000012000200A401E0283829C1
:1004B000000013000200A601E02838290000140003
:1004C0000100A801E0283829000015000000000004
:1004D000DA276028000011241FBECFEFDAE0DEBF6C
:1004E000CDBF11E0A0E0B1E0EEEAFFE502C005906B
:1004F0000D92A233B107D9F724E0A2E3B1E001C025
:100500001D92A337B207E1F70E94CB0B0C94D52FB5
:100510000C940000ACE0B0E0E0E9F2E00C946D2F48
:10052000DC0114962C91222311F40C94C70B7C014E
:1005300061E00E94142C8C01F7018581882319F158
:1005400080917702909178020097E9F008171907D7
:10055000D1F0992764E0880F991F6A95E1F7FC01B3
:10056000E35EFC4F208124602083885E9C4FDC0189
:100570000D931C930E9445151092760261E0C7010D
:100580000E94142C8C01F7013580332009F4C2C07D
:10059000C80197578038910508F008C1D02EFFE0B8
:1005A000F01710F40C94B80B8FEF93E00E94F22E2A
:1005B00081110C94B80B0DEA11E0DD2079F00115E2
:1005C00024E0120711F40C94B80BC8010E94F22E1B
:1005D000811101C0DA940F5F1F4FEFCF19821A8289
:1005E0001B821C82AA24AA9468013FEFC31AD30A73
:1005F000C8010E94F22E89831A82882311F40C9478
:10060000B80B813009F081C0480142E0840E911C92
:10061000C6010E94F22EB82E8A83882311F40C940E
:10062000B80B8FEF8B0D833060F4680153E0C50E7B
:10063000D11CC4010E94F22E8B83811166C08601F9
:10064000D3CF8BEF8B0D833078F5380183E0680EC4
:10065000711CC4010E94F22E8B83811102C06301C0
:10066000EECF680194E0C90ED11CC3010E94F22EA6
:100670008C83882321F32B813C812130AFEF3A0713
:1006800018F0922F80E001C0C901B6E0BB1631F02E
:10069000E7E0BE1631F00E94E02AD1CF0E94BB2ACB
:1006A000CECF0E94412ACBCFF4E0BF1611F06401F7
:1006B000C6CFC4010E94F22EB82E680124E0C20EFB
:1006C000D11CC80103960E94F22EBB2011F40C9499
:1006D000B80B882311F40C94B80B282F30E021506C
:1006E0003109A29EA001A39E500D11248B2D90E0F4
:1006F0000197840F951F019708F4A1CFAFE9BFE0E0
:100700001197F1F700C00000F6CFCE0101960E94CC
:10071000241A95CF6801E7E5DE1AFFEFCF16D10462
:1007200011F008F05DC06EE073E08C2D0E94CE16D3
:10073000892BB9F5C60154E0880F991F5A95E1F746
:10074000FC01E85EFC4F22812130C9F420910E03A8
:1007500030910F03232B29F12091100330911103C5
:10076000232BF9F02091120330911303232BC9F4AA
:100770002091140330911503232B49F012C022302D
:1007800081F42091120330911303232B51F0FC01CB
:10079000E35EFC4F20812E7F2083885E9C4F0E9469
:1007A0004515D70115963C903320D9F00E35BCE79E
:1007B0001B0761F00F35ECE71E0761F00D35FCE714
:1007C0001F0779F480910001811104C081E08093BA
:1007D0000001CEC71092000180E00E942F16C8C70A
:1007E000312C80910001811108C0C80197558F3FBD
:1007F000910509F008F47AC1E7C1480120EE821A98
:1008000091082090FE028091F002282A80916501D3
:10081000282A38E08316910480F498012770332742
:1008200081E090E001C0880F2A95EAF7332011F0AB
:10083000282A18C08095282215C0332009F416C133
:1008400010933501009334010E94B1146093680243
:100850007093690280936A0290936B021092700207
:1008600010926F02D7018D919C910E94A71F21E0E9
:1008700030E0F90102C0EE0FFF1F8A95E2F7FC8716
:10088000EB87209171023091720238872F8340915B
:100890003401509135015A8749871D82432C512CD0
:1008A0005D81E52FF0E0EE0FFF1FE751FC4FC080A8
:1008B000D180C114D10409F4F0C0211005C0D601C3
:1008C00012968C918111CEC0F601838190E02B8528
:1008D0003C8582239323892B09F4C4C08085982FFB
:1008E000977009F487E038E08316910440F43320D0
:1008F00019F081FD09C0B6C082FD06C0B3C0332027
:1009000009F4B0C080FFAEC0D601AD90BC900A150E
:100910001B0519F4332009F4A5C0EF81F885CE1624
:10092000DF0609F49FC0D6011D96ED91FC911E973C
:10093000309721F08081882309F494C0622DC6018C
:100940000E949E16882309F48DC00A151B0511F418
:10095000320102C0612C712CB62DB170BE8381E0D2
:10096000A114B10441F0B11106C0E985FA85AE16B3
:10097000BF0609F080E080FF75C080E00E942F165E
:10098000D0927202C092710281E080936E02D60111
:1009900015968C9180936C02BE81B11113C0AB2867
:1009A00089F0F601808191819C0124503109213A1E
:1009B000310530F4682F8BE591E00E94F21402C0FB
:1009C0000E941523D6011696AD90BC901797C501CD
:1009D0009A9581159F4110F4E0EEBE225524539460
:1009E000C50101978F339E4708F0512CD601199607
:1009F000ED91FC911A97309739F01B966D917C918F
:100A00001C9781E009955822552029F1F60186812D
:100A100097810E94782E80936D02C501F8E08F16B1
:100A2000910418F40E94DE1516C00497813A9105CE
:100A300030F46A2D8BE591E00E94FF140EC00E94F5
:100A4000ED268FE39CE90197F1F700C000008A2DA5
:100A50000E94302302C00E94ED2691E0692660FECC
:100A600079C1C3CEAD81AF5FAD831ACF8091340120
:100A7000909135010817190781F4109235011092F1
:100A80003401109268021092690210926A02109268
:100A90006B021092700210926F028091710290911D
:100AA0007202009709F4A1CEB8E08B16910438F4D5
:100AB000622D0E949E16811198CE81E014C0FC0127
:100AC000208131810217130729F4311006C01092DA
:100AD0006E0208C0332009F488CEDC0118968C9190
:100AE00085FD83CE80E00E942F167FCE5801BB2467
:100AF000C50134E0880F991F3A95E1F7FC01E85EE3
:100B0000FC4F6F01D70115962C911597FC01E35E00
:100B1000FC4F5F01808120FB80F9808315968C91CA
:100B20008823A1F10E94BD14909343018093420158
:100B3000D60112968C9112978F5F12968C93129712
:100B40009091760280916501892B13968C9313976F
:100B50008091FE0214968C93149716964D915C9199
:100B600017971E966D917C911F97C6010E942615BE
:100B7000F501808181FF03C090E080E002C0902FEA
:100B8000812F90937702809378021EC0D6011C9625
:100B90004D915C911D971E966D917C911F97C6019A
:100BA0000E942615F501808181FF0EC0C6010E94BA
:100BB0002C1580917702909178020817190721F47B
:100BC00010927802109277028091A10180FF93C069
:100BD0000E94BD146C01D70115968C918823B1F148
:100BE00080910B0182FF08C024E431E040E0B601AF
:100BF00080E090E00E94A3180431BCE71B07A9F035
:100C00000531ECE71E0751F00331FCE71F07A1F4A3
:100C100080910B01816080930B010EC080910B01CC
:100C2000982F909590FB80F903C080910B018E7FE7
:100C300080930B010E946918C8019052811590435E
:100C400058F51092AD011092AC0155C0013E11054E
:100C500021F480910B018F7E06C0053E110531F411
:100C600080910B018F7D80930B0116C0C8019052BB
:100C70008115904388F480910B0182FF3CC08091E4
:100C8000A30181FD38C024E431E040E0B60180E0FA
:100C900090E00E94A3182FC080910B0180FF2BC011
:100CA000D70115968C910832110538F40E311105D3
:100CB000B8F40430110578F41CC00933110538F478
:100CC0000D32110590F40B32110579F012C0043683
:100CD000110559F00EC09091A10194FD0AC03DC0CC
:100CE0009091A10193FD05C038C09091A10192FFA0
:100CF00034C08111E4C0F801E851FC47E730F10548
:100D000008F4CAC1F70195819111E4C00631FCE7EE
:100D10001F0709F01BC280916501282F2A7A3091A4
:100D2000A00130FDECC131FDF0C132FDF4C133FD55
:100D3000F8C1992309F4FEC181E0211101C080E0CE
:100D400080933601222309F4F3C165E38BE591E03A
:100D50000E94FF140E94ED260BC5882309F4A8C049
:100D60009091FE0280916501892B8D7F79F110921F
:100D7000AD011092AC018091A10181FD27C0F80165
:100D800023E0F695E7952A95E1F7EE71FF27EA59FA
:100D9000FE4F98012F70332781E090E002C0880F4A
:100DA000991F2A95E2F780959095208131818223C1
:100DB000932391838083A70160E0C8010E94881873
:100DC0008091FE028D7F0E944A266EC089E0F70165
:100DD000A4E4B1E001900D928A95E1F710924901E7
:100DE00010924701109246018091AC019091AD01A3
:100DF00008171907E1F58091A10185FF38C090918E
:100E00000B0191FF02C086FF32C08091AA01909130
:100E1000AB015601A81AB90AB701C8010E940B2AF2
:100E2000A816B90620F58091650181FF08C0809160
:100E30000B01806180930B0182E00E947A268091F1
:100E4000650185FF08C080910B01806280930B01D2
:100E500080E20E947A2660910B0166956170A7017D
:100E60008091AC019091AD010E94881881C480915D
:100E7000FE0290916501982B9695917020910B013F
:100E800090FB21F920930B018D7F0E944A2610933D
:100E9000AD010093AC01D092AB01C092AA01809148
:100EA0000B01846080930B0182E00E948E2660C457
:100EB000970140E0B601C8010E94A31859C41092DE
:100EC000AD011092AC01F801E851FC47E730F105A3
:100ED00008F4E2C010927502C8019057839708F099
:100EE0000CC184E090E00E94FA2E909364018093FC
:100EF0006301F801E150F047E232F10520F4EA5ACB
:100F0000FF4F0C94602F809163018160ACC0809191
:100F100064018860B4C0809163018260A4C0809144
:100F2000630120C08091630188609DC0809164014D
:100F30001EC0809164018260A2C0809163018061C3
:100F400092C08091630180628EC080916301806451
:100F50008AC00E947B2280916301806884C0809156
:100F60006301886084607FC08091640182608160D9
:100F700086C0809163018E7F76C080916401877FF7
:100F80007EC0809163018D7F6EC08091630120C01F
:100F900080916301877F67C0809164011EC080914A
:100FA00064018D7F6CC0809163018F7E5CC08091F5
:100FB00063018F7D58C0809163018F7B54C00E9474
:100FC0007B22809163018F774EC080916301877F80
:100FD0008B7F49C0809164018D7F8E7F50C080914E
:100FE000630182FB222720F991E0922790FB82F98E
:100FF00090FB83F938C080916401982F909591708F
:101000008E7F892B90FB81F93AC08091630186FB2A
:10101000222720F991E0922790FB86F924C00E94B4
:101020007B228091630187FB222720F991E09227A0
:1010300090FB87F918C061E001C060E08EE090E0AD
:101040000E94102F1EC08091630184FB222720F98B
:1010500091E0922790FB84F906C080916301982F5C
:10106000909590FB80F9809363010BC0809164019F
:1010700083FB222720F991E0922790FB83F980934C
:101080006401609163017091640184E090E00E94CA
:101090002E2F0E947B226CC3E858FF4F0C94602FC8
:1010A00006E221EE41EE6AE17CE723C007E225EE8D
:1010B00045EE6BE17CE71DC006E221EE40EE68E103
:1010C0007CE717C007E225EE44EE69E17CE711C03A
:1010D00006E221EE42EE6CE17CE70BC007E225EE72
:1010E00046EE6DE17CE705C008E221E045EE6EE1E9
:1010F0007CE7C7010E946C153BC391E007CE482FE7
:10110000447409F410CE20E00ECE482F417109F44A
:101110000CCE20E00ACE482F487809F408CE20E013
:1011200006CE827209F405CE992321F01092360181
:1011300069E20CCE80913601882311F065E301C08D
:1011400069E28BE591E00E94F21404CE07372CE7A8
:10115000120711F481E005C008373CE7130771F46A
:1011600082E0992319F00E94422002C00E9435209B
:1011700043E062E081E00E941320FAC2D701159695
:101180008C918823F1F10330BCE71B0731F148F45F
:101190000115FCE71F0799F001302CE7120719F140
:1011A00030C00B353CE7130749F10C354CE7140709
:1011B000E9F00A355CE7150721F581E020C00E94BF
:1011C0007B228FEF94E3ACE081509040A040E1F7A8
:1011D00000C000000E946B14CBC26FEF7FEF80E075
:1011E00090E00E942E2F0E94622EC2C28091640164
:1011F00082FB882780F991E0892701C080E00E9466
:10120000A526D70117968D919C9118970097C9F440
:10121000D70115968C9115970D911C91882349F053
:10122000C8010E946B1FD82E682FC8010E94DB1FC7
:1012300004C0C8010E94A71FD82EB8018D2D0E949E
:1012400006250E942325182FD92EF701B580C680C8
:10125000C2949FE0C9228091F3028770E9F0BB201D
:10126000D9F08D2D807F803451F080E2810F88305D
:1012700098F0C11004C08D2D807E803269F080917D
:10128000640182FF09C082E00E948E268091F302F1
:101290008770AA24A3948111A12C9D2C92948FE095
:1012A0009822892D90E08C30910508F00CC2FC0149
:1012B000E158FF4F0C94602F0D2D0F708D2D807F06
:1012C00011F00295007FBB20A9F0002309F4DBC1D7
:1012D00080E2810F883010F0111104C0802F0E942D
:1012E000812605C080917602082B009376020E9429
:1012F000ED26C9C1812F0E941523002309F4E3C103
:1013000080E2810F883058F1112349F1802F0E942B
:10131000732628C00D2D0F708D2D807F803211F027
:101320000295007F112321F0113009F469C074C0C7
:101330008091640182FD19C0BB2059F0002329F07F
:10134000802F0E9481260E94ED2680E00E9430239B
:10135000BAC180E00E941523002309F4B4C1802F94
:101360000E947A260E94ED26AEC1BB2081F1CC20DE
:1013700009F473C0F1E0CF1212C08091FE02802305
:10138000081709F4A0C10E94BD149093FD02809338
:10139000FC028091FE02082B0093FE0294C1809112
:1013A000A201823008F48FC1C8128DC1802F0E9423
:1013B0000E23802F0E945E268091F002902F9823AA
:1013C000091709F480C1082B0093F0027CC1CC20DE
:1013D00069F08091A201823008F475C121E0C21247
:1013E00072C180916501802309F46DC1802F0E9434
:1013F0000723802F0E945E26802F0E94432763C10F
:101400008091A801BB2021F08C1508F45CC125C097
:10141000C81608F058C127C0BB2019F1CC20E9F04C
:1014200020E0D7014C9111965C91119712966C9126
:10143000129713967C91139714968C911497159686
:101440009C910E94EF2B8091A30181FD1CC1F701AB
:10145000868180FF18C18F708683802F0E940E23A3
:1014600032C1C11019C1802F0E9407232CC18D2DBC
:101470008370A1F5B1102BC1412F4295469547705D
:10148000440F440F212F2F7030E0C901042E01C0FA
:10149000880F0A94EAF714FF08C02FE030E001C07B
:1014A000220F4A95EAF7209501C020E03D2D3695A0
:1014B00036953370323069F040F440913C01313060
:1014C00019F0822B842302C0842B822B0E944E2091
:1014D000FEC0282B80913C018227F8CFBB2019F059
:1014E0008D2D817001C08695882309F4F0C0412FAD
:1014F000429546954770440F440F212F2F7030E0DE
:10150000C901042E01C0880F0A94EAF714FF08C02D
:101510002FE030E001C0220F4A95EAF7209501C084
:1015200020E03D2D369536953370323051F070F411
:1015300040913D01313019F0822B842308C0842B67
:1015400005C0282B80913D01822701C0822B0E947B
:101550001020BDC00D2D0F70BB2039F0802F0E94D0
:101560004220812F0E940E23B2C0812F0E940723A8
:10157000802F0E943520ABC0123F11F128F4103F9C
:1015800041F0113FA9F17BC0133F01F1143F61F11C
:1015900076C08091A801BB2021F0C81608F093C046
:1015A00003C08C1508F48FC02D2D2F7181E090E0C1
:1015B00001C0880F2A95EAF790913D01892711C053
:1015C0008D2D8F71BB2009F462C079C0BB2041F022
:1015D00081E09D2D9F7101C0880F9A95EAF701C0A7
:1015E00080E00E9410206FC08091640182FD06C0DF
:1015F0008D2D8F71BB2009F462C049C08091A2017A
:10160000823038F1BB20B9F09091F302977094309A
:1016100039F40E9487268D2D8F710E94352052C08B
:10162000C81608F04FC00D2D0F71802F0E94422068
:1016300063E0802F07C0C81640F00E94872664E050
:101640008D2D8F710E94BC263DC081E00E948E26A8
:1016500039C0BB2051F00D2D0F71802F0E94422008
:1016600063E0802F0E94BC262EC081E00E948E265F
:10167000F1E0FC1540F582E00E948E2624C0BB20DC
:1016800049F0CC2011F0812F61CE8D2D8F710E94F9
:10169000422019C0CC2089F0193329F48091A60189
:1016A0009091A70104C08091A4019091A5010E948E
:1016B0009818812F0E94152306C08D2D8F710E94CE
:1016C000352001C0A12C88EF890D843010F40E94D0
:1016D0001915812F9D2D0E945120811105C0109256
:1016E00038011092370128C0BB2019F0C110F7CF84
:1016F00023C0C110F4CF20E0D7014C9111965C912A
:10170000119712966C91129713967C9113971496D9
:101710008C91149715969C910E94EF2B8091A301B8
:1017200083FFDDCF80913701909138010297B9F6A0
:10173000812F0E947823D3CFAA20A9F08091F302B1
:1017400080FD11C0F70115828695869586950E94C9
:101750004220C7010E948A028091F30286958695F5
:1017600086950E94352060E0C7010E94142C0FC0AE
:101770008091F302877059F0F7018581882339F051
:101780008091640182FF03C082E00E948E262C9625
:10179000E2E10C94892FA9E3B0E0E1EDFBE00C94C9
:1017A0006D2F85B7806885BF85B7806885BF84B792
:1017B000877F84BF0FB6F894A895809160008861F8
:1017C00080936000109260000FBE90E080E80FB63A
:1017D000F89480936100909361000FBE86E893E2D5
:1017E00090933301809332010E94292A0E94C729D5
:1017F0000E9453290E94F6280E94E71D0E94061E9F
:101800008091E20084608093E200789480918D0260
:101810008823A1F01091E9001F709091EC00892FAE
:10182000817090FD80E8182B1092E9008091E8000B
:1018300083FD0E94D01A1F701093E90082E084BDDE
:1018400093E095BD9AEF97BD80936E000E94D62BD2
:10185000811102C00E94C62B81E080934F018698BF
:101860008E9A85988D9A8FE891E00197F1F700C0E4
:10187000000030914F01E0E5F1E020E0231769F02E
:101880008FB186FB882780F97D9B02C092E001C062
:1018900090E0892B81932F5FF1CF46E151E0A2E2E6
:1018A000B1E001E010E020E030E0FA01E20FF31FC8
:1018B00080818F3FA1F0E82FE295EF70F0E061A109
:1018C0008F70780102C0EE0CFF1C8A95E2F7C70109
:1018D0009E2D9095962391A392A1892B82A32F5F91
:1018E0003F4F2430310509F74C5F5F4FA417B50710
:1018F000D1F683E0E6E5F1E0DF01E82E1D92EA94FF
:10190000E9F7E9E3F1E0DF011D928A95E9F780E06C
:1019100090E00E94FA2E863E9E4F21F40E94D62B24
:10192000811167C066EE7EEF80E090E00E942E2F6E
:1019300060E082E090E00E94102F60E083E090E0A1
:101940000E94102F10923C0160E074E184E090E06E
:101950000E942E2F60E086E090E00E94102F6FEF33
:1019600087E090E00E94102F40E050E0BA0188E04C
:1019700090E00E94222F60E084E290E00E94102F0D
:1019800060E087E190E00E94102F60E08CE090E042
:101990000E94102F60E08DE090E00E94102F1982CD
:1019A0001A821B821C821D821E821F82188648E0BA
:1019B00050E068E170E0CE0101960E94002F40E007
:1019C00050E0BA0180E290E00E94222F80E00E9465
:1019D000A72B0E94C62B40E050E0BA018FE090E0B8
:1019E0000E94222F40E050E0BA0183E190E00E9483
:1019F000222F82E090E00E94F22E80933E0184E04C
:101A000090E00E94FA2E90936401809363010E94FB
:101A10007324EFEFF6E721E0E150F0402040E1F7DA
:101A200000C000000E9473248091560180FF08C00E
:101A30006FEF7FEF80E090E00E942E2F0E946B14EA
:101A400083E090E00E94F22E0E944E2081E091E01F
:101A500090937A02809379022E013BE2430E511C4F
:101A60008E010F5F1F4F80918D02853009F04AC0B3
:101A700050E1E52E62E1F62E80918D02853009F06D
:101A80003DC080918D02843021F110927B0288E16B
:101A900090E0A0E40FB6F894A895809360000FBE84
:101AA000A093600083B7817F846083BF83B7816028
:101AB00083BF7894889583B78E7F83BF0FB6F894E1
:101AC000A89580916000886180936000109260000A
:101AD0000FBE80918C02882309F4CECF0E9473241C
:101AE000809156018111CFC5809157018111CBC5DD
:101AF00080915801882309F4BFCFC5C50E947B227D
:101B00000E9419150E9473243FE3E32E31E0F32E67
:101B100046E5C42E41E0D42E22E431E0D601F7019F
:101B200091918D9189272E173F0719F08823C1F3D2
:101B300005C0811103C00E941B2634C0B12C66244D
:101B40006394F60181906F01D7017C90782409F1AC
:101B5000A12C99249394872D8921A1F0ACAABDAA28
:101B60000E94BD149FAB8EAB68AE91E0882D892199
:101B700009F490E099AF4CA95DA96EA97FA988AD41
:101B80000E94232CA394990CB4E0AB12E4CFF7018C
:101B90008082B394FFEFEF1AFF0A23E0B212D1CF95
:101BA0000E94B11480916F0290917002892B09F408
:101BB0003EC040916402509165026091660270914E
:101BC00067022FB7F89480917C0290917D02A091DA
:101BD0007E02B0917F022FBF841B950BA60BB70B23
:101BE00040916002509161026091620270916302C3
:101BF00084179507A607B707D0F080916F029091E0
:101C000070020E94BF2E1092700210926F0210920A
:101C1000640210926502109266021092670210929E
:101C2000600210926102109262021092630280912F
:101C3000770290917802892B51F180914201909125
:101C400043010E94A2147C0189E0D2011D928A9571
:101C5000E9F7B20180917702909178020E940B2AF5
:101C60008E159F05A0F480917702909178029927B4
:101C700024E0880F991F2A95E1F7FC01E35EFC4FF1
:101C8000208122FD04C0885E9C4F0E9445158091F2
:101C90000C01882341F180915C0290915D020097D4
:101CA00011F10E94A2142091AE013091AF012817CA
:101CB0003907C8F490915A0280915B02981759F045
:101CC0000E94D0171092AF011092AE0110925D02E7
:101CD00010925C0208C00E94661710925D0210927A
:101CE0005C020E94B0178091A10180FF1EC080910C
:101CF0000B0182FF1AC00E94BD142091AA013091ED
:101D0000AB01AC01421B530B2091090130910A0138
:101D10004217530750F024E431E041E0BC018091C8
:101D2000AC019091AD010E94A318B12CA12C80911F
:101D30004F01B81608F05AC0EB2CF12CEFB1E6FBBE
:101D4000EE27E0F97D9B02C092E001C090E08E2F6B
:101D5000892BD701A05BBE4FEC912E2F237030E072
:101D6000482F082E000C550B24173507E9F1EE0F0C
:101D7000EE0FE82BEC93EF70F0E0EE5DFE4F970175
:101D8000225B3E4F69019081D9018C91890F8C9320
:101D900084306CF0F701E35BFE4F80818F5F8083BE
:101DA0006AE070E08BE40E94602321E001C020E043
:101DB000F60180818D3F64F4F701E35BFE4F808183
:101DC000815080836AE070E08EE40E94602321E00D
:101DD000D6018C91082E000C990B64E070E00E94F3
:101DE0004C2FF6018083A22AB394A1CFA1100E94A8
:101DF000B1140E94191590915101891721F0809317
:101E000051010E94B11480918D02843009F02BCED3
:101E100083E08093E9008091E80082FF24CE8091E6
:101E2000E80085FF24C00E94381F81111EC080E297
:101E3000E82EF12C9E012F5F3F4F690109C0809170
:101E4000F100D6018D936D01B1E0EB1AF10869F054
:101E50008091E80085FDF3CF8091E8008B77809337
:101E6000E8000E94381F882399F391E001C090E0B8
:101E70008091E8008B778093E800992309F4F3CDF3
:101E8000E0905901F0905A018981E114F10461F068
:101E90008E3F09F0F1C38A81833008F4B5C18550C3
:101EA000833008F0E9C3B0C18B3009F494C110F558
:101EB000853009F469C0B0F48230C1F130F481306A
:101EC00009F0D8C31A8289E003C3833009F44FC0F4
:101ED000843009F0CFC34C816B818A810E940A173C
:101EE0009D83EEC3873009F4C5C308F0C3C30E94C5
:101EF0008C19C2C3803109F4B2C060F48D3009F48A
:101F000050C008F44CC08E3009F44FC08F3009F433
:101F100077C0B0C3823109F4A8C008F4A3C08331EC
:101F200009F4CCC08E3F09F46FC1A4C38A8182300A
:101F300009F4BFC3833051F0813009F09BC30E9484
:101F4000B1149B838C837D836E8396C380915E02E4
:101F500090915F02892B09F48FC3809156018B8386
:101F6000809157018C83809158018D8385C38A812C
:101F7000823009F07FC36B817C818D819E810E94BC
:101F8000662F0E94A22B78C32D813E813227232702
:101F900032274C816B818A810E94E3166DC380E1F8
:101FA00062C082E08A8383E593C2EA80FB80FE24DC
:101FB000EF24FE24AC80B12CEDE1AE16B10408F0A4
:101FC0005BC36801C70183559E4F9601201B310BEF
:101FD0002A153B0508F050C3F3E5EF16F2E0FF06C3
:101FE00030F40E94F22ED60114968C9302C0F601B2
:101FF0001482FFEFEF1AFF0A2FEFC21AD20AE2CFC4
:1020000080915E0290915F02892B09F435C3EA80CA
:10201000FB80FE24EF24FE24CC80D12C3DE1C316AE
:10202000D10408F029C35801C70183559E4F95017B
:10203000201B310B2C153D0508F01EC343E5E416AB
:1020400042E0F40628F4D50114966C910E94102FFA
:10205000BFEFEB1AFB0AEFEFAE1ABE0AE5CF0E9404
:10206000BE160AC384E08A8307C3EA80FB80FE248D
:10207000EF24FE24AC80B12CFDE1AF16B10408F0D2
:10208000FBC26801C70189969601201B310B2A15F6
:102090003B0508F0F1C220E6E216F10430F40E949C
:1020A000F22ED60114968C9302C0F6011482FFEF33
:1020B000EF1AFF0A2FEFC21AD20AE4CFEA80FB80A0
:1020C000FE24EF24FE24AC80B12C3DE1A316B10424
:1020D00008F0D2C240E6E416F10408F0CDC280E672
:1020E00090E08E199F098A159B0508F4C5C2370137
:1020F00089E2680E711C80915E0290915F02892BCB
:1021000011F068015FC0E0FE0FC0C70188960E9411
:10211000F22E90E0982F88272D81822B81159C47E5
:1021200031F48FEF8D8303C0C12CD12C03C0CC249C
:10213000C394D12CC5018E0D9F1D450180FF1BC08E
:10214000B1E08B1A9108E5E02E2E312C2C0E3D1EAD
:10215000280C391CC3018A0D9B1D0E94F22EF1012F
:10216000208130E0322F2227282B21153C4719F4FB
:102170008FEFD1018C93F801EC0DFD1D2FEFCF01F6
:10218000801B910B8815990508F0BBCF848190E0E6
:10219000982F88273581832B81159C4711F4248340
:1021A00025833296ECCFE0E6EE16F10428F4D60152
:1021B00014966C910E94102FBFEFEB1AFB0AEFEF01
:1021C000CE1ADE0AC70189969601201B310B2A150B
:1021D0003B0548F351C280915E0290915F02892BCA
:1021E00009F44AC240E250E0B80182E00E941914AA
:1021F000FFEF21EE34E0F15020403040E1F700C025
:1022000000000E946B1438C2EA818E2F90E08E305D
:10221000910508F031C2FC01E557FF4F0C94602F87
:1022200088E0EEE0F1E0DE01919601900D928A9552
:10223000E1F780E2D8011D928A95E9F786E089836B
:1022400088E0FE01B196DE011596E9C184EF89832D
:102250001A821B821C8210C28C8190E0982F8827E2
:102260002B81820F911D092E000CAA0BBB0B65E080
:10227000880F991FAA1FBB1F6A95D1F7AC01BD013A
:10228000405E5F4F6F4F7F4F481759076A077B07C4
:1022900008F4F2C1843F9105A105B10508F0ECC135
:1022A000453F51056105710520F044EF50E060E0C5
:1022B00070E0481B590BBC016C5A7E4FC8010E944C
:1022C000D92EDAC140E250E06FEF70E0C8010E9401
:1022D000CE2F80915E028983EA8281E08B838C839A
:1022E00082E08D8383E0ECC181E090E090935A011D
:1022F0008093590182E390E09093550180935401BB
:102300000E94BD149093530180935201B5C1EF28F0
:10231000C1F1F0905701F1FAFF24F0F880915801D3
:1023200083FB882780F9F822809152019091530114
:102330000E94A21485369105F0F0FF20E1F00E9482
:10234000BD14909353018093520180915401909158
:10235000550101979093550180935401892B89F47D
:1023600010925A011092590181E090E090935F021F
:1023700080935E0206C082E390E0909355018093C3
:10238000540180915E028983809159018A838091F2
:1023900054019EC010925F0210925E026DC1EB80EC
:1023A000FC8040E250E06FEF70E0C8010E94CE2F49
:1023B00026E434E0A6EDB4E080E090E0AC014E5FAE
:1023C0005F4F4132510508F057C1F9016591749191
:1023D000E616F70630F4F801E80FF91F7183608301
:1023E000CA01245F3F4FA217B30741F745C14B8194
:1023F0005C8126ED34E086E494E0FC016591749103
:102400004617570729F00C9628173907B1F732C13C
:10241000009709F42FC1FC013696259134912115BE
:10242000310509F427C14FE150E0BE016E5F7F4FD7
:10243000F901099520C12B813C8186ED94E046E4A9
:10244000E42E44E0F42EF70145915491241735070A
:1024500039F0FCE0EF0EF11C8E159F05A1F70AC1C3
:10246000E114F10409F406C1F7013896259134917D
:102470002115310509F4FEC04CE150E0BE016B5F4F
:102480007F4FC701F9010995009709F0F4C0F701E2
:102490003A9685919491009711F0FC01099580E09E
:1024A000EAC00E945619E8C0EB818E2F90E0873079
:1024B000910508F0E1C0FC01E756FF4F0C94602F36
:1024C00080E2D8011D928A95E9F788E089838A83A2
:1024D0008B83D2C08C819AE0D92E7E01B1E2EB0EC3
:1024E000F11CF7012D2D11922A95E9F7B7010E94F1
:1024F000CE168983F701DE01129601900D92DA94CF
:10250000E1F7BAC0FC808AE0FE013596DE019196C3
:1025100001900D928A95E1F789A19AA10E94922BD0
:102520009AA389A38BA19CA10E94922B9CA38BA30D
:102530008DA19EA10E94922B9EA38DA38FA198A5F1
:102540000E94922B98A78FA337E03F1570F04AE0C6
:10255000F49EB001112463547F4F4AE050E0CE0155
:1025600081960E94342F80E001C08FEF89830E9402
:10257000292A82C06C81CE0181962AE0DC011D925D
:102580002A95E9F7683008F043C0BAE06B9FB001C4
:102590001124635F7E4F36C0FC808AE0FE013596D1
:1025A000DE01919601900D928A95E1F789A59AA591
:1025B0000E94922B9AA789A7E7E0EF1570F0FAE046
:1025C000FF9EB0011124635F7E4F4AE050E0CE01D0
:1025D00081960E94342F80E001C08FEF89830E9492
:1025E000C7294AC06C81CE0181962AE0DC011D9288
:1025F0002A95E9F7683060F4BAE06B9FB0011124C6
:10260000635A7E4F4AE050E00E94E22E80E001C013
:102610008FEF89838AE0FE01B196DE011296019068
:102620000D928A95E1F728C0FC808AE0FE0135967C
:10263000DE01919601900D928A95E1F78BA19CA104
:102640000E94922B9CA38BA3E7E0EF1570F0FAE0B9
:10265000FF9EB0011124635A7E4F4AE050E0CE0144
:1026600081960E94342F80E001C08FEF89830E9401
:10267000532902C08FEF898340E250E0B80182E025
:102680000E941914F0C9E9BCF9BC09B400FEFDCFE1
:102690008091D8008F7D8093D8008091E000826087
:1026A0008093E0008091E00081FDFCCF0E947B22BE
:1026B000E3C988E290E00E94F22E1B821C821D82F8
:1026C0008E83DACF089508958091820208958091D3
:1026D0008F0287FF11C08091E80082FD05C08091C4
:1026E0008D028111F8CF11C08091E8008B770BC06B
:1026F00080918D02882349F08091E80080FFF8CF17
:102700008091E8008E778093E8000895982F9730A5
:1027100068F59093E900981739F07091EC002091DA
:10272000ED005091F00003C0242F762F50E021FDE2
:1027300002C09F5FECCF3091EB003E7F3093EB0007
:102740003091ED003D7F3093ED003091EB00316032
:102750003093EB007093EC002093ED005093F00069
:102760002091EE0027FDE5CF80E008958F708093E3
:10277000E90081E008952091950230919602261794
:10278000370748F06115710539F42091E8002E777C
:102790002093E80001C0B901FC0120E0611571053A
:1027A00079F180918D028823F1F18530F1F18091EA
:1027B000E80083FD3CC08091E80082FD2EC080913E
:1027C000E80080FFEBCF2091F3008091F20090E0D1
:1027D000922B6115710551F08830910538F42191E3
:1027E0002093F100615071090196F3CF21E0089721
:1027F00009F020E08091E8008E778093E800CECF4A
:102800002111CFCF0AC080918D02882361F08530DD
:1028100061F08091E80083FD0AC08091E80082FFAA
:10282000F2CF80E0089582E0089583E0089581E08A
:1028300008950F931F93CF93DF938B01EA0190913B
:102840008D02943079F58F708093E9008FEF90912D
:10285000E800815095FD06C095ED9A95F1F70000CE
:102860008111F5CF8091E80085FF1CC00E94381FC0
:10287000882361F08091E8008E778093E80012C091
:10288000F80181918F018093F1002197209791F3B6
:102890008091E80085FDF4CF8091E8008E778093E9
:1028A000E800E4CFDF91CF911F910F910895CF936E
:1028B000DF93EC0148E050E0BC0181E00E94191474
:1028C00088E0FE01A3E8B2E001900D928A95E1F75D
:1028D000DF91CF91089587E797E790930108809360
:1028E00000089AE088E10FB6F894A89580936000FC
:1028F0000FBE90936000FFCF78941F920F920FB697
:102900000F9211248F939F93AF93BF9380917C027A
:1029100090917D02A0917E02B0917F020196A11D4F
:10292000B11D80937C0290937D02A0937E02B093B0
:102930007F02BF91AF919F918F910F900FBE0F902B
:102940001F9018959C014FB7F89480917C0290914C
:102950007D02A0917E02B0917F024FBF821B930B3C
:1029600008952FB7F89460917C0270917D02809158
:102970007E0290917F022FBF08952FB7F894809127
:102980007C0290917D02A0917E02B0917F022FBFC8
:1029900008951F920F920FB60F9211248F939F9359
:1029A000AF93BF9380917B02811113C080917C0211
:1029B00090917D02A0917E02B0917F024196A11D6F
:1029C000B11D80937C0290937D02A0937E02B09310
:1029D0007F02BF91AF919F918F910F900FBE0F908B
:1029E0001F9018959C012A5F3F4FFC0142814613BE
:1029F00001C01282019682179307B9F708959C01CE
:102A0000FC0132969FEF80E04191461789F09F3F8D
:102A100019F4411101C0982F8F5F8630A9F79F3FAD
:102A200039F0F901E90FF11D97FDFA9562830895D8
:102A30000895E0917902F0917A02309729F001909F
:102A4000F081E02D0995089580E008954115510524
:102A500011F0FA0109950895CF93DF93EC014A85AF
:102A60005B856E857F850E9426158B810E9473266B
:102A70008C810E947A260E94ED2686E0FE0111924A
:102A80008A95E9F7DF91CF910895CF93DF93EC0119
:102A90008D8181FD14C082608D83909176028B813F
:102AA000892B809376028C810E9481260E94ED26DC
:102AB000488559856E857F85CE010E942615109226
:102AC0007802109277028D8180FD03C0CE010E94B2
:102AD0002C15DF91CF910895A0E0B0E0E2E7F5E199
:102AE0000C94752F7C015B01C42FD22FFC018581D2
:102AF0008823B1F0409375020E94BD149093740234
:102B00008093730280E28C0F883008F052C0C77047
:102B100081E001C0880FCA95EAF70E940E2349C0E0
:102B200080917502481335C08091730290917402B0
:102B30000E94A2146C01B701C5010E940B2AC8169D
:102B4000D90638F510E21D0FCD17B9F080E28C0FD1
:102B5000883040F4C77081E001C0880FCA95EAF759
:102B60000E940723183010F581E09D2F977001C057
:102B7000880F9A95EAF70E940E23802F0E947823EF
:102B80001830B8F4D77081E001C0880FDA95EAF701
:102B90000AC080E28C0F883060F4C77081E001C009
:102BA000880FCA95EAF70E94072303C0802F0E946E
:102BB0007823CDB7DEB7EAE00C94912FCF93DF9363
:102BC000EC01409168025091690260916A02709133
:102BD0006B022FB7F89480917C0290917D02A091B6
:102BE0007E02B0917F022FBF841B950BA60BB70B03
:102BF000843F9140A105B105A8F4809168029091AD
:102C00006902A0916A02B0916B0280936402909372
:102C10006502A0936602B093670284EF91E0A0E0A2
:102C2000B0E00EC00E94B11460936402709365021C
:102C3000809366029093670282E390E0A0E0B0E0A8
:102C40008093600290936102A0936202B09363024A
:102C5000D0937002C0936F02DF91CF910895FF92DD
:102C60000F931F93CF93DF93009171021091720223
:102C70000115110509F45CC01092700210926F02E8
:102C800010926C0210926D02D80116966D917C9193
:102C900017979B013A9521153F4108F4707EC62F86
:102CA000D1E0611101C0D0E0F82ED8011996ED9164
:102CB000FC911A97309739F01B966D917C911C9777
:102CC00080E00995D823DD2379F08CEF8C0F813AD1
:102CD00030F46C2F8BE591E00E94F21405C00E9445
:102CE000ED268C2F0E941523E0917102F091720263
:102CF00040815181FF2071F0808584FD0BC080915F
:102D00006E02882339F091E09A01215031092F3366
:102D10003E4708F090E090FF03C0CA010E94DE1514
:102D20000E94ED26109272021092710210926E02B1
:102D3000C801CDB7DEB7E5E00C94962FFC01848185
:102D40008623C1F492819923B9F08085692383FF9A
:102D500004C081E0611111C00DC0892F8F70929560
:102D60009F70982B862F8F7062956F70682B81E013
:102D7000961719F080E0089581E00895CF93DF93CE
:102D8000CDEAD1E060E0CE010E94102F2196C1155E
:102D900084E0D807B9F7DF91CF910895883080F4A7
:102DA0009B01982F8AE0989FB001112463547F4FB4
:102DB0004AE050E0C9010E94E22E80E090E00895D0
:102DC0008FEF9FEF08951F93CF93DF93962F84305B
:102DD000E8F46330D8F44430C8F4632F122FC42FC2
:102DE000D0E0CC0FDD1F28E0929FC00DD11D112433
:102DF00098E1899FC00DD11D1124CE0189960E94B2
:102E0000102F612FCE018A960E94102FDF91CF9153
:102E10001F9108950F931F93CF93DF93843008F58C
:102E20006330F8F44430E8F4C42FD0E0CC0FDD1F59
:102E300028E0629FC00DD11D112438E1839FC00D91
:102E4000D11D1124CE0189960E94F22E90E0182FF8
:102E50000027CE018A960E94F22E9801282BC901E4
:102E600002C080E090E0DF91CF911F910F91089513
:102E7000BC0140915A0280915B02942F981729F16E
:102E8000292F30E0F901EE0FFF1FEE5AFD4F0190A0
:102E9000F081E02DE617F70799F487E0869FF001AF
:102EA000879FF00D1124EF54FE4F81E0848394132B
:102EB0000CC02F5F3F4F2370332720935A02089591
:102EC0002F5F3F4F922F9370D9CF0895EF92FF92CB
:102ED0000F931F93CF93DF938091E9018823D9F15A
:102EE000C091B0018DE0F82E8091E901C81778F506
:102EF000EE24E394EC0EE092B001D0E0FC9EF001F1
:102F0000FD9EF00D1124E651FE4F84818823E9F0E7
:102F100087819085892B21F481859285019659F4CA
:102F200000811181228133814481558166817781BD
:102F300080850E948922FC9EF001FD9EF00D1124E7
:102F4000E651FE4F148210927602CE2DCDCF109214
:102F5000E9011092B001CDB7DEB7E6E00C94952FF1
:102F60001092AF011092AE01E1EBF1E08581811189
:102F700002C014821682379681E0E93EF807B1F765
:102F8000089510925D0210925C0210920C018091E3
:102F90005B0280935A020E94B0170E946617089540
:102FA000A0E0B0E0E6EDF7E10C946E2FC0915A027C
:102FB00097E0992E01E010E02DE0322E34E0432E10
:102FC0005524539480915B02C81709F479C0D0E06E
:102FD000FE01EE0FFF1FEE5AFD4F80819181989EFA
:102FE000D001999EB00D1124AF54BE4F14962C9170
:102FF0001497211162C07090E901EAEEF1E020E03F
:1030000030E0812C5D01271508F055C0E384F4847D
:10301000D501CD90DC906FEF7FEF612C462D50E015
:10302000DA01AA0FBB1FAC0DBD1D0D90BC91A02DE8
:10303000109731F0EA16FB0609F4BA016394EECF5B
:103040006F3FBFEF7B0799F1D80102C0AA0FBB1FEA
:103050006A95E2F78A2AB801062C02C0660F771F2C
:103060000A94E2F7AB0141505109682D70E0461710
:103070005707E1F4329EF001339EF00D1124E65122
:10308000FE4F989ED001999EB00D1124AF54BE4FB3
:1030900012962D913C91139730872783448210829A
:1030A00011829287818715965C9205C014822F5FEA
:1030B0003F4F3D96A8CF0E9438172196C37082CF0C
:1030C0000E9466170E94B017CDB7DEB7E1E10C94FD
:1030D0008A2F80910B01877F80930B0182E00E94F1
:1030E000732680910B0184FF06C08F7E80930B01B5
:1030F00082E00E94812680910B0185FF06C08F7DB2
:1031000080930B0180E20E9481260E94ED260895A3
:10311000662329F0209176022260209376029C019A
:1031200030522115304308F499270E94BF2E08958C
:10313000009741F0EFE9FFE03197F1F700C00000A0
:103140000197F6CF0895A0E0B0E0E9EAF8E10C9429
:10315000752F5C017B01C42E890180910B0182FFD8
:1031600088C0C091AC01D091AD01CA15DB0521F03A
:10317000A114B10409F07DC080910B018B7F809375
:103180000B0181FD11C08091AA019091AB01A701B3
:10319000481B590B81E02091090130910A01421727
:1031A000530718F480E001C081E08170D82E80912F
:1031B0000B01D0FA81F980930B01FE01FF2784E017
:1031C000F695E7958A95E1F79E012F703327EE0F6C
:1031D000FF1FEA59FE4F81E090E002C0880F991F5F
:1031E0002A95E2F7DD2029F020813181822B932B73
:1031F00006C080959095208131818223932391830D
:1032000080838091650181FF08C080910B018061FE
:1032100080930B0182E00E947A268091650185FFF0
:1032200008C080910B01806280930B0180E20E94B4
:103230007A26A8016D2DCE010E948818CC2031F08D
:103240008091A10185FF02C086FF2BC08091A4015F
:103250009091A5010E9498188091AC019091AD01C8
:103260009C0130522115304308F499270E94A52E65
:1032700012C0C50190528115904318F4C5019927D9
:1032800001C0C5010E94A52E8091AC019091AD01B5
:10329000A816B90611F40E946918F092AB01E092E9
:1032A000AA01CDB7DEB7EAE00C94912FE6E8F1E091
:1032B000128E138E8FEA90E09183808385E0848F55
:1032C00028E833E13383228322E330E0378B268BF7
:1032D00028EC30E0318F208F158E178E168E20E56A
:1032E00030E031A320A382A30E941C290E947B22EC
:1032F0001092640110926301E4E6F1E08081846041
:103300008083609163017091640184E090E00E9489
:103310002E2F0E94F6280895AEE1B0E0E2E9F9E12F
:103320000C94712FA0905E02B0905F0281E090E05B
:1033300090935F0280935E02C12CD12C712CE12C02
:10334000F12C612C00E010E047018C0C9D1C402FFB
:1033500083E0781659F0F401E00FF11FEE0FFF1F24
:10336000E85BFD4F859194919C0102C021E030E023
:10337000662D872D0E94E3160F5F1F4F0430110545
:1033800031F76394E4E0EE0EF11CF3E06F12DACF54
:1033900073948CE0C80ED11CE4E07E12D0CF0E9462
:1033A00056191A8219821C821B821E821D8218865F
:1033B0001F8288EC90E09A8789870DEB10E04AE045
:1033C00050E0B801CE0101960E94342F065F1F4FD6
:1033D0000D30F1E01F0799F77E018BE0E80EF11C3C
:1033E0008AE0F70111928A95E9F74AE050E0B801C6
:1033F000C7010E94342F065F1F4F0D35F1E01F07F4
:10340000A1F77E0185E1E80EF11C8AE0F701119237
:103410008A95E9F78FEF9FEF9A8F898F87E08E8FDC
:103420004AE050E0B801C7010E94342F065F1F4FE9
:103430000D3AF1E01F07A1F7B0925F02A0925E0281
:103440006E96EEE00C948D2FA0E0B0E0EAE2FAE197
:103450000C94752FEC018AE0A82E2881222309F410
:103460009AC0213009F041C08981813039F48E0140
:103470000E5F1F4F8A810E94782308C0823041F47A
:103480008E010E5F1F4F8A810E943023E80181C0A8
:10349000833039F48E010E5F1F4F8A810E941523FD
:1034A000F5CF843011F0219674C02A81229680E0F5
:1034B00090E030E0205331092A30310558F4A89EBD
:1034C000A001A99E500D1124C901840F951F2196BA
:1034D0002881EFCF009709F45CC0EFE9FFE0319756
:1034E000F1F700C000000197F5CFE22FF0E0EA53BA
:1034F000FC4FB490822F86958695869590E0FC01CE
:10350000EA54FC4FE4902770F12C022E02C0F5948F
:10351000E7940A94E2F7F1E0EF22FF24FC01EA5578
:10352000FC4FC490D12C022E02C0D594C7940A94AB
:10353000E2F731E0C322DD24FC01EA56FC4F04919E
:1035400010E002C0159507952A95E2F70170112742
:10355000E114F10419F081EE0E943023C114D1046A
:1035600019F086EE0E9430238B2D0E947823C1141F
:10357000D10419F086EE0E941523E114F10419F02C
:1035800081EE0E9415230115110519F08CE20E94AD
:103590007823219662CFCDB7DEB7EAE00C94912F65
:1035A000AAE2B0E0E6EDFAE10C947C2FEFE8F2E05D
:1035B0008091F100819322E0E739F207C9F7809109
:1035C0009002833009F461C030F4813071F08230B0
:1035D00009F49BC0B2C08A3009F487C08B3009F46B
:1035E0006CC0893009F0A9C020C080918F02813A57
:1035F00009F0A3C08091E800877F8093E800809164
:10360000930290919402892B21F468E083E892E080
:1036100003C060E080E090E070E00E94BB13809106
:10362000E8008B778093E80088C080918F02813218
:1036300009F083C08091930290919402892B09F044
:103640007CC08091E800877F8093E8008091E8004B
:1036500082FD05C080918D028111F8CF6EC020914E
:10366000F3008091F20090E0922B029731F4809168
:10367000F100813011F0863021F48091F1008093C7
:1036800082028091E8008B7754C080918F02813A4A
:1036900009F053C08091930290919402892B09F014
:1036A0004CC08091E800877F8093E8008091E8001B
:1036B00080FFFCCF80910D0137C080918F02813255
:1036C000E1F58091930290919402892BB1F580915C
:1036D000E800877F8093E8000E9467138091910241
:1036E00080930D010E947B2228C080918F0281323D
:1036F00021F58091E800877F8093E8000E9467139E
:10370000809192028093810218C080918F02813A49
:10371000A1F48091E800877F8093E8008091E80021
:1037200080FFFCCF809181028093F1008091E800BE
:103730008E778093E8000E9467138091E80083FFF2
:10374000E0C180918F0290919002492F50E04A3061
:10375000510508F0D6C1FA01E056FF4F0C94602FD6
:10376000803821F0823809F0CCC108C080918B02EA
:1037700090918C02992389F082600FC0809193020E
:103780008F70873008F0BDC18093E9008091EB0015
:1037900085FB882780F91092E9009091E800977FD7
:1037A0009093E8008093F1001092F10072C1282FED
:1037B0002D7F09F0A6C1882319F0823061F0A1C1E4
:1037C00080919102813009F09CC1933009F080E032
:1037D00080938C022EC08091910281112AC0809129
:1037E00093028F702FEF280F263008F08AC1809344
:1037F000E9002091EB0020FF1CC0933021F4809160
:10380000EB00806214C09091EB0090619093EB000C
:1038100021E030E0A90102C0440F551F8A95E2F76C
:103820004093EA001092EA008091EB008860809358
:10383000EB001092E9008091E800877F2DC1811193
:1038400060C1109191021F778091E3008078812BF5
:103850008093E3008091E800877F8093E8000E94D6
:1038600067138091E80080FFFCCF8091E3008068BF
:103870008093E300111102C082E001C083E08093D5
:103880008D023FC18058823008F03BC18091910287
:10389000909192028C3D53E0950779F583E08A83FD
:1038A0008AE289834FB7F894DE01139620E03EE068
:1038B00051E2E32FF0E050935700E49120FF03C062
:1038C000E295EF703F5FEF708E2F90E0EA3010F0DE
:1038D000C79601C0C0968D939D932F5F243149F701
:1038E0004FBF8091E800877F8093E8006AE270E034
:1038F000CE0101960E94BB13BAC040919302509131
:103900009402292F332723303105B1F068F4213098
:10391000310509F405C12230310509F0F2C082E415
:1039200090E0E6EFF2E050C02132310581F1223221
:10393000310509F439C0E5C0992781309105B9F006
:1039400070F082309105D9F0039709F0DAC0EAE40B
:10395000F3E0E4918E2F90E0EAE4F3E032C0E2E994
:10396000F3E0E4918E2F90E0E2E9F3E02AC0E6E88C
:10397000F3E0E4918E2F90E0E6E8F3E022C0E8E681
:10398000F3E0E4918E2F90E0E8E6F3E01AC04115F1
:10399000510509F4CAC04130510509F0B2C089E0AF
:1039A00090E0E1E2F3E010C04115510509F4C2C016
:1039B0004130510509F0A5C082E290E0E0E9F2E073
:1039C00003C0009709F49DC02091E800277F209351
:1039D000E80020919502309196028217930708F42F
:1039E0009C0140E02115310589F180918D028823E9
:1039F00009F43DC08530D9F18091E80083FD37C0DE
:103A00008091E80082FD2FC08091E80080FFEACF1E
:103A10004091F3008091F20090E0942B2115310544
:103A200059F08830910540F444914093F10031966B
:103A3000215031090196F2CF41E0089709F040E0AA
:103A40008091E8008E778093E800CCCF4111CDCFF4
:103A50000AC080918D02882351F0853041F0809119
:103A6000E80083FD04C08091E80082FFF2CF8091DE
:103A7000E8008B778093E80044C0803809F041C0AB
:103A80008091E800877F8093E80080918E02809388
:103A9000F1008091E8008E778093E8000E94671320
:103AA00030C081112EC0809191029091920299278D
:103AB00002973CF58091E800877F8093E8001091A1
:103AC000910210938E020E946713111106C080911B
:103AD000E30087FD02C081E001C084E080938D0295
:103AE00042E061EC81E00E94861342E261EC82E0F8
:103AF0000E94861342E260EC83E00E94861380916C
:103B00008D028091E80083FF1AC08091E800877FD2
:103B10008093E8008091EB0080628093EB000FC0FF
:103B200082E190E0E8E3F3E04FCF89E090E0E8E065
:103B3000F3E04ACF84E490E0E2EBF2E045CFAA96CE
:103B4000E3E00C94982F1F920F920FB60F9211245E
:103B50002F933F934F935F936F937F938F939F9395
:103B6000AF93BF93CF93DF93EF93FF93C091E9009F
:103B7000CF708091EC00D82FD17080FDD0E81092EA
:103B8000E9008091F000877F8093F00078940E9494
:103B9000D01A1092E9008091F00088608093F000C4
:103BA000CD2BCF70C093E900FF91EF91DF91CF91C2
:103BB000BF91AF919F918F917F916F915F914F9145
:103BC0003F912F910F900FBE0F901F901895E8ED29
:103BD000F0E080818E7F80831092E2001092DA0004
:103BE0001092E100A0EEB0E08C9181608C93808116
:103BF0008F77808319BCA7EDB0E08C918E7F8C937A
:103C000080818F7E8083109280020895A0E0B0E0D2
:103C1000ECE0FEE10C94772FC8EDD0E088818F7E38
:103C20008883E7EDF0E080818160808384E082BF5B
:103C300081E08093800288818E7F888302EE10E08D
:103C4000F80110821092DA0081EEC82ED12CF60114
:103C5000108288818F7788838881806888838881B3
:103C60008F7D888319BC10928D0210928E02109263
:103C70008C0210928B0290EEE92EF12CF7018081DC
:103C80008B7F808388818160888342E060E080E070
:103C90000E948613F60180818E7F8083F8018081E7
:103CA00081608083808188608083F70180818E7F3E
:103CB0008083888180618883CDB7DEB7E8E00C948B
:103CC000932F1F920F920FB60F9211242F933F93B1
:103CD0004F935F936F937F938F939F93AF93BF9314
:103CE000EF93FF938091E10082FF09C08091E20091
:103CF00082FF05C08091E1008B7F8093E10080917D
:103D0000DA0080FF2AC08091D80080FF26C0809111
:103D1000DA008E7F8093DA008091D90080FF18C08E
:103D200080E189BD82E189BD09B400FEFDCF81E05B
:103D300080938D028091800281110FC00E94E71D47
:103D40000E94061E8091E20084608093E20005C01C
:103D500019BC10928D02109280028091E10080FFC8
:103D600017C08091E20080FF13C08091E2008E7F37
:103D70008093E2008091E20080618093E200809174
:103D8000D80080628093D80019BC85E080938D02B2
:103D90008091E10084FF30C08091E20084FF2CC05C
:103DA00080E189BD82E189BD09B400FEFDCF80912B
:103DB000D8008F7D8093D8008091E1008F7E809322
:103DC000E1008091E2008F7E8093E2008091E2002A
:103DD00081608093E20080918E02882311F084E05C
:103DE00007C08091E30087FD02C081E001C083E04D
:103DF00080938D0280918D028091E10083FF27C026
:103E00008091E20083FF23C08091E100877F80934F
:103E1000E10082E080938D0210928E028091E10099
:103E20008E7F8093E1008091E2008E7F8093E2009C
:103E30008091E20080618093E20042E060E080E0F7
:103E40000E9486138091F00088608093F000FF91BB
:103E5000EF91BF91AF919F918F917F916F915F9102
:103E60004F913F912F910F900FBE0F901F9018957B
:103E70002091E4003091E50095E64091EC00842F1C
:103E8000817040FF23C08091E80080FD1DC08091BB
:103E90008D02882399F0853099F08091EB0085FDA3
:103EA00011C04091E4005091E5002417350729F333
:103EB000915011F09A01E1CF84E0089582E00895D5
:103EC00083E0089581E0089580E008954091E8003E
:103ED00042FFDDCF0895CF92DF92FF920F931F93A1
:103EE000CF93DF936C0100913D0180913C01082B41
:103EF000C3E0D0E010E0C8010C2E02C09595879574
:103F00000A94E2F780FD04C02197A8F7F12C09C0BC
:103F1000FC2EB6018C2F0E9406250E9423250197B6
:103F200099F38F2DDF91CF911F910F91FF90DF902B
:103F3000CF900895CF93DF93EC010E946B1FBE01D9
:103F40000E9406250E942325DF91CF910895292FF5
:103F5000933078F5843068F590E034E0239F800D4D
:103F6000911D1124682F677023E0969587952A95F7
:103F7000E1F7FC01EE0FFF1FE80FF91FE956FD4FB7
:103F800040E050E080E0219130E0062E02C03695FE
:103F900027950A94E2F721703327042E01C0220FDF
:103FA0000A94EAF7822B4F5F5F4F4330510559F770
:103FB000089580E00895292F933088F5843078F5AE
:103FC00090E034E0239F800D911D1124282F27704D
:103FD00051E001C0550F2A95EAF723E096958795A1
:103FE0002A95E1F7FC01EE0FFF1FE80FF91FE956D4
:103FF000FD4F20E030E070E04081CB01022E02C096
:10400000969587950A94E2F7817081958427852398
:10401000842781932F5F3F4F2330310569F708953F
:1040200080933D01089590913D0121E030E0F90138
:1040300001C0EE0F8A95EAF7D90102C0AA0FBB1F93
:104040006A95E2F7BD016E2B01C0220F4A95EAF78F
:10405000892F8623681303C0892F822B03C02095E4
:10406000822F89230E941020089521E030E001C0B2
:10407000220F8A95EAF7209580913D0182230E94C4
:104080001020089521E030E001C0220F8A95EAF760
:1040900080913D01822B0E941020089580933C0165
:1040A000089592959F70963079F010F4925001C067
:1040B0009A50923068F4803F69F018F4883E40F4DA
:1040C00009C0843F29F406C0883E20F0813F11F0EA
:1040D00080E0089581E00895FC012481222371F09D
:1040E00087819085009719F00E94232504C0808164
:1040F00091810E949A1F0E945120089580E00895A6
:10410000A8E1B0E0E6E8F0E20C94702F8C0186E0C4
:10411000F801DE01539601900D928A95E1F7D801DE
:1041200014967C9014971596EC908DE9A82E82E059
:10413000B82E8091A102811122C0772009F45BC0C2
:10414000EE2009F455C0C8010E946C20F82E882387
:1041500009F44EC089E0F801ADE9B2E001900D929A
:104160008A95E1F78091A102813031F480919D021E
:1041700090919E020E949A1F0E947727B7C1F80172
:1041800050806180C280D38060E08DE992E00E941F
:10419000142CF090A20280919F029091A0024601FF
:1041A000881A990A60E08DE992E0FF2009F426C19F
:1041B0000E94142C6DE972E00E940B2A8816990661
:1041C00008F0C5C07720B9F08091A302382F307F66
:1041D00020919E02D80111969C911197332371F082
:1041E000291709F473C0C8010E946C20811182C094
:1041F000C8010E948A02FF24F39478C129131FC0CA
:1042000020919D029C9129131AC04091A4025091C3
:10421000A50217962D913C9118974217530779F4F0
:10422000E1100DC08F7080618093A3028DE992E050
:104230000E948A028091A302F801868356C1E11090
:104240003BC040E0662D852D0E944D27E82E882337
:1042500029F08091A30180FD3DC147C15B8A6C8A32
:104260008B899C890E949A1F292F22952F702430B8
:1042700020F49F70223028F009C02A50223088F0A4
:1042800015C0992351F0811108C014C0992329F059
:10429000D80116969C91907F69F0805E883030F44A
:1042A00009C0803F38F0815F833020F0C8010E9450
:1042B0008A02EF2CFE2C1AC18091A30281608093A8
:1042C000A3028091A30181FD10C104C120919D0230
:1042D000F8019081291387CF4091A4025091A50243
:1042E000278130854217530709F07DCFE1107BCF3E
:1042F0008683D0C0EE2009F47BCF2091A302822FC9
:1043000082958F7090E00297BCF080919D02909111
:104310009E029B878A87DD86CC868091A1028E874C
:104320001F86288B8091A4029091A5029A8B898B7D
:10433000CE010A960E948A0289E0F801ADE9B2E056
:1043400001900D928A95E1F70E94772754CF8091D2
:10435000A302982F907F39F48DE992E00E948A029F
:1043600089E0D501BFC0772009F445CF20919E0296
:10437000F801918129131AC020919D02908129137F
:1043800015C04091A4025091A502278130854217A3
:10439000530761F4E1100AC08683C8010E948A02B3
:1043A00089E0D5011D928A95E9F7A0C0C8010E9455
:1043B0006C20882309F41CCFEE2009F419CF20913A
:1043C000A302822F82958F7090E002970CF4B4CFF5
:1043D00080919D0290919E029A838983DC82CB8298
:1043E0008091A1028D831E822F838091A4029091DF
:1043F000A50299878887CE0101969CCF0E94142C34
:104400006DE972E00E940B2A8816990608F05CC0DC
:10441000772009F4F0CEFE2CEE2009F4E9CE90913D
:104420009E02F8018181981341C090919D02808184
:1044300098133CC02091A4023091A50287819085F9
:104440002817390799F580919F029091A002C81A08
:10445000D90AF8ECCF16D10400F58091A30280FDB3
:104460001CC082958F70482F50E041155105A9F06E
:104470002091A302D80116962C9316974F30510520
:1044800049F08F5F982F9295907F822F8F70892BA4
:1044900016968C93C8010E948A0289E0F801ADE962
:1044A000B2E001900D928A95E1F720C0C8010E9408
:1044B0006C20811141CF8091A30281608093A3027F
:1044C000C8010E948A0212C089E0F50111928A9502
:1044D000E9F70CC08DE992E00E948A02EDE9F2E072
:1044E00089E0DF011D928A95E9F7F12C8F2D6896FE
:1044F000EFE00C948C2F1092650186E0EDE5F1E081
:10450000DF011D928A95E9F7109276020E94ED264E
:104510000895A2E1B0E0EFE8F2E20C947B2F0A8765
:104520001B872C873D874E875F87688B798B8A8BAB
:10453000CE010A960E94802081113BC089E0FE01D5
:104540003A96DE01119601900D928A95E1F76E85FB
:10455000662379F12091A60230E0C90101968770A7
:1045600099274091EF0250E084179507A1F06D83E1
:1045700099E0929FD001939FB00D1124A955BD4F92
:10458000FE01319601900D929A95E1F78093A60273
:104590000E946D270EC00E947B221092A6021092EC
:1045A000EF02EDE9F2E089E0DF011D928A95E9F77B
:1045B00019C019E08091EF029091A602891791F03D
:1045C000189FC001112489559D4F0E948020882387
:1045D00049F08091EF0290E00196877099278093CF
:1045E000EF02E8CF6296E4E00C94972F882321F045
:1045F0000E9473260E94ED260895882339F0909139
:104600007602892B809376020E94ED2608958823F6
:1046100021F00E947A260E94ED260895882321F039
:104620000E9481260E94ED2608958823C1F0682FFC
:104630008CEF860F813A28F48BE591E00E94F2140A
:104640000CC080E2860F883050F4677081E001C0B2
:10465000880F6A95EAF70E947A260E94ED2608954F
:10466000CF93882359F1C82F8CEF8C0F813A78F4BF
:10467000EDE5F1E08191C817C9F081E0E336F80774
:10468000C9F76C2F8BE591E00E94FF140CC080E20B
:104690008C0F883098F4C77081E001C0880FCA95EC
:1046A000EAF70E9481260E94ED2608C06C2F8BE558
:1046B00091E00E94F2140E94ED26E3CFCF9108957D
:1046C0001F93CF93DF93182FEB010E943023209785
:1046D00041F08FE99FE00197F1F700C000002197BA
:1046E000F6CF812F0E941523DF91CF911F9108955E
:1046F000893329F46091A6017091A70104C06091EB
:10470000A4017091A5010E946023089580E008959E
:104710009091630192FF10C041E0282F2471243052
:1047200009F040E031E0282F2871283009F030E00E
:10473000431711F02CE0822793FF10C041E0282F8F
:104740002471243109F040E031E0282F287128310C
:1047500009F030E0431711F02CE08227309164011A
:1047600030FF10C051E0282F2171213009F050E0B6
:1047700041E0282F2871283009F040E0541711F04B
:1047800029E0822731FF10C041E0282F217121311B
:1047900009F040E031E0282F2871283109F030E09D
:1047A000431711F029E0822794FD877E089582380F
:1047B000910569F1B0F48133910509F475C048F4AD
:1047C0008932910509F467C08A32910509F471C0F4
:1047D00008958533910509F459C089339105B9F0DD
:1047E0000895833E910589F138F4803E9105D1F01A
:1047F000823E910529F10895863E9105C9F1873ED3
:104800009105D9F1843E910509F06CC027C0209133
:10481000630120FD57C021FD55C02091640123FD97
:104820005BC008958091630180FD48C08091640160
:1048300080FF48C08091630184FD46C083EE51C073
:104840008091630182FF3CC0F5CF8091630182FDBE
:1048500037C08091640180FD35C0ECCF8091640148
:1048600081FF36C08091630184FD2EC087EE39C080
:104870008091630183FF2AC0F5CF8091630183FD9E
:1048800025C08091640181FD23C0ECCF809163013C
:1048900085FD22C01FC08091630185FD1BC08091F2
:1048A000640183FF19C00AC08091630186FD16C0B0
:1048B00017C08091630186FD13C010C089E311C049
:1048C00082EE0FC080EE0DC080E00BC086EE09C006
:1048D00084EE07C085E305C089E203C08AE201C017
:1048E00081E390E00895CF92DF92EF92FF921F93C1
:1048F000CF93DF9300D01F92CDB7DEB719821A8213
:104900001B82CE0101966C01E6E1F1E082E2E82E25
:1049100081E0F82EB60140E050E010E031E0CF0138
:10492000840F951FDC012C912F3F91F0822F8295EF
:104930008F7090E0DC0190968C9190E02F7002C017
:10494000959587952A95E2F780FD02C0832F02C0D6
:1049500080E090E0182B330F4F5F5F4F44305105DC
:10496000F1F6D6011D936D013496EE16FF0699F609
:1049700043E050E089E391E00E94B82F892B91F049
:1049800089819A81AB818093390190933A01A093F8
:104990003B0181E0809303030E94BD1490930203C6
:1049A0008093010380910303811102C080E023C042
:1049B00080910103909102030E94A2140597B0F325
:1049C00043E050E069E371E086E591E00E94B82F92
:1049D000892B71F08091390190913A01A0913B01AE
:1049E0008093560190935701A093580181E001C034
:1049F00080E0109203030F900F900F90DF91CF9102
:104A00001F91FF90EF90DF90CF9008952091590172
:104A100030915A01232BA1F4703F39F4603F81F4A7
:104A200080910403909105030895733048F4643035
:104A300038F4843028F4462F672F0E940A1708950F
:104A400080E090E008951F93CF93DF930E94D723D7
:104A5000EC01C11582E5D807C8F5C11590E5D90765
:104A600008F0BBC0C83ED105C0F4C03ED10508F077
:104A7000DDC0C53AD10550F4C430D10508F0D6C028
:104A8000219709F0D0C081E090E0D1C0CD3CD105A4
:104A900008F4C9C0CE019065CAC0C11580E4D8072A
:104AA00008F05AC0C11590E2D90708F0AFC0C1158F
:104AB00081E0D80708F4B7C08D2F0E948823182FF3
:104AC000CE0199270E94D7231F71ABC0C03892E551
:104AD000D90720F5C03682E5D80708F061C0C03498
:104AE00092E5D90708F04AC0C03282E5D807F0F550
:104AF0004C2F4695469590E2499FA0011124C37022
:104B000021E030E0C90102C0880F991FCA95E2F781
:104B1000EA01C82BD92BCE019D6889C0C03C92E523
:104B2000D90768F48C2F8F71C03AD24508F04CC079
:104B300090E0D82FCC27CE01846F906A78C0C03E19
:104B400082E5D80708F06FC0CF71DD27DC2FCC27B6
:104B5000CE01806F906A6BC0CE0199270E94D72347
:104B6000CC27DF70D06A8C2B9D2B61C0CF71D0E039
:104B7000DC2FCC27CE01816F906A59C08C2F8F71AA
:104B80008695869590E2899F90011124C37081E0FB
:104B900090E002C0880F991FCA95E2F79C6811C087
:104BA0008C2F8F718695869590E2899F90011124B4
:104BB000C37081E090E002C0880F991FCA95E2F7A8
:104BC0009A68822B932B33C00E9488238F7190E0C8
:104BD000D82FCC27CE0190622AC08C2F8F710E94D3
:104BE000882395E0D695C7959A95E1F7CF70D0E0E8
:104BF000DC2FCC27282F30E084FF05C084E0220F73
:104C0000331F8A95E1F7D069CE01DBCF8D2F8F71ED
:104C10000E948823182FCE0199270E94D7231F7145
:104C20009062912B04C080E090E001C0CE01DF9142
:104C3000CF911F910895A6E0B0E0E1E2F6E20C9476
:104C40007B2F0E94BD148C018091FF029091000384
:104C50000817190781F019821A820E94BD14682F63
:104C600049815A81792F80E090E00E94232C109393
:104C700000030093FF022696E4E00C94972F8091A6
:104C8000FE02882331F01092FE021092FD02109273
:104C9000FC020895CF939091640192FF0DC0909112
:104CA000FE02981749F0C82F0E94BD149093FD0290
:104CB0008093FC02C093FE02CF9108959091FE0272
:104CC000292F282379F0809589238093FE02882359
:104CD00019F00E94BD1402C080E090E09093FD02A4
:104CE0008093FC02089580959091760289238093A9
:104CF00076020895809590916501892380936501DE
:104D0000089590916501892B809365010895109213
:104D1000F3021092F2021092F10208959091F302C0
:104D2000809589238093F302282F277069F49817C0
:104D300059F09091640192FF07C0869586958695FB
:104D40000E9435200E94872608959091640192FB6D
:104D5000222720F9281779F080FB92F990936401BB
:104D6000609163017091640184E090E00E942E2FB5
:104D700082E00E948E2608959091640192FF10C0F7
:104D800098E0899F90011124262B2093F3020E9422
:104D900042200E94BD149093F2028093F102089584
:104DA0000E94422008958091880190918901892B69
:104DB00089F00E94BD142091FC023091FD02AC01EB
:104DC000421B530B81E020918801309189014217E9
:104DD000530708F480E081700895909165018091F7
:104DE0007602892B80935B018091FE02882301F17A
:104DF0008091880190918901892B29F00E94D32606
:104E000081110E943F2690915B018091FE02892BC7
:104E100080935B01EDE5F1E097E080E0915029F0AF
:104E200021912223D9F38F5FF9CF81110E943F2670
:104E300080916C02809590915B01892390916D0225
:104E4000892B80935B0148E050E064EF72E08BE5D2
:104E500091E00E94B82F892BA9F088E0EBE5F1E002
:104E6000A4EFB2E001900D928A95E1F7E09179020A
:104E7000F0917A02309731F00280F381E02D8BE5DA
:104E800091E0099508959091F002292F282321F0AF
:104E9000809598239093F00208952091EF029091CD
:104EA000A60259E02917A9F030E0529FF001539F64
:104EB000F00D1124E955FD4F7181761306C0708104
:104EC000781303C07581741306C02F5F3F4F27709E
:104ED000E9CF80E0089581E008958091EF029091FC
:104EE000A602891719F08F5F8770FBCF0895A0E0A5
:104EF000B0E0EDE7F7E20C94782F8091A302829561
:104F00008F7009F052C08091A202882309F44DC02D
:104F1000C091EF0289E0D82E8091A602C81709F44B
:104F200044C0D0E0DC9E8001DD9E100D1124F8010C
:104F3000E955FD4F84818823A9F1918180919E02DA
:104F4000981330C0908180919D0298132BC0858169
:104F5000811128C0E280F38080919F029091A0028D
:104F6000E81AF90A60E08DE992E00E94142C6DE9DC
:104F700072E00E940B2AE816F906A0F48091A302C1
:104F80008F7080618093A302F801E355FD4F80810B
:104F90008F70806180838DE992E00E948A020E9476
:104FA0006D2703C02196C770B7CFCDB7DEB7E7E056
:104FB0000C94942FA0E0B0E0E0EEF7E20C94752F93
:104FC0004430510508F46CC04091630141FBCC248E
:104FD000C0F8D12CCC0CDD1C42FB882780F9C82FEF
:104FE000E0E0DE2FCC0FDD1FCC0FDD1FCC2ADD2A49
:104FF00040FBEE24E0F8F12CEC28FD2843FBAA2727
:10500000A0F9B0E023E0AA0FBB1F2A95E1F7EA2A36
:10501000FB2A44FBEE27E0F9F0E034E0EE0FFF1F3F
:105020003A95E1F7EE29FF2945FB222720F930E0E8
:1050300055E0220F331F5A95E1F72E2B3F2B46FBED
:10504000882780F990E0E6E0880F991FEA95E1F75C
:10505000822B932B47FB442740F950E05695542F61
:10506000442757954795842B952B20916401322F27
:105070003170132F00E0082B192B26952170B22ECA
:10508000BB0CA12C0A291B29012E000C220B330B6F
:10509000FB01008311832283338380E090E002C010
:1050A0008FEF9FEFCDB7DEB7EAE00C94912F8091A0
:1050B00086019091870190930A01809309010895D8
:1050C000CF92DF92EF92FF924430510508F471C005
:1050D000FB01C080D180E280F3800E947B2280911E
:1050E0006301C0FA80F9B701A601769567955795D7
:1050F000479540FB81F9B701A60122E076956795B7
:10510000579547952A95D1F740FB82F9B701A6013B
:1051100033E076956795579547953A95D1F740FBDB
:1051200083F9B701A601E4E0769567955795479511
:10513000EA95D1F740FB84F9B701A601F5E0769531
:10514000679557954795FA95D1F740FB85F9B701D3
:10515000A601A6E07695679557954795AA95D1F74C
:1051600040FB86F9B701A601B7E07695679557959C
:105170004795BA95D1F740FB87F9809363018091F9
:105180006401D0FA80F999E0F694E794D794C79433
:105190009A95D1F7C0FA81F9809364016091630117
:1051A0007091640184E090E00E942E2F80E090E0F6
:1051B00002C08FEF9FEFFF90EF90DF90CF900895A8
:1051C0009C01CA01F90132964591549184179507C3
:1051D00050F0CB01F9013496659174910E94C52F6E
:1051E00080E090E008958FEF9FEF08950F931F9355
:1051F000CF93DF9306E811E0C9E9D0E0CE010E9429
:10520000F22EF80181938F012196CD3BD105B1F7A4
:10521000C0E0D0E0FE01E05BFB4F859194910097E8
:1052200011F0FC0109952C96C039D10599F7DF9151
:10523000CF911F910F9108950F931F93CF93DF93F9
:1052400006E811E0C9E9D0E0CE010E94F22EF80193
:1052500061918F01681719F0CE010E94102F2196DD
:10526000CD3BD10589F7DF91CF911F910F91089523
:10527000DA019C012E5F3F4FF90145915491F901EC
:1052800025913491A217B30758F0FC01349685910B
:1052900094910E94C52F0E941C2980E090E00895FF
:1052A0008FEF9FEF0895AAE0B0E0E9E5F9E20C94F2
:1052B000732F0BEF13E089EEC82E83E0D82E9DE507
:1052C000E92EFF24F3942FE0922E38EEA32E33E044
:1052D000B32E88248394F601019311936F014AE061
:1052E00050E0B701CE0101960E94E22EF801892D0F
:1052F00011928A95E9F789819A81F80191838083D7
:105300008F8182838D81838388858483898585834A
:105310008B819C819783868310868A8587FF03C053
:105320001686158603C0F801B686A58680FF02C0E2
:10533000F801808681FF04C0F80190859260908713
:1053400082FF04C0F80190859460908783FF04C0B9
:10535000F80190859860908784FF04C0F8019085DB
:105360009061908785FF04C0F80180858062808706
:10537000015F1F4FFAE0EF0EF11C8DEAE81681E0A5
:10538000F80609F0A8CF2A96ECE00C948F2FAAE03B
:10539000B0E0EDECF9E20C94772F80E5E8E9F3E07A
:1053A000DF011D928A95E9F788E3E1EBF1E0DF0187
:1053B0001D928A95E9F788E9C82E83E0D82E7F01EF
:1053C0000DE011E0F701D182C0824AE050E0B8015F
:1053D000CE0101960E94E22E88E0FE013196D601B0
:1053E00001900D928A95E1F789859A85D7011396E8
:1053F0009C938E931297BAE0CB0ED11CE7E0EE0E91
:10540000F11C065F1F4F0D35F1E01F07D9F62A96F4
:10541000E8E00C94932FAAE0B0E0E1E1FAE20C940A
:105420007D2F9C0137552F3F310509F050F4BE0107
:105430006F5F7F4F0E94CE16892B19F489859A855C
:1054400004C080919E0190919F012A96E2E00C9405
:10545000992FE8E1F3E080E090E061EF7AE248E143
:105460005BE226E63AE2778366835187408733879B
:10547000228797878687019670968830910599F7DD
:105480000895A6E0B0E0E7E4FAE20C947D2F909353
:10549000050380930403811520E2920718F40E940B
:1054A000A52E10C080EF89838A830E94BD1481607D
:1054B000682F9C838B8349815A817C8181E090E0B5
:1054C0000E94232C2696E2E00C94992F0F931F93B1
:1054D000CF93DF938C01EB016EE073E08C2F0E9481
:1054E000CE16892B09F042C08091A4019091A501AC
:1054F0000E949818DD27CA5FDC4F8881F80112826C
:105500001882833079F048F4813041F1823071F5AE
:10551000809110039091110309C0843051F08530BF
:10552000E9F024C080911203909113030097B1F029
:105530001BC080911403909115030097A9F420914A
:105540000E0330910F0380911003909111032115E8
:10555000310541F0009741F4C90106C080910E0366
:1055600090910F03009711F00E94412ADF91CF9193
:105570001F910F910895A6E0B0E0E1ECFAE20C94DF
:105580007D2F9093050380930403811520E29207F9
:1055900018F40E94BF2E10C080EF89838A830E9476
:1055A000BD148160682F9C838B8349815A817C81E3
:1055B00081E091E00E94232C2696E2E00C94992F42
:1055C000CF93DF93EC010E94BB2A8091A4019091BC
:1055D000A5010E949818CE010E94412ADF91CF9127
:1055E00008950F931F93CF93DF938C01862F6EE066
:1055F00073E00E94CE16892BB1F4C0910E03D091B6
:105600000F03209781F0F8018281833039F4CE01B5
:105610000E94E02ACE010E94E02A02C0843018F0E5
:10562000CE010E94E02ADF91CF911F910F91089542
:105630000F931F93CF93DF938C01EB016EE073E028
:105640008C2F0E94CE16892B09F067C0DD27F80148
:105650008281813039F4958192FD13C090FF11C091
:1056600082E00FC0823041F4F801858182FD06C0DE
:1056700080FD06C083E005C086E003C085E001C070
:1056800084E0CA5FDC4F88838330B1F028F4813036
:1056900071F0823031F041C08430A9F0853079F169
:1056A0003CC080911003909111030097A1F5809167
:1056B0000E0390910F0320C0809112039091130369
:1056C0000097E9F028C0809114039091150300978A
:1056D00011F580910E0390910F03009749F00E94FD
:1056E000E02A8091100390911103009781F013C07C
:1056F0008091100390911103009779F00CC0809174
:105700000E0390910F03009741F00E94E02A8091D0
:105710000E0390910F030E94BB2ADF91CF911F913E
:105720000F91089581152CE7920759F480915E023C
:1057300090915F02892B19F480E090E0089580E059
:105740009CE7089588E290E00E94102F0895CF937F
:10575000C82F811102C06FEF01C061E985E290E0BE
:105760000E94102FC11102C06FEF01C06DE186E2EF
:1057700090E00E94102FC11102C06FEF01C060E2E3
:1057800087E290E00E94102FCF91089580E00E9460
:10579000A72B60E070E0CB010E94A22B0E948C1925
:1057A0000E94BE1681E00E94A72B089585E290E03A
:1057B0000E94F22E813981F486E290E00E94F22E5E
:1057C0008D3151F487E290E00E94F22E91E0803218
:1057D00009F090E0892F01C080E081700895A6E073
:1057E000B0E0E5EFFBE20C947C2F49835A834981BA
:1057F0005A81992361F0222351F0CA010E946B1F44
:10580000182F682F89819A810E94DB1F04C0CA016A
:105810000E94A71F182F69817A81812F0E94062577
:105820002696E3E00C94982FFC01878190850097E1
:1058300049F4262F40815181628173818481958151
:105840000E94EF2B0895ADE1B0E0E9E2FCE20C9498
:105850006D2F4B8B5C8B6D8B7E8B8F8B988F882302
:1058600049F0809137019091380101969093380169
:1058700080933701888D8111109276028E01065F28
:105880001F4F89E0F80111928A95E9F786E0FE0141
:105890007396D80101900D928A95E1F78091640189
:1058A00082FF28C08091880190918901892B11F194
:1058B0000E94BD142091F1023091F202821B930BE1
:1058C00020918801309189018217930740F08091DF
:1058D000F30282FB992790F981E0892701C080E0DB
:1058E00080FF03C082E00E948E260E94D326811191
:1058F0000E943F268E8581110CC00A851B852C8550
:105900003D854E855F85688979898A890E948922CB
:10591000D5C161E0C8010E94142C5C018035FCE710
:105920009F0739F48F858823A9F081E080930C01CB
:10593000C2C181359C4731F48F85882359F00E947C
:10594000C117B9C182E5A8168CE7B80619F48F858E
:10595000811113C0E1EBEE2EE1E0FE2E512C812CE3
:10596000912C66246394712C44244394FE01319657
:10597000FA8FE98FA7E03A2E4EC080910C01882360
:10598000A1F2DDCFA616B70609F0C6013F5F6C0194
:10599000832F90E0FC01EE0FFF1FE40FF51F6081E5
:1059A00071816115710571F7FFEFCF16DF0609F4FC
:1059B00034C1F7016481611136C080910C0181709E
:1059C0002F84F70195812681222009F4CCC08823F9
:1059D00009F4C9C000919C0110919D01992331F1F6
:1059E000C30102C0880F991F3A95E2F79C0121502C
:1059F0003109F701868190E02817390759F15228BB
:105A0000FFEF8F1A9F0A27E0E20EF11C88E088164C
:105A1000910409F404C1F70140815181CC24CA9456
:105A2000DC2C30E0B5CF80E090E0C9CFC3010C2C76
:105A300001C0880F0A94EAF7282B26838091AE01D3
:105A40009091AF018017910758F61093AF01009322
:105A5000AE01C6CF80915C0290915D02009731F05B
:105A60000E94A2140817190708F422C180915A0253
:105A7000F0915B02FB8FE0E0F0E02B8D821709F4E0
:105A800060C0282F30E0F901EE0FFF1FEE5AFD4FE6
:105A9000C080D1803C9CF0013D9CF00D1124EF545E
:105AA000FE4F1081018150E090E040E0E12FF02FA7
:105AB000E40FF11DE40FF11DA081B1811097D1F029
:105AC000F701F081FC8FF701F181FD8F90E0EC8D03
:105AD000FD8DE90FF11DE90FF11D608171816115E7
